:020000040800F2
:1000000000040020B9010008BB010008BB01000882
:10001000BB010008BB010008BB010008BB010008D0
:10002000BB010008BB010008BB0100080DCB0008A4
:10003000BB010008BB010008BB01000851DD00083E
:10004000BB010008BB010008BB010008BB010008A0
:10005000BB010008BB0100081D3500085D35000824
:100060009D350008E135000825360008BB01000871
:10007000BB010008BB01000821E40008BB01000827
:1000800069360008BB010008BB010008BB0100087D
:10009000BB010008BB010008BB010008BB01000850
:1000A000BB010008BB0100080DE0000821E00008CA
:1000B000BB010008BB010008BB010008BB01000830
:1000C00071DD000809370008BB010008BD370008D2
:1000D000BB010008BB010008BB010008BB01000810
:1000E00072B6264880F30888254880F30988254899
:1000F00025490860022080F31488BFF36F8F0CF04D
:1001000031FA0CF00BF84FF0553020491B4A914260
:100110003CBF41F8040BFAE71D49194A91423CBF24
:1001200041F8040BFAE71B491B4A1C4B9A423EBF9D
:1001300051F8040B42F8040BF8E700201849194A5B
:1001400091423CBF41F8040BFAE70CF00FFA0CF0B7
:100150000AFA154C154DAC4203DA54F8041B8847D3
:10016000F9E707F069F8124C124DAC4203DA54F883
:10017000041B8847F9E70CF0F7B9000000040020E1
:10018000000C00200000000808ED00E00000002046
:1001900000040020280B0108000C0020281100207A
:1001A000281100209C3F0020E0000008E00000082B
:1001B000E0000008E000000892E700F000F8FEE729
:1001C0002DE9F04FC1F80CD0C3689D46BDE8F08F13
:1001D000002383F311882846A04700200CF0CAFBB7
:1001E000FEE70CF0FDFA00DFFEE7000053B94AB964
:1001F000002908BF00281CBF4FF0FF314FF0FF302F
:1002000000F074B9ADF1080C6DE904CE00F006F809
:10021000DDF804E0DDE9022304B070472DE9F04782
:100220008C460446089E002B40F086808A42154684
:1002300048D9B2FA82F24AB1C2F1200701FA02F3B8
:1002400020FA07F7954047EA030C94404FEA154E11
:10025000BCFBFEF71FFA85F80EFB17C307FB08F976
:10026000210C41EA0343994509D9EB1807F1FF3105
:1002700080F0E180994540F2DE80023F2B44A3EB01
:100280000903B3FBFEF00EFB103300FB08F1A4B230
:1002900044EA0344A14209D92C1900F1FF3380F04C
:1002A000C880A14240F2C58002382C4440EA074091
:1002B0000027641A1EB10023D440C6E90043394622
:1002C000BDE8F087002A54D0B2FA82F2002A40F04A
:1002D000B4800127491B4FEA15481FFA85F9B1FB85
:1002E000F8FE08FB1E1109FB0EF04FEA144C4CEA15
:1002F0000143984207D9EB180EF1FF3102D2984220
:1003000000F2EB808E461B1AB3FBF8F008FB1033AB
:1003100009FB00F9A4B244EA0344A14507D92C190A
:1003200000F1FF3302D2A14500F2DB801846A4EBB6
:10033000090440EA0E40BDE78B4208D9002E75D073
:100340000027C6E9000138463946BDE8F087B3FA10
:1003500083F77FB98B4202D3824200F2BC80841AB9
:1003600061EB030301209C46002EA8D0C6E9004C97
:10037000A5E7FFDEC7F12005BB4022FA05FC4CEAE9
:10038000030C21FA05F44FEA1C4EB4FBFEF91FFAE8
:100390008CF80EFB194420FA05F3B94009FB08FA62
:1003A00019430B0C43EA0444A24502FA07F200FA8F
:1003B00007F30BD91CEB040409F1FF3080F08980AE
:1003C000A24540F28680A9F102096444A4EB0A0424
:1003D000B4FBFEF00EFB104400FB08FA89B241EAC0
:1003E0000444A24508D91CEB040400F1FF316CD28F
:1003F000A2456AD90238644440EA0940A0FB028958
:10040000A4EB0A044C454146CE4655D352D0002EAB
:100410006AD05A1A64EB0E0404FA05F522FA07F3BF
:10042000FC401D43C6E90054002748E737463046E4
:1004300045E718463AE70F4621E79540C2F1200309
:1004400021FA03F04FEA1548B0FBF8F71FFA85F9D7
:1004500008FB170E24FA03FC914007FB09FA4CEA4B
:100460000101080C40EA0E40824504FA02F407D963
:10047000281807F1FF332AD2824528D9023F2844A1
:10048000A0EB0A00B0FBF8FC08FB1C000CFB09F316
:1004900089B241EA00418B4208D969180CF1FF305A
:1004A00011D28B420FD9ACF1020C2944C91A4CEA83
:1004B000074714E74345AAD2B8EB020169EB0C02E7
:1004C00001389646A3E78446F0E7084694E71F46BE
:1004D000D6E781467AE7384646E7AEF1020E2B446E
:1004E00011E702382C4422E73746E8E6704700BFA0
:1004F00008B5062000F0C2FA01200DF071FA00BF25
:10050000024B0146186800F055B900BF000C0020EE
:10051000024B0146186800F0F9B800BF000C00203B
:10052000032A70B412D940EA0105AD0704460B4610
:1005300020D11946204653F8045B54F8046BAE42B0
:1005400018D1043A032A20461946F2D8541E72B133
:1005500003780A789A4208BF241806D00CE010F8F5
:10056000013F11F8012F934206D1A042F7D100209C
:1005700070BC7047541EEBE7981A70BC704700BF00
:10058000844641EA000313F0030349D1403A23D3E0
:100590000B6803604B6843608B688360CB68C36003
:1005A0000B6903614B6943618B698361CB69C361EB
:1005B0000B6A03624B6A43628B6A8362CB6AC362D3
:1005C0000B6B03634B6B43638B6B8363CB6BC363BB
:1005D00040304031403ADBD230320BD30B680360FD
:1005E0004B6843608B688360CB68C3601030103108
:1005F000103AF3D20C3205D351F8043B40F8043BD7
:10060000043AF9D2043208D0D2071CBF11F8013BDA
:1006100000F8013B01D30B8803806046704700BFA0
:10062000082A13D38B07B1D010F00303AED0C3F167
:100630000403D21ADB071CBF11F8013B00F8013B91
:10064000A4D331F8023B20F8023B9FE7043AD9D308
:10065000013A11F8013B00F8013BF9D20B78037025
:100660004B7843708B78837060467047F0B4860790
:1006700046D0541E002A3CD0CAB2034602E014F110
:10068000FF3436D303F8012B9D07F8D1032C29D969
:10069000CDB245EA05250F2C45EA054533D9A4F12D
:1006A0001006360903F1200707EB061703F11002C5
:1006B00042E9045542E902551032BA42F8D1721C9F
:1006C00014F00C0F03EB021204F00F0613D0331FCB
:1006D00023F003030433134442F8045B9342FBD139
:1006E00006F003042CB1C9B21C4403F8011B9C4260
:1006F000FBD1F0BC704734461346002CF3D1F8E729
:1007000014460346C2E71A462646E0E700293AD0D7
:1007100038B551F8043C0C1F002BB8BFE41805464F
:1007200000F05AFA224B1A682AB1A2420DD9216868
:100730006018824221D0626028461C60BDE83840C3
:1007400000F04CBAA34203D81A465368002BF9D1E3
:1007500011685018A04217D022D82168601883422F
:1007600003BFD3E900030918C4E9001363605460B0
:100770002846BDE8384000F031BAD2E90002014411
:10078000C4E90012D8E7704720680144501883423A
:100790001160EDD1D3E900030144C2E90013E7E79A
:1007A0000C2328462B60BDE8384000F017BA00BF84
:1007B00028110020F8B5CD1C25F0030508350C2DB7
:1007C00038BF0C25002D064633DBA94231D82A4F0D
:1007D00000F002FA3A6852B113685B1B04D43FE0A0
:1007E00023685B1B29D522465468002CF8D1796810
:1007F00000293BD0294630460DF0D6F8431C28D0BE
:10080000C41C24F00304A04205D0211A30460DF088
:10081000CBF801301DD02560304600F0DFF904F13F
:100820000B0020F00700231DC21A01D01B1AA35091
:10083000F8BD0C2200203260F8BD0B2B05D8A24277
:10084000636811D05360E7E7144623601C442560B9
:10085000E2E70C233046336000F0C0F90020F8BD19
:100860000B2BF1D8144653683B60D5E730460DF0AA
:100870009BF87860BEE700BF2811002038B5124B06
:1008800005461C68A06B18B10023C0E9045338BDAD
:100890001820FFF735FEA06378B101220023C0E9DC
:1008A00004230A4B0B24836000230949094A8481ED
:1008B000C0E90012C0E9045338BD0246064B42218C
:1008C000064800F041F900BF000C0020ECDE0500F6
:1008D0000E33CDAB34126DE6580A0108700A0108D8
:1008E00038B51A4B1C68A26B92B114691849536948
:1008F00001FB04F1174800FB0313A4FB0045611C36
:100900001D4445F1000323F00040C2E9041338BD43
:100910001820FFF7F5FD0246A06388B101240025E9
:100920000B21C0E904450C4B0948136003460B4DED
:100930000B4C91810B49C2E90154C2E9041338BD43
:10094000094B4E21094800F0FFF800BF000C0020C1
:100950002DF451582D7F954C0E33CDAB34126DE6EE
:10096000ECDE05002E7F954C580A0108700A01083C
:1009700010B580210446FFF71DFF606440B10022DE
:10098000031F7C3043F8042F8342FBD1002010BDAD
:100990004FF0FF3010BD00BF436C0BB1002070471B
:1009A000E6E700BF1F2970B5054608D8436C164618
:1009B0000C464BB153F8240043F8246070BD162256
:1009C0004FF0FF302A6070BDFFF7D2FF08B96B6CA3
:1009D000F0E74FF0FF3070BD1F2938B5054620D82D
:1009E000426C0C466AB152F8213053B1012B16D03B
:1009F000591C10D00025204642F82450984728461C
:100A000038BD284600F070F8224601462846BDE869
:100A1000384000F055B8162301202B6038BD002067
:100A200038BD16234FF0FF302B6038BD1F2921D869
:100A300038B5436C05460C4683B153F8242003EBCC
:100A400084034AB1511C10D0012A0CD00025204645
:100A50001D609047284638BD012038BDFFF788FF4C
:100A600028B96B6CE9E7032038BD022038BD4FF090
:100A7000FF3038BD4FF0FF30704700BF024B0146DA
:100A80001868FFF7A9BF00BF000C0020024B0A4600
:100A900001461868FFF786BF000C0020034B18685A
:100AA000436C0BB10020704762E700BF000C0020D0
:100AB000024B01461868FFF7B9BF00BF000C0020C9
:100AC00070B50D460023074C0646114628462360A4
:100AD0000CF08EFF431C00D070BD2368002BFBD0B0
:100AE000336070BD983F00200CF08ABF20F00301F6
:100AF00010F00300C0F1000051F8043B00F1040CB9
:100B00004FEACC0C6FF000021CBF22FA0CF2134328
:100B10004FF0010C4CEA0C2C4CEA0C4CA3EB0C02F1
:100B200022EA030212EACC1204BF51F8043B04305B
:100B3000F4D0C2F1000102EA0102B2FA82F2C2F17B
:100B40001F0200EBD200704700B50A4C0546206832
:100B500085B01C46C06852B1074BCDE90132009107
:100B60002B462246054900F023F8FFF7C1FC044B51
:100B70001A46F2E7000C0020A40A0108B40A010892
:100B8000B00A010808B513460022FFF7DDFF00BFD9
:100B90000CB410B582B004AC54F8042B2346019475
:100BA00000F060F802B0BDE8104002B0704700BF2E
:100BB0000EB430B582B005AC54F8042B054D014697
:100BC00023462868019400F04DF802B0BDE830409B
:100BD00003B07047000C0020704700BF704700BF93
:100BE0009368013B002B93600FDA10B49469A34221
:100BF00008DB0A2906D01368581C106019700846D3
:100C000010BC704710BC00F07BBB1368581C106010
:100C100019700846704700BF9BB1F8B513440F46E2
:100C200006465D1E541E01E0AC4208D03A4614F858
:100C3000011F3046FFF7D4FF431CF5D1F8BD00205B
:100C4000F8BD0020704700BF936810B5144613B973
:100C50005360184610BD00F013FE0023C4E90133B1
:100C600010BD00BF2DE9F04F9FB08B4690461C464B
:100C7000039018B18369002B00F0B980A34B9B450A
:100C800000F0BB80A24B9B4500F0C980A14B9B4567
:100C900004BF039BD3F80CB0BBF80C30180740F12D
:100CA000B480DBF81030002B00F0AF80302300213F
:100CB00020228DF8323098F8003005940B918DF891
:100CC0003120954E0127002B00F08980252B00F064
:100CD0001781454603E0252B00F0A58025466B785B
:100CE0006C1C002BF7D1B4EB080A78D0424653466F
:100CF00059460398FFF790FF013070D00B9B6A783C
:100D000053440B93002A6AD000234FF0FF32013482
:100D10000693CDE908338DF85B301C93079206E00B
:100D20002C46069B801B07FA00F0184306902546C8
:100D3000052215F8011B304600F0E6FFAA46002800
:100D4000EED1069BD90644BF20228DF85B201A07FE
:100D500048BF2B22217848BF8DF85B202A2967D114
:100D6000059A1168043200290592C0F29E8009910B
:100D70006178A51C2E2974D0684C0322204600F00F
:100D8000C3FF002800F087804022069B001B02FA68
:100D900000F00343069305F101082B78062219465B
:100DA0005F488DF8303000F0AFFF002800F08380FE
:100DB0005C4B002B72D005AB00935A465A4B06A9E8
:100DC0000398AFF300808146B9F1FF3F07D00B9B3A
:100DD0004B440B9398F80030002B7FF477AFBBF8AF
:100DE0000C305B0618D40B981FB0BDE8F08F00F0F4
:100DF00027FD464B9B457FF445AF039BD3F804B0DA
:100E0000BBF80C3018073FF54CAF5946039800F07B
:100E1000D7FA00283FF44AAF4FF0FF30E4E7039BD6
:100E2000D3F808B038E7B4EB080A3FF46DAF5DE7DC
:100E3000A1F13002092A88BFA2469BD8099B01E094
:100E40002C460135297803EB830302EB4303A1F120
:100E50003002092AAA46F3D92E2904F10205099382
:100E60008AD19AF801102A292FD1059B0AF1020094
:100E70001A680433002A079205939AF802100AF1BF
:100E8000030538DB254C82460322204600F03CFF58
:100E900000287FF479AFA84655467EE7059B0733C7
:100EA00023F007030833059391E7494243F0020317
:100EB000099106935CE705AB00935A461A4B06A9C5
:100EC000039800F0D3F881467EE70023A1F13002B9
:100ED000092A079301D915E05546697803EB830386
:100EE00002EB4303A1F13002092A05F1010AF3D90B
:100EF0000235079340E74FF0FF33824607933BE705
:100F0000444601E7AA46013536E700BF24F9000848
:100F100004F90008E4F80008E40A0108EC0A0108F2
:100F2000F00A010800000000190C000810B4044C7D
:100F300013460A460146206810BCFFF793BE00BF67
:100F4000000C00202DE9F0470C460969A568914680
:100F50008D42B8BF0D46156094F8431006461F46F3
:100F6000DDF8208011B16A1CC9F8002023689906B9
:100F70005CD5D9F800200232C9F80020236813F0AC
:100F8000060F19461DD1E1688A1A002AD8BF1946F2
:100F900017DD002504F1190A05E0E368D9F80020FF
:100FA0009B1AAB420CDD0123524639463046C047FE
:100FB000013005F10105F0D14FF0FF30BDE8F087B9
:100FC000216894F84330003318BF01238A060AD5FC
:100FD0003021E21882F8431094F845105A1C22443C
:100FE00082F84310023304F1430239463046C047C9
:100FF0000130E1D02368A26803F00603042B2169C5
:101000001DD08A4226DD4FF00009521A9144002576
:101010001A3401E04D451DDA012322463946304697
:10102000C047013005F10105F4D1C5E713F0060F03
:1010300013D094F84330003318BF0123D3E7D9F815
:101040000000E3688A42A3EB000323EAE379DCDCD7
:10105000002BDCDC0020BDE8F087E168D9F8002037
:101060008A1A002AD8BF194693DCAAE72DE9F04373
:101070000C46097E85B06E2906461746984604F14F
:10108000430C0C986DD039D9732900F0F48044D901
:10109000752900F00281782940F00F8178232268B9
:1010A000DFF854E284F845300168150651F8043B36
:1010B000016040F1A180D10744BF42F020022260CC
:1010C000002B00F093801022002184F84310606808
:1010D0000028A060C0F2C680216821F004012160D0
:1010E000002B40F0A280002840F0BE806546082A10
:1010F00000F0AB80ACEB0503236141E0632900F015
:10110000E3801AD8002938D0582940F0D68084F8D6
:1011100045102268DFF8E4E1C6E76F2900F0BD80E2
:10112000702940F0CA8078232268DFF8CCE142F0D1
:101130002002226084F84530B6E7642902D069298C
:1011400040F0BB8022680368110603F1040557D5FF
:10115000196805600B46002959DB0A22DFF89CE17B
:10116000B5E7036822681D1D6169056015061B68E7
:1011700002D4500600F1BB8019600023654623614C
:10118000CDF800803B4603AA21463046FFF7DAFE41
:10119000013020D02A46236939463046C047013005
:1011A00019D0226803989207E36819D51A1A002A01
:1011B00016DD002504F1190904E0E36803981A1A02
:1011C000AA420DDD01234A4639463046C047013068
:1011D00005F10105F1D14FF0FF3005B0BDE8F08316
:1011E0009842B8BF184605B0BDE8F08321681022C8
:1011F00021F02001216067E7500648BF9BB25AE703
:101200005106A5D5B3F9003005601946A3E72D2096
:1012100061685B42002984F84300A16002DB22F090
:10122000040222600A22DFF8D4E0654600E00B46A3
:10123000B3FBF2F102FB11301EF80000934205F8F7
:10124000010DF4D2082A7FF455AF2368DB077FF540
:1012500051AF626823699A423FF74CAF3023013D9A
:101260002B7047E7002BE0D19EF8003004F14205D7
:1012700084F842303BE703686268191D01601D680D
:101280000021284600F040FD002832D0401B60605D
:101290002061002384F8433072E72268036812F06B
:1012A000800F03F104051AD01B6805606F290CBF7D
:1012B00008220A22DFF844E006E7012384F84210FE
:1012C000236104F14205E4E70122036804F14205C9
:1012D000191D1B68016084F842302261D9E712F0C1
:1012E000400F0DBF1B6805601B880560DEE7198095
:1012F00043E76068CCE700BF0C0B0108F80A01085F
:10130000F8B50D461446064608B1836943B3254B2C
:101310009C422AD0244B9C4229D0244B9C4208BF9B
:10132000F468A269A389A2601A0722D5236903B3CE
:1013300022686169D31AEDB299422F4629DD013343
:10134000A168501C0139A1602060157062699A4241
:1013500016D0A389DB0701D50A2D11D03846F8BD78
:1013600000F06EFA0F4B9C42D4D17468D9E7B46890
:10137000D7E72146304600F023F838B92369D7E78C
:101380002146304600F032F90028E7D04FF0FF3711
:10139000E4E72146304600F029F90028F6D1012380
:1013A0002268CDE724F9000804F90008E4F80008F1
:1013B000024B0A4601461868FFF7A2BF000C002046
:1013C0003B4B70B51D6806460C460DB1AB69DBB1F1
:1013D000384B9C421ED0384B9C424AD0374B9C42E3
:1013E00008BFEC68B4F90C2093B2190718D520692E
:1013F00008B313F001022CD000226369A2605B42A3
:10140000A36160B3002070BD284600F019FA294B93
:101410009C42E0D16C68B4F90C2093B21907E6D471
:10142000DD063CD5580726D4206942F00803A38185
:101430009BB20028DDD103F42072B2F5007FD8D032
:101440003046214600F016FCA389206913F0010202
:10145000D2D1990758BF6269A2600028D2D1B4F9ED
:101460000C301A06CFD543F04003A3814FF0FF3074
:1014700070BDAC68B6E7616B51B104F144039942A9
:1014800004D03046FFF742F9B4F90C20002363631F
:101490000023206922F02402C4E90003C5E70923E0
:1014A00042F0400233604FF0FF30A28170BD00BFB8
:1014B000000C002024F9000804F90008E4F80008F2
:1014C0002DE9F0418F890C463A07804641D44B689C
:1014D000002B59DDE66A002E53D0002317F480520A
:1014E000D8F80050216AC8F8003051D10123404695
:1014F000B047431C5FD0A789E66A216A7F0705D5FC
:101500006268636B801A0BB1236CC01A0246002319
:101510004046B047461C45D1D8F80030B4F90C20FD
:10152000002B55D01D2B01D0162B5AD10022236938
:10153000C4E90032616BC8F8005011B304F14403F0
:10154000994202D04046FFF7E1F800206063BDE811
:10155000F0810E69AEB10D680E60B90714BF0023AB
:101560006369AD1BA3600AE02B463246A76A216A75
:101570004046B8470028A5EB000506440ADD002DCB
:10158000F2DC0020BDE8F0810B6C002BA2DCF8E758
:10159000606DB3E7A3894FF0FF3043F04003A381B0
:1015A000BDE8F081002322696360A3892260DA0428
:1015B000C0D56065BEE7D8F80030002B9BD01D2B4E
:1015C0000CD0162B0AD0A38943F04003A381D9E79E
:1015D0002169C4E90013D304ACD5EAE7C8F8005088
:1015E000CFE742F04002A281CCE700BF0B6923B3F2
:1015F00010B5044682B008B18369BBB1104B994263
:1016000012D0104B994216D00F4B994208BFE16897
:10161000B1F90C302BB1204602B0BDE81040FFF705
:101620004FBF002002B010BD6168F1E7019100F0EA
:1016300007F90199E2E7A168EAE70020704700BFD7
:1016400024F9000804F90008E4F8000820B1054B6B
:1016500001461868FFF7CABF034B0449186800F039
:10166000B3BA00BF000C0020E0F80008ED15000838
:1016700000207047014900F0A7BA00BFED1500082F
:101680000020704770B568254A1E05FB02F50E461E
:1016900005F17401FFF78EF8044640B100210C30CB
:1016A000666005F168022160A060FEF7DFFF20465A
:1016B00070BD00BF1E4B70B51D680646AB6943B3D5
:1016C0004835D5E90134013B05D51EE0013B5A1CE4
:1016D00004F1680419D0B4F90C20002AF6D10025D1
:1016E000144B6566C4E90055A560C4E90455A561BD
:1016F0002946E360082204F15C00FEF7B7FFC4E965
:101700000D55C4E91255204670BD2C682CB12546F4
:10171000D7E7284600F010F8D2E704213046FFF75B
:10172000B1FF044628600028F1D10C233360EAE7BA
:10173000E0F800080100FFFF2DE9F84F0023334ACD
:10174000C0E9123312680365904208BF0123304993
:1017500008BF836181620546FFF7ACFF68602846D9
:10176000FFF7A8FFA86028460024FFF7A3FF042383
:101770006E68E8602146F3607466C6E90044B460B0
:10178000C6E90444B46106F15C000822FEF76EFF6E
:10179000DFF888B0AF68DFF888A0DFF88890DFF85E
:1017A00088801C4BC6E9086BC6E90AA9C6F83080D8
:1017B0002146FB6008227C66C7E90044BC60C7E99B
:1017C0000444BC6107F15C00FEF750FFEE68124B69
:1017D000C7E9087BC7E90AA9C7F830802146F3604A
:1017E0007466C6E90044B460C6E90444B46106F115
:1017F0005C000822FEF73AFF0123C6E9086BC6E940
:101800000AA9C6F83080AB61BDE8F88FE0F800089F
:10181000751600080900010012000200AD1E000844
:10182000D51E0008151F0008351F0008024B03498C
:10183000186800F0C9B900BFE0F80008ED1500080D
:10184000836903B978E77047704700BF704700BFEE
:10185000704700BF704700BF024B0349186800F093
:101860008FB900BF000C002071160008024B03491D
:10187000186800F085B900BF000C00208116000830
:101880009368002B00F0FC802DE9F04FB1F90C308B
:101890000C469BB2190783B0824690462BD522692D
:1018A0004AB313F00202D8F8006033D000273D4657
:1018B000D4F828B0216ADFF8C492C5B14D452B4653
:1018C0003A4628BF4B465046D847002840F3CE80C2
:1018D000D8F8083007441B1A2D1AC8F80830002B16
:1018E00000F0B380D4F828B0216A002DE6D1D6E903
:1018F00000750836E1E721465046FFF761FD0028F4
:1019000040F03781B4F90C30D8F800609BB213F086
:101910000202CBD113F0010940F0B4804D46A76814
:101920002068002D55D09A0540F1C080AF42BB46DB
:1019300000F2EE8013F4906F2FD0D4E9041707EB78
:101940004707A0EB010B07EBD777681C7F105844C3
:10195000B8423A4684BF07463A465B0540F1F080FC
:1019600011465046FEF726FF002800F0FC805A463C
:1019700021690190FEF704FEA289019B22F4906286
:1019800042F08002A281A7EB0B0203EB0B00676120
:10199000AB462F4623612060A2605A46494600F0BC
:1019A000F9F92368A2685B44AB460025D71BA76002
:1019B0002360D8F80870D944A7EB0B07C8F8087063
:1019C000002F42D0B4F90C30A7689BB22068002DDC
:1019D000A9D1D6E900950836A3E70BF1080353F81F
:1019E000047C9B4653F8086C0833002FF7D03A4626
:1019F0000A21304600F088F9002854D00130A0EBCD
:101A000006094B4620682169BB4228BF3B468842F5
:101A1000626903D9A5681544AB421ADC9A4200F307
:101A200081801346A56A3246216A5046A847051EA2
:101A30001CDDB9EB05096ED00120D8F808302E4422
:101A40005B1B7F1BC8F8083013BB002003B0BDE848
:101A5000F08F31462A4600F09DF9236821462B4439
:101A600023605046FFF7C2FD0028E2D0B4F90C30E5
:101A70004FF0FF3043F04003A38103B0BDE8F08F87
:101A80000020704733469146104617464E469B4607
:101A9000002FA2D00028B4D13A460A21304600F0E7
:101AA00033F90028AAD17B1C9946ABE7236983420E
:101AB00017D36269AA4214D82F4BA76A9D4294BFDC
:101AC0002B466FF0004393FBF2F3216A02FB03F312
:101AD00050464A46B847B0F1000BC7DDA5EB0B05F1
:101AE00067E7AF4228BF2F4649463A4600F052F911
:101AF000A3682268DB1B3A44BB46A3602260002B2C
:101B0000ECD121465046FFF771FD0028E6D0ADE745
:101B10002F46AB4641E721465046FFF767FD0028B8
:101B20008BD0A3E71A4631461D46019300F032F9E7
:101B3000A1682268019BC91A1344A160236078E759
:101B4000504600F08DF9034600287FF41CAF216950
:101B50005046FEF7DBFD0C22B4F90C30CAF8002029
:101B600023F0800384E70C22B4F90C30CAF800207B
:101B70007EE74FF0FF3069E7FEFFFF7F00FCFF7F4D
:101B80002DE9F04110F148071AD088460026D7E920
:101B90000154013D0ED4A389013D012B06D9B4F9AE
:101BA0000E30013302D02046C04706436B1C04F1BF
:101BB0006804F0D13F68002FE9D13046BDE8F081DC
:101BC0003E463046BDE8F0812DE9F84310F1480665
:101BD0001ED0884607464FF00009D6E90154013D62
:101BE00010D4A389013D012B08D9B4F90E3001337B
:101BF00004D021463846C04749EA00096B1C04F16D
:101C00006804EED13668002EE7D14846BDE8F88377
:101C1000B1464846BDE8F88370B50C46B1F90E10E0
:101C200096B0002916461D4613DB6A460BF0C9FE26
:101C300000280EDB019A4FF4806302F47042A2F593
:101C40000052B2FA82F2002052092A60336016B0C4
:101C500070BD0022A3892A601B0604D54023002002
:101C6000336016B070BD4FF480630020336016B04F
:101C700070BD00BF8A890B46920706D5012103F18A
:101C8000470259611A601A61704770B582B001ABA2
:101C90006A460C460646FFF7BFFF009905463046E8
:101CA000FEF788FDB4F90C3070B1164A0099B262A3
:101CB000019A43F08003A3812060C4E904018AB93A
:101CC0002B43A38102B070BD9A05FBD4012123F000
:101CD000030304F1470243F00203A3816161226020
:101CE0002261EFE73046B4F90E100BF076FE10B922
:101CF000B4F90C30E4E7A38923F0030343F00103B4
:101D00001BB2DDE775160008830770B4CDB23DD075
:101D1000541E0AB30378AB421FD0431C05E014F1F4
:101D2000FF3419D30278AA4217D013F0030F1846D4
:101D300003F10103F3D1032C11D84CB30378AB4268
:101D40000BD00444431C02E00278AA4205D09C4216
:101D5000184603F10103F7D1002070BC704702461A
:101D60000E02B6B22E4346EA06461368104673408A
:101D7000A3F1013121EA030313F0803F02F10402D1
:101D8000DCD1043C032C1046EFD8D6E71446D2E74A
:101D90002046E2E78842F0B40DD98B1883420AD975
:101DA000841832B1224613F8014D994202F8014DD0
:101DB000F9D1F0BC70470F2A0ED80346541E002AF2
:101DC000F7D001340C44013B11F8012BA14203F878
:101DD000012FF9D1F0BC704740EA01039B073AD1CB
:101DE000A2F110073F0901F1200606EB071601F1E9
:101DF000100300F1100453F8105C103344F8105C29
:101E000053F81C5C103444F81C5C53F8185C44F81C
:101E1000185C53F8145CB34244F8145CEBD17B1C9F
:101E20001B0112F00C0F194402F00F05034415D0EA
:101E30000E46043DAD0803EB850C1C1F56F8047BD1
:101E400044F8047F6445F9D10135AD002B442944A1
:101E500002F00302B2E7541E0346B2E72A46ADE79A
:101E600009B3F8B51446CAB106460D4600F066F847
:101E7000A04202D32F463846F8BD21463046FEF731
:101E800099FC07460028F6D022462946FEF778FB43
:101E900030462946FEF73AFC3846F8BD2746FEF79D
:101EA00035FC3846F8BD1146FEF784BC10B50C462B
:101EB000B1F90E100BF06DFD002803DB636D0344D8
:101EC000636510BDA38923F48053A38110BD00BFB7
:101ED000002070472DE9F041B1F90C409846E30528
:101EE0000D461746B1F90E10064609D424F4805465
:101EF000AC8143463A463046BDE8F0410BF050BD58
:101F0000022300220BF04AFDB5F90C40B5F90E1082
:101F1000ECE700BF10B50C46B1F90E100BF03EFD1A
:101F2000A389421C0EBF23F4805343F480536065A1
:101F3000A38110BDB1F90E100BF034BD51F8043C73
:101F4000181F002BBCBF0B58C01870470E4A002347
:101F5000114610B5147C84420FD11C225343CA1879
:101F6000906848B1CB58FF2818BF43434FF0010099
:101F700018BF5B000133536010BD0133092B02F120
:101F80001C02E7D10020F7E7A00E0020F0B50A4DB3
:101F900000242E462F7C874207D11C2000FB0464BE
:101FA000012061762276A376F0BD0134092C05F17B
:101FB0001C05EFD10020F7E7A00E0020094A30B53C
:101FC00000231446157C854205D11C22012002FB0A
:101FD0000343996030BD0133092B02F11C02F1D19A
:101FE0000020F7E7A00E0020094A30B50023144670
:101FF000157C854205D11C22012002FB0343596058
:1020000030BD0133092B02F11C02F1D10020F7E7AA
:10201000A00E002070B50B4C00232546267C86427E
:1020200009D11C204343E818E95000238260C360B3
:102030004374012070BD0133092B04F11C04EDD160
:102040000020F7E7A00E002070B500252E462B4C8F
:102050006368002B4FD0E06808BB637CB3FA83F35E
:102060005B09637409F014FDD4E900239342E06036
:102070002BD266606674E66063690BB1207C98477A
:10208000207CFF2824D100221146104607F056FB81
:102090000135092D04F11C04DAD1012070BD09F0CD
:1020A0003DFD23689842D8D26368002BE4D02046D7
:1020B00002F04AFD0028EBD0637C207CB3B1FF28FE
:1020C0000CD1A27E217E607EE0E79B1A6360EBE785
:1020D0005028DDD800231A46194604E05028D7D8E6
:1020E000A37E227E617E06F0A1FCD1E7FF28CAD044
:1020F0005028CDD8EFE76374E360C9E7A00E002055
:1021000007B503788DF8003043788DF80130837877
:102110008DF8023003798DF80330C37868468DF866
:1021200004300DF045FA03B05DF804FB08B5074B29
:102130005A78032A07D8586809F0F0FCC72894BFDA
:102140000020012008BD0020FCE700BFA40C0020F7
:102150007047000010B5144C202220464FF48041F7
:102160000BF0BFFD204620224FF400410BF0B9FDDB
:10217000002280214FF080400BF0B3FDFFF7E8FF15
:1021800000BF00BF00BF00BF00BF00BF00BF00BF57
:1021900000BF00BF00BF00BF00BF00BF00BF00BF47
:1021A00000BF00BF10BD00BF0008004008B501F02F
:1021B00045FB08BD08B5054C20780CF0F5FC2078EF
:1021C000FFF7F4FF05200AF0DAFBF5E7A83B002053
:1021D00010B5084C236803F07142074B134323608A
:1021E00009F056FC054B18602068BDE8104004F06B
:1021F00076BB00BFA83B00200001010E3411002077
:1022000010B5064C0122204602210BF06AFD022384
:10221000A361BDE8104001F0BDBB00BF0004004059
:1022200001207047124B10B51C789CB9114B1B78DC
:10223000042B0FD104F040FA04F054FA04F006FA2B
:1022400004F080FA204609F0C7FA2046BDE81040A5
:1022500009F0DEBA0DF0B0F948B10CF09BFC002893
:10226000FBD1BDE810404CF250300AF088BB10BDE5
:10227000A83B0020443F0020002370B50D460B70A2
:1022800004462A4E00283AD009F002FC284B306060
:102290001A6912F4804F1A4602D01B691E0435D405
:1022A0001369590402D413691B0431D4204A1369F9
:1022B000C3F380332BB1136913F4004F14BF002311
:1022C00002231C4A1278511E042923D9062A23D03E
:1022D000002A0CBF03200020174A14B91178994234
:1022E0001CD1181A18BF0120022B137018D0032B11
:1022F00018D0012B18D102232B70044604E030685B
:1023000009F00CFC3228BFD8204670BD0323D8E763
:102310000123D6E70120DFE70220DDE72046E3E7DF
:102320000323E9E70123E7E70023E5E74411002061
:1023300000080040A83B00203A110020084B9A7882
:10234000012A07D0022A09D0064B1868B0FA80F09B
:102350004009704758780128F6D170470120FCE702
:10236000A40C0020A812002008B5054B9B78013B67
:10237000012B02D9FFF7E2FF08BD0120FCE700BFF7
:10238000A40C002008B509F083FB014B986008BD40
:10239000A40C002010B5094C23782070637009F05C
:1023A00077FB6060FFF7EEFF00F04AFEBDE81040EB
:1023B0000022034B53201A700DF076B8A40C0020B5
:1023C000401100202DE9F0410C4615460746002833
:1023D00041D0B1FA81F35B099BB15A4E5A4A337826
:1023E000002C3CD00221012B91610AD030460BF029
:1023F00057FC30460BF020F85448554B836009F0E9
:10240000C1F9A74201D0FFF70DFF524E3378013BCF
:10241000012B04D80320FFF7BDFF0023B3704E4EFD
:102420003378A34200D11DB100224C4B9A619A83AC
:10243000347024B1631E042B747098BFB47030687C
:1024400004F04DFA3378062B76D8DFE803F07319E1
:1024500036404A545E000B1C18BF0123BCE74FF402
:102460000031042B9161CCD03D4BDFF8E0801C7033
:102470003C4B3046C8F8083009F0BCFD4046BEE78A
:10248000312075B10DF010F852200DF00DF801203B
:102490000DF016F84EF2874143F22D400DF06AF828
:1024A00051200DF001F8FFF76DFF2A46214638460E
:1024B00001F086FE0120BDE8F0813220002DF0D031
:1024C0000CF0F2FF52200CF0EFFF0220E0E7332087
:1024D000002DE6D00CF0E8FF52200CF0E5FF0320C1
:1024E000D6E73420002DDCD00CF0DEFF52200CF0BB
:1024F000DBFF0420CCE73520002DD2D00CF0D4FF38
:1025000052200CF0D1FF0520C2E73020002DC8D0AA
:102510000CF0CAFF14480CF0F9FF14480DF010F845
:102520004EF2874143F22D400DF024F852200CF07A
:10253000BBFFB5E71120B4E711200CF0B5FFFFF7A2
:1025400047FEB0E7443F002000040040081100208F
:1025500001210008A40C0020A83B0020640C0020EE
:10256000F82B0020B9C00008D3F90008DDF90008F5
:10257000002313B50DF107018DF80730FFF77CFE3E
:10258000044690B19DF80730013B032B0DD8DFE8DE
:1025900003F002060F1200221146094B02E000224E
:1025A000074B99781878FFF70DFF204602B010BD51
:1025B00000220621F1E7024B00225978F2E700BF22
:1025C000A83B002013B5124C20460CF075FA0123ED
:1025D000A37704F081F90F4C206008B9FFF7F8FDEC
:1025E000E37843F00103E37009F052FA0A4BFF224B
:1025F000186000234FF4A87100930848084B0AF0B4
:102600008BF9FFF7A7FD0120FFF7B2FF02B010BD65
:10261000640C0020A83B0020341100204811002049
:10262000B521000848B1074A1378013B012B07D8B0
:1026300093782BB90320FFF7ADBE0122024B1A702D
:10264000704700BFA40C002040110020014B1878F7
:10265000704700BFA40C0020014B9870704700BF6A
:10266000A40C0020014B9878704700BFA40C0020F8
:10267000014BD870704700BFA40C00200122014B11
:102680001A70704740110020F8B51C4C1C4DE278C0
:10269000A968C2F3420219B9FFF774FE0020F8BD21
:1026A000184B53F8227023782BB9174B1B78042B47
:1026B00001D1FFF767FE154E327892B100233370D7
:1026C0004FF080431B69E278DB0963F30002237853
:1026D000E27073B101F04CFF0028DFD101F0DAF8AD
:1026E000DDE7002FDAD0A86809F018FAB842E5D281
:1026F000D4E7054B1B78042BECD1CDE7A83B002099
:10270000A40C002080F90008443F00204011002064
:102710000C4B10B55A781946012A03D0022A08D06A
:10272000002005E09C78012C03D101F025F920461A
:1027300010BD486809F0F2F9C728F1D9FFF7FEFD8E
:10274000F6E700BFA40C002008B5074BDB780BB1FF
:10275000022B04D10220FFF71DFE002008BD03203C
:10276000FFF718FE0120F9E7A40C002038B50A4D48
:102770000024EB78033B012B08D80320FFF70AFE67
:102780002046AC7001F096F8012038BD0220FFF71A
:1027900001FE2046F9E700BFA40C002010B50A4C4A
:1027A000E378032B0AD3042B08D80320FFF7F2FDAC
:1027B0000020A07001F09EF8012010BD0220FFF75C
:1027C000E9FD0020F9E700BFA40C002070B5974C8C
:1027D000974D2068B8B109F0A1F9B0F5FA6F12D39E
:1027E0000026552026600CF05FFE57200CF05CFEA2
:1027F00070200CF059FE287832460146B0FA80F07D
:102800004009FFF7DFFD2B7823B18A4B93F8202096
:10281000894B1A702368DBB9884E306809F07EF95D
:1028200040F6B733984213D92B788BB10CF0B2F93C
:1028300070B9804CA37F5BB109F02AF93060532056
:102840000CF032FE94F8213013B970200CF02CFEFD
:102850004FF080431B69EA78DB09794C63F300028F
:102860000020EA70FFF784FE2378032B1ED8DFE8F0
:1028700003F002284FA4E36833B1984720B1012048
:10288000FFF788FD0023A370236933B1984720B177
:102890000120FFF77FFD0223A370636933B19847DE
:1028A00020B10120FFF776FD0123A3700CF0F6FCA8
:1028B000644B1B78002B00F0B780BDE8704002F03D
:1028C0003DBFA369002BF1D098470028EED002F05D
:1028D000ADF95D4B187007F0D1FC2A785B4B1A708C
:1028E0000022544B9A772A68594B134063B9594CCC
:1028F0002378012B08D00222574B20469A610BF017
:10290000CFF920460AF098FD0220FFF743FDCDE7FE
:10291000E369002BCAD098470028C7D000224F4B4C
:102920001A704FF080434FF400129A612A68484BA6
:102930001340B3F1807F0FD0A37843B3022B0BD8A1
:102940006378022B08D0FFF76DFC11200CF0ACFD72
:102950000CF020F90028FBD100F086FF0023E37083
:102960003A4B2A781B789A4208D12A68384B134090
:10297000B3F1807F02D0A07800F070FCA378012B27
:1029800018D0A3B1022B91D1FFF7F0FE8EE7294BAF
:102990005B7E002BE0D111200CF086FD0CF0FAF8E4
:1029A0000028FBD147F2305009F0E9FFD4E7FFF7E8
:1029B000CBFE7BE7FFF7F2FE78E7236A002B3FF4BC
:1029C00075AF984700283FF471AF0122194B9A77F1
:1029D0001D4B1B782BB14FF0804320229A6107F0EA
:1029E0003BFC0120FFF7C4FD024628B92B789BB1C0
:1029F00069780846FFF7E6FC0024184B1C7000F0CD
:102A000027FFFFF7BFFC00F01BFB2046FFF7C2FCCF
:102A100053200CF049FD49E70E4A1278012AEBD108
:102A20001A4619466878E5E770BD00BF34110020EA
:102A3000A83B0020640C0020F82B00203C11002053
:102A4000A40C002039110020301100203811002082
:102A5000FF000001443F002000040040401100201E
:102A60000120704708B5FFF7FBFF08BD37B50446E6
:102A70000D46FFF787FC29462046FFF7F3FF60B1BC
:102A8000074B1A784AB1074B20461B78D9090091A9
:102A9000C3F30013A9780CF025FC03B030BD00BFD0
:102AA000A83B0020B83B002000B50B4B8FB093F83B
:102AB00021300A4A322101A804F0ADFE01A808F035
:102AC000AFF90CF063F808F0ABF9054808F0A8F985
:102AD0000FB05DF804FB00BF640C0020A0F90008F3
:102AE000B1F900082B4B13B51A7804464AB12A4BAA
:102AF00001211B78DB09009300230CF0F3FB02B0EB
:102B000010BD0028FBD0031FDBB2A02B12D8234B33
:102B10000146186808F0B6FE20B1204603F08EFD8D
:102B200003F010FE204603F081FD02B0BDE8104026
:102B300003F008BE00F12003DBB2072B07D800F03A
:102B400007040120A040C0B203F0A6FDEDE700F1AC
:102B50005B03DBB2022B06D8114AD05C02B0BDE8A1
:102B6000104008F039BE00F15803DBB21A2B07D829
:102B70000C4A32F8130002B0BDE8104008F048BE1D
:102B80003334E4B2122CBAD8012102B0BDE81040AF
:102B900002F0BABEA83B0020B83B0020B40F0020D2
:102BA00044F9000848F90008244B13B51A78044684
:102BB0004AB1234B1B78DB090093002319460CF024
:102BC00091FB02B010BD0028FBD0031FDBB2A02B8D
:102BD00006D803F033FD02B0BDE8104003F0B2BDEB
:102BE00000F12003DBB2072B07D800F00704012017
:102BF000A040C0B203F058FDEDE700F15B03DBB28B
:102C0000022B05D8104602B0BDE8104008F0E4BD24
:102C100000F15803DBB21A2B05D8104602B0BDE80C
:102C2000104008F0F5BD3334E4B2122CC9D8114677
:102C300002B0BDE8104002F067BE00BFA83B002014
:102C4000B83B00202DE9F3410546C0B1114E327862
:102C5000C2B10127DFF84080284602F0E6FD0446B5
:102C600098F80030E030DB0900933278002301212E
:102C700080B207FA04F40CF035FBA543ECD102B0A6
:102C8000BDE8F08103F008FD02B0BDE8F04103F0BB
:102C900059BD00BFA83B0020B83B00202DE9F341FF
:102CA0000546C0B1114E3278C2B10127DFF840802D
:102CB000284602F0BAFD98F800300446DB0900937C
:102CC0000023E0303278194680B207FA04F40CF0A1
:102CD00009FBA543ECD102B0BDE8F08103F0E4FCB0
:102CE00002B0BDE8F04103F02DBD00BFA83B0020BD
:102CF000B83B00202DE9F3410546C0B1114E3278B2
:102D0000C2B10127DFF84080284602F08EFD04465C
:102D100098F80030E030DB0900933278002301217D
:102D200080B207FA04F40CF0DDFAA543ECD102B04E
:102D3000BDE8F08103F0C6FC02B0BDE8F04103F04D
:102D400001BD00BFA83B0020B83B00202DE9F341A6
:102D50000546C0B1114E3278C2B10127DFF840807C
:102D6000284602F062FD98F800300446DB09009323
:102D70000023E0303278194680B207FA04F40CF0F0
:102D8000B1FAA543ECD102B0BDE8F08103F0A2FC9A
:102D900002B0BDE8F04103F0D5BC00BFA83B002065
:102DA000B83B00202DE9F04104460E4601F0E2FA5E
:102DB000E8B92378013B142B4ED8DFE803F00B1B56
:102DC000486268727575757ACA80848A939C9FA2DE
:102DD000ABB4BD00002363700C23A370614B31467C
:102DE0001B782046002B40F0B98009F06BF90120D8
:102DF000BDE8F0816378013B032B2DD8DFE803F0B9
:102E0000020C0F2108F044FE030EA370030CE370C4
:102E1000030A23716071E1E707F0D3FCF4E725466C
:102E2000A77804F11C08052FD8D8F8B204F0D2F81E
:102E3000030AEB7028710235454507F10107F2D10D
:102E4000CCE70023A370E37023716371C6E7637856
:102E5000022B04D0052B10D0FF232370BEE7E378AC
:102E6000A07840EA0320237940EA0340637940EAEE
:102E7000036000BA07F0A8FCB0E7A07807F0CEFC2A
:102E8000ACE7E278A178607808F0C4F8C0E722796E
:102E90006379A17843EA02236078E27808F0D0F8F9
:102EA0009CE708F01DF999E73146204607F031FD0F
:102EB00094E7002007F068FC07F091FC8EE708F02B
:102EC00099F960708AE708F097F9030A6370A070B7
:102ED00084E76078A378221DE17843EA002008F0B7
:102EE0008EF97BE76078A378221DE17843EA002021
:102EF00008F09FF972E708F0AFF96FE708F07EF885
:102F0000DFE76078A378221DE17843EA002008F02B
:102F100031F963E76078A378221DE17843EA002065
:102F200008F03FF95AE7E278A178003218BF012291
:102F3000607808F09AF86BE7E278217963790032DB
:102F400043EA012318BF0122A178607808F0ACF8A9
:102F500044E70123044A637013703FE70CF084FBDD
:102F600045E700BFA83B00203911002010B5437889
:102F7000044613B1FF23237011E08378013B032B38
:102F8000F8D8DFE803F0021A28410378072B07D0AE
:102F9000082BEFD1294BDB78C3F34203C37010BD7C
:102FA000C1780729FBD8BDE81040244BDA7861F3DB
:102FB0004302DA70186803F092BC0378072B05D03F
:102FC000082BD7D101F0E5FAE070E8E7C078BDE85A
:102FD000104001F0AFBB0378072B0AD0082BC9D1F2
:102FE00042790179C07801F0D6FAA071000AE07147
:102FF000D5E7C2798379017943EA0223BDE810401D
:103000004279C07801F0DDBA0378072B0BD0082B8A
:10301000B0D12379C078A21D617943EA0020BDE8D0
:10302000104001F0E3BA2379C078A21D617943EA28
:103030000020BDE8104001F0F4BA00BFA83B00201A
:1030400008B508F025FD014B186008BD9812002056
:10305000164B10B51C788CB9154B1B78052B08D076
:10306000022B06D008F014FD124B1860124B1C7096
:1030700010BD4FF080431B691B0603D4BDE8104010
:10308000FFF7DEBF0B4B18680028F7D008F046FDAD
:1030900041F657339842EBD9FFF7D2FFBDE8104015
:1030A0000122054B1A70FFF7E9BA00BFA83B0020C8
:1030B000443F0020981200209C1200202DE9F0418E
:1030C0001A4C804625781DB101242046BDE8F081C8
:1030D000FFF7BCFA0138012805D80320FFF75AF999
:1030E0002846FFF7B9FA2778002FEDD1104D2B783D
:1030F000052BE9D1B5F84C309B0702D50D4E34783D
:103100002CB9B8F1FF0F94BF00240124DDE7FFF7CD
:103110009DFA0328D8D83770FFF792FF28460AF0A7
:1031200037FA284601F066F9CFE700BFA83B002038
:10313000443F00209C120020704700001A4B70B5DD
:103140009C6C0F2644F4C0649C649B6C012301F0CA
:1031500003048B4021F0030101F1804101F5A051EE
:103160008D68A400C0F38320A04006FA04F425EA89
:10317000040528438860D8430C4912F0010F8C687D
:1031800014BF1C4304408C6012F0020FCA6814BFC5
:103190001A430240CA60054A536111680B43136029
:1031A00053680340536070BD000C0140001800409C
:1031B0000F281FD8DFE800F0080C0F121518181898
:1031C00018181B1B1B1B1B1B062108460AF01BBCE7
:1031D00006210720FAE706210820F7E70621092043
:1031E000F4E706210A20F1E706211020EEE7062188
:1031F0002120EBE7704701207047000008B5FFF77A
:10320000FAFF28B3012207214FF08040FFF796FF15
:103210000720FFF7CDFFFFF725FA38B90D48032245
:103220000621FFF78BFF0620FFF7C2FF03220E21C6
:103230000948FFF783FF0E20FFF7BAFF0648032275
:103240000F21FFF77BFFBDE808400F20FFF7B0BF5D
:1032500008BD00BF00040040000800402DE9F04711
:103260003023054683F31188FFF7C8FF00264FF08F
:103270000108854FDFF83C9257F8040B95B1012DFA
:103280004DD148454BD120F00F0A00F00F0008FA4D
:1032900000F421460522504624040AF022FDCAF813
:1032A000184001E0441CEED101360F2EE4D1062473
:1032B0000127764EDFF8009256F8040B002D3AD025
:1032C000012D40F0D380484540F0D08000F00F0140
:1032D000202207FA01F120F00F000AF002FD00BFE2
:1032E00000BF00BF00BF00BF00BF00BF00BF00BFE6
:1032F00000BF00BF00BF00BF00BF00BF00BF00BFD6
:1033000000BF56F8040C022200F00F08414620F0DE
:103310000F00FFF713FF4046FFF74AFF0DE0411C87
:10332000C2D000F00F01202208FA01F120F00F00B6
:103330000AF0D7FCB8E7421CC8D1013CBCD12246F8
:103340004FF4006152480AF0CCFC00BF00BF00BF40
:1033500000BF00BF00BF00BF00BF00BF00BF00BF75
:1033600000BF00BF00BF00BF00BF00BF00BF0322FF
:103370000B214748FFF7E2FE0B20FFF719FF84F30C
:10338000118872B60120434A136823F001031360C9
:10339000414B424A5A610022A30003F1604303F506
:1033A0006143D3F80011D5B2012D94BF002101F083
:1033B000010109B1C3F880010132202AF1D10134A1
:1033C000082CE8D1364C636843F000736360354BDA
:1033D0001A6802F009021A601A6842F46C3242F06C
:1033E00004021A6040F2B3321A622F4B43F0010319
:1033F0009847236943F00403236130BF2B4B43F00C
:10340000010398472369234A23F0040323611368C7
:10341000274C43F001031360E36943F08003E36149
:10342000A36C43F40073A36408F078FE03F006FE77
:1034300040F282324FF4006115480AF052FCE36C0E
:1034400043F00803E364E36CA36C43F48053A36488
:10345000A36CE36C43F01003E364E36CFFF76CFED2
:10346000002383F3118862B6BDE8F087431C3FF464
:1034700064AF00F00F01402207FA01F120F00F00C5
:103480000AF02FFC59E700BF10FA0008A8FA00085C
:103490000008004010E000E000180040FFFF0700B7
:1034A00000ED00E00000014080FA00084CFA00083E
:1034B000000C0140030800400D0800400120704747
:1034C00001207047831E10B504460D2B1BD8DFE882
:1034D00003F0071A1A1A1A121A1A1A141A181616B8
:1034E0000420FFF7C5F82046FFF7E8FF10B120469B
:1034F000FFF7E6FF10BD0320F3E70220F1E7072006
:10350000EFE70520EDE70120EBE701238B400342C5
:1035100002D00846FFF7D6BF7047000008B50D4B34
:103520005A69D20706D51A68002022F001021A60F3
:10353000FFF7C8FF4022084BC3F88020BFF34F8F2E
:10354000BFF36F8F0122034B5A61BDE8084009F0B9
:103550000BBB00BF0018004000E100E008B50D4BB8
:10356000586910F0020006D01A68012122F0020208
:103570001A60FFF7CAFF8022074BC3F88020BFF311
:103580004F8FBFF36F8F0222024B5A61BDE8084094
:1035900009F0EABA0018004000E100E008B50E4B5F
:1035A000586910F0040006D01A68022122F00402C3
:1035B0001A60FFF7AAFF4FF48072084BC3F880200F
:1035C000BFF34F8FBFF36F8F0422034B5A61BDE8E7
:1035D000084009F0C9BA00BF0018004000E100E04F
:1035E00008B50E4B586910F0080006D01A68032180
:1035F00022F008021A60FFF788FF4FF40072084BB0
:10360000C3F88020BFF34F8FBFF36F8F0822034BA7
:103610005A61BDE8084009F0A7BA00BF0018004091
:1036200000E100E008B50E4B586910F0100006D01C
:103630001A68042122F010021A60FFF766FF4FF4A7
:103640008062084BC3F88020BFF34F8FBFF36F8FAA
:103650001022034B5A61BDE8084009F085BA00BF4B
:103660000018004000E100E038B5254B5C69A20677
:1036700004F4787507D51A68052122F020021A6033
:103680002846FFF742FF600608D51D4A0621136849
:10369000284623F040031360FFF737FF210608D5C3
:1036A000174A07211368284623F080031360FFF7A9
:1036B0002CFFE20508D5124A08211368284623F496
:1036C00080731360FFF721FFA30508D50C4A092179
:1036D0001368284623F400731360FFF716FF4FF4B6
:1036E0008032084BC3F88020BFF34F8FBFF36F8F3A
:1036F0004FF47872024B5A61BDE8384009F034BA91
:103700000018004000E100E038B52A4B5C69620512
:1037100004F47C4507D51A680A2122F480621A60F5
:103720002846FFF7F2FE230508D5224A0B2113682D
:10373000284623F400631360FFF7E7FEE00408D592
:103740001C4A0C211368284623F480531360FFF7AA
:10375000DCFEA10408D5174A0D211368284623F47E
:1037600000531360FFF7D1FE620408D5114A0E2101
:103770001368284623F480431360FFF7C6FE230432
:1037800008D50C4A0F211368284623F40043136020
:10379000FFF7BBFE0222084BC3F88420BFF34F8F14
:1037A000BFF36F8F4FF47C42024B5A61BDE8384043
:1037B00009F0DAB90018004000E100E008B50E4B4E
:1037C000586910F4802006D01A68122122F4802251
:1037D0001A60FFF79AFE0822084BC3F88420BFF353
:1037E0004F8FBFF36F8F4FF48022034B5A61BDE8B8
:1037F000084009F0B9B900BF0018004000E100E03E
:1038000010B5074C23784BB901F01AFA02F02BF8E7
:1038100007F0BEFF02F028F801232370012010BD3D
:103820009E12002010B5044C23781BB101F0B6FAAB
:1038300000232370012010BD9E120020024B1B7834
:103840000BB10BF0FBBD7047A112002001207047A7
:1038500008B5044B1B780BB9FFF7D2FF01F016FA3D
:1038600008BD00BF9E12002008B5064B1B780BB1A7
:10387000FFF7D8FF0023044A1370044A1360FFF7D0
:10388000E5FF08BD9E120020AC120020B0120020FF
:103890000120704708B5FFF7FBFF08BD014B187802
:1038A000704700BF9F120020014B1870704700BF87
:1038B0009F120020014B1870704700BF9F1200201C
:1038C000014B1878704700BFA0120020084B10B5BC
:1038D0000446187058B9FEF7B9FE022807D803202D
:1038E000FEF758FD2046BDE81040FEF7B5BE10BDFE
:1038F000A0120020FFF7EABF024B187880F0010009
:10390000FFF7E4BFA01200200020FFF7DFBFFFF7A2
:10391000F3BF0000024B187880F00100704700BF31
:10392000A0120020084B1A78084B1B784BB982F084
:103930000102A0F5A443203B1F2B8CBF10460120A1
:1039400070470022F5E700BFA01200209F12002060
:1039500000231946064A937213609375D360054A93
:1039600001330B2B917242F80C1BF9D1704700BF49
:103970009C0F0020C80C002008B503F0D1FBFFF716
:10398000E7FF0022014B1A6008BD00BFA81200200B
:103990000120704708B5FFF733FFFEF713FE01F073
:1039A00057F948B1012220214FF080400AF099F9DF
:1039B0004FF0804320229A6108BD000000230D4A89
:1039C00010B513700C4A4FF0804413700B4A13600B
:1039D00006F06CFC01280AD006F060FC4FF40013DE
:1039E000A36101F05BFDBDE8104003F01AB820238D
:1039F000F6E700BF9D120020A2120020A4120020B2
:103A000008B502F0D3FF04F0DFFF02F05EFF054BC4
:103A1000188001F06DF918B1BDE80840FFF7CEBF7E
:103A200008BD00BFB83B002037B504460D4601F085
:103A300085F9002800F0BD80002D00F0BA8047F61F
:103A400004639C4200F0858029D847F601639C42BC
:103A50005BD00AD847F603439C4200F0A780B4F538
:103A6000FC4F3CD0284603B030BD47F602639C4271
:103A70005DD047F603639C42F4D100230DF10701AA
:103A800001208DF80730FEF7F7FB9DF80730042B77
:103A900002D013F0FD0FE5D10122042130E047F6FA
:103AA00012639C427BD00BD847F605639C4263D0DF
:103AB00047F611639C42D5D10020FFF707FFD1E7FD
:103AC00047F613639C426ED047F643639C42C9D1CC
:103AD0000122394B1A700022384B1A60C2E70023CA
:103AE0000DF1070101208DF80730FEF7C5FB9DF8A9
:103AF0000730042B02D013F0FD0FB3D10122114681
:103B00002F4B1878FEF75EFCACE700230DF10701A0
:103B100001208DF80730FEF7AFFB9DF80730042B2E
:103B200002D013F0FD0F9DD101220221E8E700230E
:103B30000DF1070101208DF80730FEF79DFB9DF880
:103B40000730042B02D013F0FD0F8BD1012203218B
:103B5000D6E700230DF1070101208DF80730FEF7AD
:103B60008BFB9DF80730042B03D013F0FD0F7FF47F
:103B700079AF01220521C3E700230DF107010120E0
:103B80008DF80730FEF778FB9DF80730DA1E012A22
:103B900002D9002B7FF466AF01220621B0E7012293
:103BA000084B1A705EE7FFF7A7FE5BE7FFF728FFF9
:103BB00058E7054656E700BFA2120020A4120020D5
:103BC000A83B0020A012002070B5FEF7FFFD0025E5
:103BD00001261B4C206858B1A37A4BB907F09EFF11
:103BE0006368984204D3A67201212089FFF71CFF65
:103BF0000C3415B30026134C206858B1A37A4BB986
:103C000007F08CFF6368984204D3A57201212089D4
:103C1000FFF70AFF01360B2E04F10C04ECD10A4B1E
:103C20001A783AB100221A700AF0B4FF0028FBD1CA
:103C3000FFF7E6FE01F02CF870BD0125CAE700BFD2
:103C40009C0F0020C80C0020B412002008B5064BC1
:103C50001B780BB9FFF7D4FD4FF0804320229A6107
:103C6000BDE8084007F0E0BE9E1200202DE9F743B2
:103C70000D46BA4A897804461368E9B1032B00D887
:103C80000133B74F1360FEF77DFB3889844217D0AC
:103C9000B88A84420CD14FF0010995F802800C26B5
:103CA000B8F1000F0FD007F0F3FE06FB09F6B8518C
:103CB000AC4B0027984631E0002BE2D0013BE0E717
:103CC0004FF00009E9E706FB09F607EB060999F84A
:103CD0000A300BB9BB51EBE74146FFF7A5FE89F867
:103CE0000A8047F806800028E2D100209BE07E434E
:103CF00008EB0607BB7A13B948F806301CE04946C2
:103D00002046FFF791FE87F80A9048F8069098B988
:103D1000EBE701370B2F03F10C030DD01A89944206
:103D2000F7D195F802900C26B9F1000FDFD007F01B
:103D3000AFFE7E4348F8060029462046FFF7F2FD15
:103D40000028D2D02946204601F08EF80028CCD099
:103D500047F604639C4200F0C8802CD8B4F5FC4FB1
:103D60006ED009D847F620039C4200F01C8147F62C
:103D700003439C42B9D02EE047F602639C42AB78E5
:103D800000F098807BD9002BAFD0774C2278042AA2
:103D9000ABD000230DF1070101208DF80730FEF7AD
:103DA0006BFA9DF80730042B02D013F0FD0F9CD165
:103DB000002204215FE047F640639C4225D01CD8D6
:103DC00047F606639C4200F0D580C0F0AA8047F613
:103DD00007639C4231D02946204600F0CBFC0028E6
:103DE00083D029462046FFF769F900283FF47DAFCC
:103DF00029462046FEF73AFE15E047F642639C420C
:103E000014D009D347F64363B3E7AB78002B3FF4F4
:103E10006CAFFEF749FE68E7A878544B10B1012259
:103E20001A7062E7187003B0BDE8F083AB78002B1E
:103E30003FF45BAFFEF722FC57E7AA784C4BEFE765
:103E4000AB78002B3FF451AF474C2278012A3FF466
:103E50004CAF00230DF1070101208DF80730FEF76C
:103E60000BFA9DF80730042B03D013F0FD0F7FF4FD
:103E70003CAF002201212078FEF7A4FA35E7002BA1
:103E80003FF433AF384C2278022A3FF42EAF0023A0
:103E90000DF1070101208DF80730FEF7EDF99DF8CF
:103EA0000730042B03D013F0FD0F7FF41EAF002268
:103EB0000221E0E7002B3FF418AF2B4C2278032AB5
:103EC0003FF413AF00230DF1070101208DF80730F7
:103ED000FEF7D2F99DF80730042B03D013F0FD0F45
:103EE0007FF403AF00220321C5E7AB78002B3FF43A
:103EF000FCAE1D4C2278052A3FF4F7AE00230DF1ED
:103F0000070101208DF80730FEF7B6F99DF807305C
:103F1000042B03D013F0FD0F7FF4E7AE0022052140
:103F2000A9E7AB78002B3FF4E0AE0F4C2278062ACD
:103F30003FF4DBAE00230DF1070101208DF80730BF
:103F4000FEF79AF99DF80730DA1E012A02D9002BF4
:103F50007FF4CBAE002206218DE700BFA81200201F
:103F60009C0F0020C80C0020A83B0020A1120020BC
:103F70009D120020AB78002B3FF4B7AE114C227895
:103F8000002A3FF4B2AE00230DF1070101208DF8A5
:103F90000730FEF771F99DF80730012B3FF6A5AE0B
:103FA0000022114667E7AB78002B3FF414AF06F010
:103FB0007DF94FF0804318B14FF400129A610AE77F
:103FC0002022FBE7A83B0020014B1878704700BF78
:103FD000AC12002001207047F8B505460C46574E3C
:103FE000574F21462846FFF7F5FF50B1062C08D859
:103FF000DFE804F004084F91919E9E0000224F4B91
:104000001A60F8BD326862BBA5F12803092B0DD8F0
:10401000DFE803F0220C0C0C0C0C0C1D180500231F
:10402000FF211A463120FDF7B1FF01224FF4FA714A
:104030002846FDF7EFFF2846FDF788FF07F028FD2B
:104040003060DEE70022FF2311463020EBE700233B
:10405000FF2219462F20E6E7FF2328201A4619469B
:10406000E1E7104607F05AFD47F22F53984203D973
:104070000524344B1C70B4E77B7E0BB10324F8E7B6
:10408000314B1B78002B4FD02846BDE8F840FDF798
:104090005DBF306890BBA5F12803092BB1D801A200
:1040A00052F823F0F34000080340000803400008E2
:1040B00003400008034000080340000803400008D4
:1040C000E9400008DF400008CD4000080023FF2140
:1040D0001A463120FDF75AFF0122C821A8E7002225
:1040E000FF2311463020F5E70023FF2219462F2039
:1040F000F0E7FF2328201A461946EBE707F00EFDEC
:1041000047F22F53984201D90624B2E77B7E002B59
:10411000B6D00424ADE7FF224FF4FA612846FDF73C
:1041200079FF2846FDF712FF0022064B1A7068E758
:104130000022044B1A70FEF7A1FAA5E7B012002086
:10414000640C0020AC120020A83B0020014B197821
:10415000FFF742BFAC1200200120704770B5064641
:104160000D4631200021FDF73FFF10B90024204605
:1041700070BD00213020FDF737FF0028F6D0002168
:104180002F20FDF731FF0028F0D000212820FDF777
:104190002BFF0028EAD029463046FFF7DDFF044612
:1041A0000028E3D00022044B29461D70034B304603
:1041B0001A60FFF711FFDAE7AC120020B0120020FE
:1041C00070B50C461546FEF72BF8064680B17CB15B
:1041D000134B5B7E13BB013C052C09D8DFE804F0D0
:1041E000030C120808182DB102213120FFF7B6FF89
:1041F000304670BD0121F8E715B102213020F5E706
:104200000121FBE715B102212F20EFE70121FBE798
:1042100015B102212820E9E70121FBE71E46E7E767
:10422000640C002008B5094B1B786BB9FEF70EFA39
:1042300050B9074B1A783AB1064A527E22B95978DA
:10424000BDE80840FEF7BEB808BD00BFAC120020B4
:10425000A83B0020640C0020704700002DE9FF47B8
:104260003F4E07468846FFF7F7FFFFF7DBFF34783E
:10427000002C32D03B4D2B6813B907F009FC2860A5
:10428000286807F04BFC41F28733984205D9337810
:104290000133337007F0FCFB28603378013B032BBC
:1042A00017D8DFE803F0020C101400226420114636
:1042B00005F044FA0024204604B0BDE8F08700224F
:1042C00064211046F4E7002164220846F0E76422E6
:1042D000F6E7002434702C60EDE7234B1B788BB994
:1042E00041463846FFF754FB0028E3D041463846A4
:1042F00000F088FD04460028DCD041463846FDF732
:10430000A3FED8E722462146204605F017FADFF83B
:104310005CA0DFF85C9001AE0A2551462A46304683
:10432000FCF72EF999F81F30E2B2B3FBF5F5954290
:10433000A05D11D9312B03D900236422194605E071
:104340001D2B4FF00003F8D81A466421013404F005
:104350006DFB0A2CE0D1C3E700231A46EEE700BF4D
:10436000A2120020A41200209D120020C4F7000811
:10437000640C002070B505460E46FEF703F8FEF704
:1043800065F910B10320FEF705F82B780A2B0ED142
:104390000124084B31461C70074B28461B781BB97B
:1043A00007F090FE204670BD0BF05EF9FAE70020A2
:1043B000F9E700BFB4120020A83B0020012810B587
:1043C000044611D002280AD1FEF740F9013801282D
:1043D00005D80320FDF7DEFF0020FEF73DF920465B
:1043E000BDE8104007F0FABA014B1870F7E700BFBC
:1043F00004110020014808F0C2BA00BFA0860100E5
:104400000D4BF0B51B688BB11E22490002FB00105A
:104410000A4901220E461D5A31F8027BD4B2AF423E
:1044200005D104F0070236F812201A52F0BD01320D
:10443000092AF1D10022F8E7B8120020A4FD0008F3
:104440002DE9F04385B004460E4605F0C1FF4FF05C
:104450001E084FF000092D4D2D4F6880E0B28642B6
:1044600050D92C4900230EE01CF801EBBEF1FF0FE0
:1044700001D086451CD001320F2AF5D10133062B1D
:1044800001F10F013CD08C460022EDE7012B08D151
:10449000012A06D16B88ADF804908DF8063001989A
:1044A00019E06B88ADF800108DF80230009812E02A
:1044B000396829B308FB031333F8121033F81230AC
:1044C00049BADAB21B0AE1D1002AEAD1ADF80820D4
:1044D0008DF80A20029803F081FDC0F307238DF8C0
:1044E0000C00C0F307408DF80D308DF80E009DF8DC
:1044F0000E309DF80C209DF80D10204604F096FA21
:104500000134ABE705B0BDE8F08300BF4C0D0020DF
:10451000B8120020500D002041EA0203184310B4E5
:1045200005D10146B422094810BCFCF79FB800240D
:104530000F230648013B13F0FF0301704270204433
:10454000F8D11E34B42CF3D110BC7047BC1200203B
:1045500010B5064A0B461478012C05D15878097815
:10456000FFF74EFF204610BD0020FCE74C0D002059
:10457000024B1878431E5842584170474C0D00209A
:10458000B4235843C1EB01110A44223000EB42002E
:10459000704704207047032838B510D805290ED875
:1045A0000E2A0CD8FFF7ECFF054603F041F904464C
:1045B000681C03F03DF944EA002080B238BD0020B9
:1045C000FCE7032870B51C460FD805290DD80E2A24
:1045D0000BD8FFF7D5FF0546E1B203F091F9210AA8
:1045E000681CBDE8704003F08BB970BD2DE9F8433D
:1045F000002405460F461646A14600F12208BC429B
:1046000008EB040001D1BDE8F8832B19B3F5347F22
:1046100004DA03F00DF930550134F0E706F80490A0
:10462000FAE72DE9F04105460E469046002400F1D8
:104630002207B44207EB040001D1BDE8F0812B1939
:10464000B3F5347F03DA18F8041003F059F9013494
:10465000EFE70000032806D8B42202FB00F102486D
:10466000223103F033B97047BC120020032838B55B
:104670000CD8084A00231478012C07D15578A84299
:1046800006D11370FFF7E6FF204638BD0020FCE797
:104690001846FAE74C0D0020032806D8B42202FB86
:1046A00000F10248223103F059B97047BC120020D2
:1046B000074B084A10B51A600023074C237060703E
:1046C00005F086FE60806078BDE81040FFF7E4BF2B
:1046D000B8120020BC1200204C0D0020032808B5A1
:1046E0000CD8074A5070FFF7D7FF05F007FE2D28BA
:1046F00002D02D2005F0FFFD012000E0002008BDC4
:104700004C0D0020032810B510D8094B197869B951
:10471000012458701C70FFF7BFFF05F0EFFD2D2836
:1047200002D02D2005F0E7FD204600E0002010BD5E
:104730004C0D0020032810B5044609D8FFF7ACFF44
:104740002046FFF793FF2046BDE81040FFF7C6BFA5
:1047500010BD000008B5054802F0D0F8BDE80840DB
:104760004FF434722221024803F0B0B8C0FA0008B6
:104770007201010808B50B4B0A461B78012B0CD1BE
:10478000A0F5A44020381F2809D9887820B1507896
:104790000978FFF735FE002008BD0120FCE7184628
:1047A000FAE700BF4C0D002070B504460078FF28E2
:1047B00001D105F0A3FD0C4900220D4611F8016B53
:1047C000D3B2864203D00132102AF7D113462278A1
:1047D000FF2A13BFFF22013303F00F032270E85CAE
:1047E000BDE8704005F087BDC2FD000838B50B7804
:1047F0000546FF2B0C4602D105F080FD20702846AF
:1048000038BD38B540F2F62440F206352046002186
:10481000013403F038F8AC42F8D138BD10B505F0DA
:104820006DFD0023054911F8014BDAB2844203D033
:104830000133102BF7D11A46104610BDC2FD0008F7
:1048400010B50446FFF7EAFF2146BDE8104000F22C
:10485000F62003F018B808B5FFF7E0FF00F2F620E5
:1048600002F0E6FF072888BF002008BD70B505F0FC
:1048700045FD0723124A12F8011B81421DD0013B5E
:1048800013F0FF03F7D10725FFF7E5FF0130B0FB79
:10489000F5F405FB14040B4B13F8145003EB44031D
:1048A0005E7805F095FD31460246284605F069FD23
:1048B000E0B2BDE87040FFF7C3BF0625E4E700BFE4
:1048C000D2FD0008B4FD000838B5FFF76DFFFFF713
:1048D000C2FF074B13F8104003EB40035D7805F06F
:1048E00077FD294602462046BDE8384005F049BD1F
:1048F000B4FD00082DE9FF411A4B1B780BB30022D1
:104900001146104604F01AFF0024DFF86080164FAD
:1049100001AE0A2541462A463046FBF731FEFB7FB1
:10492000E2B2B3FBF5F5954200D8AAB9312B305D60
:104930000BD9002364221946013404F077F80A2CBD
:10494000E7D1012004B0BDE8F0811D2B4FF000033A
:10495000F0D81A466421EFE70023305D1A46194665
:10496000EAE700BF70130020640C0020CEF70008B7
:1049700038B52B4B0446DB782A4913F001031ED0CF
:10498000294B1B78A3B10023284A2046136001223B
:104990000A701A461946FDF7F9FAFF224FF496718C
:1049A0002046FDF737FB2046BDE83840FDF7CEBA7C
:1049B0001E4A136001220A701A46FF21EBE71C4AC7
:1049C000D57F0F2D1546DED80A780AB31A46FF2187
:1049D000FDF7DCFA01224FF496712046FDF71AFB31
:1049E000EB7F002BDFD1114D2B6813B907F050F886
:1049F000286028680028D6D007F090F84EF660238B
:104A00009842D0D9002301202B60FEF74DFFCAE762
:104A100011461346FDF7BAFAFF224FF4FA71DCE7AC
:104A2000A83B00209D0E002071130020741300206D
:104A3000640C002070B5264E04463578042D35D818
:104A4000DFE805F003412839410006F0A9FE214BBB
:104A5000C0F34006187800F0E8FE02281CBF1E4B89
:104A60001D781E4B18BFC5F30015DB7813F001034A
:104A700005D01B4BDB7F632B8CBF002301232A4611
:104A800031462046FDF782FAFF2232212046FDF70B
:104A9000C1FA0BE0FF231A461946FDF777FA032205
:104AA000C8212046FDF7B6FA012333702046BDE841
:104AB0007040FDF74BBAFF231A461946FDF766FA18
:104AC0000122C821E2E700233370FFF7B3FFEDE7CF
:104AD000781300208A130020B83B0020A83B002058
:104AE000640C0020FF2810B504461CD10E4BD3F8EF
:104AF000F83023F07F43B3F5A04F0DD100225023AF
:104B00001146FDF743FA20460121FDF757FA2046EA
:104B1000BDE81040FDF71ABAB3F5A00F03D100238A
:104B200050221946EDE710BDA00E002008B5054B38
:104B300000211870FB20FDF757FABDE80840FB2064
:104B4000FFF778BF7813002010B5037CFA2B0AD04A
:104B5000FB2B37D02F4B1B7843B9FFF709FD80F0B3
:104B60000100C4B21BE02C4B1B780BB1002416E0F3
:104B7000284B1C78002CF9D1437CDBB1274B427EBB
:104B8000DB78DB070DD4264BDB7F0F2B09D8002AFF
:104B9000ECD023462246FF21012003F047FF2046A8
:104BA00010BD204B12B94FF4807201E04FF08072BB
:104BB0009A61F4E74FF480721A4B21469A612346BA
:104BC0002246E9E7144B447C1A78174BCCB1417E5E
:104BD00089B910219961017E124B79B94FF40071A6
:104BE0009961002AC2D0847E0E4B002CDBD04FF09E
:104BF00080729A61BAE74FF48011EBE74FF00071D1
:104C0000EEE7102199614FF40071064B9961002A7B
:104C1000ACD0C8E78113002078130020A83B002007
:104C2000640C00200004004000080040034B18788A
:104C300010F0030018BF0120704700BFD43B0020D4
:104C40000422024B01209A61704700BF000C004013
:104C500010B50C4C01222046042109F042F804232F
:104C60002022A3614FF400414FF0804009F039F851
:104C70004FF080431B69044AC3F3C0331370012013
:104C800010BD00BF000C00407113002001207047D0
:104C90004FF080431B69124A10B5C3F3C033137041
:104CA000FDF7D4FC60B90F4C206806F037FFB0F573
:104CB0007A7F05D906F0ECFE206053200AF0F4FB61
:104CC000FDF7C4FC48B9084BDB7813F0010F14BFA3
:104CD0004FF480220422054B9A61012010BD00BFD1
:104CE000711300207C130020A83B0020000C004022
:104CF00045F2040307B5ADF8043064238DF806309F
:104D0000019803F06BF90C4AC0F30743C0F3072185
:104D1000937010705170C2B2FF20FDF737F9032273
:104D2000FA21FF20FDF776F9FF20FDF70FF90120AA
:104D300003B05DF804FB00BFAC3B002008B547F6AC
:104D40001E63984210D179B10A4B1A680A4B13407E
:104D5000B3F1807F0AD1094B1B78042B06D1FEF7F3
:104D6000D9FD08B9FEF7D0FD012008BDFEF7CFFD43
:104D7000FAE700BFA83B0020FF000001443F0020ED
:104D80004FF48072044B9A614FF400729A611022C2
:104D9000C3F81824704700BF0004004008B5FFF7AF
:104DA000EFFF4FF48022024B01209A6108BD00BF43
:104DB000000C0040104A10B5D278104CD20723786E
:104DC00011D56BB905F0E0FA0D4BC0F30742C0F303
:104DD000072118709A70C0B26422597005F0CEFA9B
:104DE0000123237010BD2BB1054B9A7859781878A0
:104DF00005F0C7FA0023F4E7A83B00208213002047
:104E0000AF3B0020124B73B51B7805460E46ABB185
:104E100045F20403ADF8043064238DF806300198A0
:104E200003F0DCF80B4BC0F30724C0F30742187003
:104E3000C1B220465C709A7004F080FCFFF7BAFFA4
:104E400031462846FFF756FD012002B070BD00BF75
:104E500081130020AC3B0020024B40F2F220196885
:104E600002F06ABDB43B002070B5C84D04462B78F3
:104E70000E463BB18B782BB10022114610462A70AA
:104E800004F05CFCB4F5F84F00F0DC8176D847F212
:104E900013039C4200F0848132D8B4F5A44F00F093
:104EA000208207D8E32C00F08B81E72C00F09F8153
:104EB000012436E145F221239C4200F09B8245F219
:104EC00023239C4200F0AD8245F202239C42EFD1A5
:104ED000B378002B00F0078100213420FDF784F81F
:104EE000AB4C0322FA213520FDF794F83520FDF76D
:104EF0002DF8207800F099FC022800F0F48007E2F9
:104F000047F627039C4200F0C78118D847F62103D3
:104F10009C4200F0108247F623039C42C8D1B3782C
:104F2000002BC5D0FFF7A2FC05F02EFA994BC0F379
:104F300007221870C0F307405A709870D3E047F604
:104F400029039C4200F09681C0F0B78147F62A03FE
:104F50009C42ADD1B378002BAAD005F0C7FA332814
:104F6000A6D8332005F0BAFAFFF702FB0446002862
:104F700040F0B9800220FFF7D9FDD2E047F61E636A
:104F80009C4200F054815DD847F602639C4200F0D9
:104F9000CA8028D8B4F5FC4F00F0A18047F6016321
:104FA0009C4285D1FFF7E4FA0446002840F09B803C
:104FB000B378002B3FF47CAF774B1D78022D7FF444
:104FC00077AFFFF701F800287FF472AF502330204D
:104FD0001A461946FCF7DAFF2A4696213020FDF7DB
:104FE00019F830209BE047F606639C4200F0BB8036
:104FF00047F607639C4200F0118147F605639C4227
:105000007FF456AFFFF7B4FA044600286BD1B378AB
:10501000002B3FF44DAF604B1B78062B7FF448AF5D
:10502000FEF7D2FF00287FF443AF502328201A4612
:105030001946FCF7ABFF022296212820FCF7EAFF75
:1050400028206CE047F64C639C4200F0B9811AD8E6
:1050500047F64A639C4200F0918147F64B639C42BD
:105060007FF426AFB378002B3DD04C4C607800F035
:105070000F00FFF711FB607800F00F00FFF7F6FA62
:10508000A11C01208BE147F654639C4200F0E380B1
:1050900047F655639C4200F0E58047F653639C4217
:1050A0007FF406AFB378F3B105F028F92D281AD1B3
:1050B0003A4E757815F00F0515D1FFF759FA0446E9
:1050C000707800F00F00002C40F08C81FFF71AFB85
:1050D000204622462146FFF71FFA03204BE7FFF741
:1050E00047FA044608B100241BE0B378002B3FF4D4
:1050F000DFAE294B1B78012B7FF4DAAEFEF764FF9D
:1051000000287FF4D5AE502331201A461946FCF70B
:105110003DFF022296213120FCF77CFF3120FCF775
:1051200015FF204670BDFFF723FA04460028DAD1A8
:10513000B378002B3FF4BCAE174B1B78032B7FF4E6
:10514000B7AEFEF741FF00287FF4B2AE50232F2008
:105150001A461946FCF71AFF022296212F20FCF767
:1051600059FF2F20DBE7FFF703FA0028BBD1B37804
:10517000002B3FF49DAE084B1B78002B7FF498AEBC
:10518000FEF722FF041C18BF0124CAE78113002088
:105190008A130020AF3B0020A83B0020B43B002036
:1051A000B478002C3FF484AE002350211A46FF202F
:1051B000FCF7ECFE0121FF20FCF700FFFF20AEE72B
:1051C000A14B187800F031FB02287FF471AE9F4BA1
:1051D0001B78DA067FF56CAEFFF7CAF900287FF47A
:1051E00067AEE320B478B4B100F020FA99E7964BAB
:1051F000187800F01AFB02287FF45AAE934B1B7804
:10520000DB067FF555AEFFF7B3F900287FF450AE0B
:10521000B478E720E7E700F01FFA49E68C4B1B78EB
:1052200003B1B3788B4A03F0010313705BE7B478E2
:10523000002C7FF458AFA82000F0F8F9A82000F067
:105240000BFA6EE7B478002C3FF432AE01F07EFE2C
:1052500006F07CFC65E7B378002B3FF444AF0123F4
:105260002B7040E7B378002B3FF43DAF62200AF08B
:105270001BF938E7B378002B3FF41AAE05F036F986
:10528000FF287FF415AEFFF773F900287FF42BAFEA
:105290000220FFF74BFC0BE6B478002C3FF408AE7D
:1052A00005F096F84F286C4D02D96423AB70EAE7FD
:1052B00005F08EF81430A87033E7B478002C3FF472
:1052C000F7AD05F085F81428634D06D80022114685
:1052D000104604F033FA0023E8E705F079F81438B3
:1052E000E9E7B378002B3FF4FEAE00213520FCF750
:1052F0007BFE554C0322FA213420FCF78BFE342030
:10530000FCF724FE207800F090FA02287FF4EBAE40
:10531000207800F08AFA30B9022000F0F7F9002076
:1053200000F0CFFDDFE6207800F07FFA02287FF45E
:10533000DAAE0020F1E7B378EBB1484C0020FFF77C
:10534000F5FB607800F00F00FFF7A6F9607800F039
:105350000F00FFF78BF90022414BA01C1A70FFF7DA
:10536000B3FA05F011F83C4BC0F307221870C0F3F4
:1053700007405A709870FFF76FFDB4E6B378002BC2
:105380003FF4B1AE354C607800F00F00FFF784F9C0
:10539000607800F00F00FFF769F90020A11CFFF70B
:1053A00025FA637860F303036370FFF755FD6078B7
:1053B00000F00F00FFF792F90020FFF7B7FB92E62D
:1053C000B378002B3FF48FAE244C607800F00F00D0
:1053D000FFF762F9607800F00F00FFF747F9A11CB2
:1053E0000220DCE7FFF742F92846FFF79FFB1C4B42
:1053F0001D7078E6B378002B7FF45AADFFF7B8F84C
:1054000000283FF455AD164B1A7832B100223146D0
:1054100045F221201A70FFF79BF80124104B1C70F5
:105420007FE6B378002B7FF443ADFFF7A1F80028A7
:105430003FF43EAD0A4B1A78002AEED000223146E6
:105440001A7045F22320E6E78A130020B83B0020BB
:10545000A83B002070130020AF3B0020B43B00208D
:105460008013002008B50020FFF760FB0022094BE5
:105470001A70094A138823F4706323F0010343F080
:1054800001031380FF239370FFF7BBF9BDE80840C9
:10549000FFF7E2BC80130020B43B002038B52E4C4F
:1054A000012220464FF4007108F01BFC4FF40073FA
:1054B0002A4DA36101221021284608F012FC102376
:1054C0002046AB6101224FF4807108F00AFC4FF4D2
:1054D0008073A36104F5006401220421204608F0D2
:1054E00000FC0423A36104F04FFF1D4BC0F307220F
:1054F0001870C0F307405A70987020224FF4004192
:105500004FF0804008F0EDFB4FF080431B69154AD7
:10551000C3F3C03340F2F220137002F0A7F9124C2B
:10552000206008B9FFF79EFF607800F00F00FFF7DA
:10553000BFF8FF22C821FA20FCF76CFDFA20FCF727
:1055400005FDFF22C821FB20FCF764FDFB20FCF7D2
:10555000FDFC012038BD00BF0004004000080040F1
:10556000AF3B002071130020B43B002005207047A2
:1055700004280DD805290BD80E2A09D85A23C1EBC7
:10558000011103FB0010034B104433F81000704767
:1055900001207047EEFD000805207047042808D858
:1055A00039B9054B82F0010202EB400233F81200D8
:1055B00070470120704700BFDAFD0008A0F5807336
:1055C000B3F5F85F10B526D210F4805F00F40074D4
:1055D00000F4807300F4806100F400620DD0002BB1
:1055E0000CBF002010200CB140F0200009B140F0A9
:1055F00040000AB140F0800010BD181C18BF012007
:105600000CB140F0020009B140F00400002AF3D0D0
:1056100040F00800F0E70020EEE710B50C46FFF779
:10562000CDFF2346BDE8104018470000A0F1E0037D
:10563000072B10B5044600D940B920460449FFF7AE
:10564000ECFFE0B2BDE81040FDF74CBA0149F6E7C7
:10565000452C0008F52C000810B50446C0B2FDF733
:10566000A3FAA4F1E003072B00D92CB90349204683
:10567000BDE81040FFF7D1BF0149F8E79D2C0008B5
:105680004D2D000801207047704708B5FFF7FCFF5B
:1056900008BD000013B502AB03E903000F4B1B78F4
:1056A000B3B99DF80230009873B16AB100F0BCFC48
:1056B00004460146009800F077FC2046009902B0AD
:1056C000BDE8104001F030BB00F08EFC0446F4E76A
:1056D000009800F0A9FC0099F1E700BF89130020B1
:1056E000034610B400885C880A4640EA0440998862
:1056F00010BCFFF7CFBF0120704710B50446002152
:10570000FFF7EEFF2146FFF7C0FF10BD10B50124E3
:105710008440E4B2204601F0D4F82046BDE81040B1
:1057200000F0A3BB704708B500F03AFBFFF7FAFFA3
:10573000BDE8084046F2A81007F021B908B5FFF708
:10574000F2FFBDE8084006F001BA08B5FFF7EBFF2D
:10575000BDE8084006F022BA38B501210546FFF73A
:10576000BFFF2946044605F05BF808B9002038BDA4
:1057700029462046FEF77AFA0028F7D02946204627
:1057800005F050FE0028F1D02946204605F0DEF94C
:105790000028EBD02946204605F0C2FD0028E5D0C0
:1057A0002946204604F0EAFE0028DFD0294620469C
:1057B00005F086FE0028D9D0AB785BB147F60343ED
:1057C0009C421DD00AD8B4F5F84F16D047F60143D5
:1057D0009C4217D02846FFF755FFC8E747F65B43C2
:1057E0009C4215D047F65C439C420ED047F65A4384
:1057F0009C42EFD101F040F8ECE7FFF79FFFB5E7DF
:1058000001F041F8FFF7A1FFB0E701F029F8E1E767
:1058100001F035F8DEE708B500F02EF8002004F0BE
:1058200005FDBDE80840FEF711BA03091CBF184684
:10583000042382081EBF10460233DBB242081CBF9D
:105840000133DBB21846704770470120704770473C
:1058500038B50546FFF7F9FF044610B12846FFF7B3
:10586000F6FF204638BD704710B50446FFF7ECFF41
:105870002046FFF7EDFF10BD08B505F089FFFFF7E3
:10588000F3FF08BD10B505F083FF074B04461A78F7
:10589000824207D0187006F0FBF8044B18602046CF
:1058A000FFF7E2FF10BD00BF881300208413002023
:1058B00010B586B06C4684E803009DF802300BB149
:1058C00000F010FF0023ADF8163094E80300ADF8A7
:1058D000141089B20490ADF80C0004AC29B994E816
:1058E000030000F037FE06B010BD4FF6FF73BDF8A1
:1058F0000C209A42F3D02046FFF7FDFE0028EED19F
:10590000F1E7008800F0B2BB704738B505460C4699
:10591000FDF7E8F81CB92846FDF746F938BD6420C4
:10592000013C07F02CF8A4B2F4E708B539280CBF05
:1059300050210A21FFF7E9FF08BD00002DE9F047DB
:10594000877981460C46857800F096FE3F098046AF
:1059500000B3A846F5B1C4F3072303F0F002402AD0
:1059600009D004F12002D2B2072A25D91FB903F0C9
:10597000E003202B23D0AE4B93F8018018F00408ED
:1059800008D0022000F038FF00F076FE80F0010021
:105990005FFA80F8C4F303330B2B41D8DFE813F030
:1059A0001100110062006200CE0040004000400083
:1059B000E4003F01510151014FF00008EAE7B84609
:1059C000E8E7C4F30723C4F3032613F0F00F18BF6E
:1059D0003601E7B295B156B107F12003DBB2072BD0
:1059E000304600D93FB900F057FE00F0ABFE384614
:1059F000FDF778F814E000F065FEF6E73846FDF7AD
:105A0000D3F86EB107F12003DBB2072B304600D983
:105A100017B900F049FE01E000F05CFE00F092FED4
:105A2000C4F30334083C032C03D805F0B1FEFFF7A0
:105A30001BFFB8F1000F00F05C8100F015FE10F0C4
:105A4000010040F0568189F8020000F005FE00F0E8
:105A50003FFA484600F064F900F0FEFDBDE8F0476B
:105A600000F042BAC4F3072303F0F003C4F30326A3
:105A7000202B5FFA84FA18BF3601BAF1000F0FD05D
:105A8000BAF1010F41D0002D49D0002F40D099F834
:105A90000630DA0741D56FF3071389F8063037E08F
:105AA000634B5B7859070FD43DB126B1304600F007
:105AB000F3FD00F047FE00209AE72846FDF774F852
:105AC000002EADD03046A4E785B137B900F010FE06
:105AD0003043C0B2FDF7B6F8A2E7012FF6D100F0CF
