:020000040800F2
:1000000000040020B9010008BB010008BB01000882
:10001000BB010008BB010008BB010008BB010008D0
:10002000BB010008BB010008BB0100089572000875
:10003000BB010008BB010008BB0100087780000875
:10004000BB010008BB010008BB010008BB010008A0
:10005000BB010008BB010008BB010008BB01000890
:10006000BB010008BB010008BB010008BB01000880
:10007000BB010008BB0100084D880008BB01000857
:10008000BB010008BB010008BB010008BB01000860
:10009000BB010008BB010008BB010008BB01000850
:1000A00085800008BB01000809840008BB01000826
:1000B000BB010008BB010008BB010008BB01000830
:1000C000BB010008BB010008BB010008BB01000820
:1000D000BB010008BB010008BB010008BB01000810
:1000E00072B6264880F30888254880F30988254899
:1000F00025490860022080F31488BFF36F8F06F053
:100100002BFE06F0F3F94FF0553020491B4A91427F
:100110003CBF41F8040BFAE71D49194A91423CBF24
:1001200041F8040BFAE71B491B4A1C4B9A423EBF9D
:1001300051F8040B42F8040BF8E700201849194A5B
:1001400091423CBF41F8040BFAE706F009FE06F0C5
:1001500004FE154C154DAC4203DA54F8041B8847D5
:10016000F9E702F0F9FA124C124DAC4203DA54F8F6
:10017000041B8847F9E706F0F1BD000000040020E9
:10018000000C00200000000808ED00E00000002046
:1001900000040020E0980008000C00202812002035
:1001A00028120020102B0020E0000008E0000008CA
:1001B000E0000008E000000892E700F000F8FEE729
:1001C0002DE9F04FC1F80CD0C3689D46BDE8F08F13
:1001D000002383F311882846A047002006F088FFFB
:1001E000FEE706F0DFFE00DFFEE7000080F00040E3
:1001F00002E000BF81F0004142001FBF5FEA4103FF
:1002000092EA030F7FEA226C7FEA236C6AD04FEAFE
:100210001262D2EB1363C1BFD21841404840414043
:10022000B8BF5B42192B88BF704710F0004F40F4F5
:10023000000020F07F4018BF404211F0004F41F411
:10024000000121F07F4118BF494292EA030F3FD0DD
:10025000A2F1010241FA03FC10EB0C00C3F12003F0
:1002600001FA03F100F0004302D5494260EB40007F
:10027000B0F5000F13D3B0F1807F06D340084FEAEA
:10028000310102F10102FE2A51D2B1F1004F40EBDF
:10029000C25008BF20F0010040EA03007047490047
:1002A00040EB0000013A28BFB0F5000FEDD2B0FAE4
:1002B00080FCACF1080CB2EB0C0200FA0CF0AABF07
:1002C00000EBC25052421843BCBFD04018437047A5
:1002D00092F0000F81F4000106BF80F400000132AB
:1002E000013BB5E74FEA41037FEA226C18BF7FEA82
:1002F000236C21D092EA030F04D092F0000F08BFC4
:100300000846704790EA010F1CBF0020704712F0AA
:100310007F4F04D1400028BF40F00040704712F1E9
:1003200000723CBF00F50000704700F0004343F04E
:10033000FE4040F4000070477FEA226216BF084684
:100340007FEA23630146420206BF5FEA412390EA47
:10035000010F40F4800070474FF0000304E000BF3D
:1003600010F0004348BF40425FEA000C08BF7047EE
:1003700043F0964301464FF000001CE050EA0102B2
:1003800008BF70474FF000030AE000BF50EA0102C7
:1003900008BF704711F0004302D5404261EB4101B4
:1003A0005FEA010C02BF84460146002043F0B643D9
:1003B00008BFA3F18053A3F50003BCFA8CF2083AFE
:1003C000A3EBC25310DB01FA02FC634400FA02FC07
:1003D000C2F12002BCF1004F20FA02F243EB02000E
:1003E00008BF20F00100704702F1200201FA02FC70
:1003F000C2F1200250EA4C0021FA02F243EB020063
:1004000008BF20EADC7070474FF0FF0C1CEAD052A6
:100410001EBF1CEAD15392EA0C0F93EA0C0F6FD067
:100420001A4480EA010C400218BF5FEA41211ED045
:100430004FF0006343EA501043EA5111A0FB013131
:100440000CF00040B1F5000F3EBF490041EAD37106
:100450005B0040EA010062F17F02FD2A1DD8B3F182
:10046000004F40EBC25008BF20F00100704790F0F1
:10047000000F0CF0004C08BF49024CEA502040EA43
:1004800051207F3AC2BFD2F1FF0340EAC250704709
:1004900040F400004FF00003013A5DDC12F1190F47
:1004A000DCBF00F000407047C2F10002410021FAB9
:1004B00002F1C2F1200200FA02FC5FEA310040F1D1
:1004C000000053EA4C0308BF20EADC70704792F04A
:1004D000000F00F0004C02BF400010F4000F013A82
:1004E000F9D040EA0C0093F0000F01F0004C02BF7D
:1004F000490011F4000F013BF9D041EA0C018FE7EC
:100500000CEAD15392EA0C0F18BF93EA0C0F0AD0F1
:1005100030F0004C18BF31F0004CD8D180EA010017
:1005200000F00040704790F0000F17BF90F0004FB0
:10053000084691F0000F91F0004F14D092EA0C0F92
:1005400001D142020FD193EA0C0F03D14B0218BF25
:10055000084608D180EA010000F0004040F0FE406B
:1005600040F40000704740F0FE4040F44000704707
:100570004FF0FF0C1CEAD0521EBF1CEAD15392EA86
:100580000C0F93EA0C0F69D0A2EB030280EA010C76
:1005900049024FEA402037D04FF0805343EA11110F
:1005A00043EA10130CF000408B4238BF5B0042F16D
:1005B0007D024FF4000C8B4224BF5B1A40EA0C0012
:1005C000B3EB510F24BFA3EB510340EA5C00B3EB44
:1005D000910F24BFA3EB910340EA9C00B3EBD10F32
:1005E00024BFA3EBD10340EADC001B0118BF5FEA84
:1005F0001C1CE0D1FD2A3FF650AF8B4240EBC250AD
:1006000008BF20F0010070470CF0004C4CEA50206D
:100610007F32C2BFD2F1FF0340EAC250704740F4BC
:1006200000004FF00003013A37E792F0000F00F0AE
:10063000004C02BF400010F4000F013AF9D040EA2C
:100640000C0093F0000F01F0004C02BF490011F4C0
:10065000000F013BF9D041EA0C0195E70CEAD153B8
:1006600092EA0C0F08D142027FF47DAF93EA0C0F9F
:100670007FF470AF084676E793EA0C0F04D14B0283
:100680003FF44CAF08466EE730F0004C18BF31F035
:10069000004CCAD130F000427FF45CAF31F000432F
:1006A0007FF43CAF5FE700BF42000ED2B2F1FE4FD5
:1006B0000BD34FF09E03B3EB126209D44FEA002331
:1006C00043F0004323FA02F070474FF000007047F8
:1006D00012F1610F01D1420202D14FF0FF30704799
:1006E0004FF00000704700BF53B94AB9002908BF56
:1006F00000281CBF4FF0FF314FF0FF3000F076B9FB
:10070000ADF1080C6DE904CE00F006F8DDF804E068
:10071000DDE9022304B070472DE9F047089E0D463D
:1007200004468846002B4DD18A42944668D9B2FAD5
:1007300082F252B101FA02F3C2F1200120FA01F172
:100740000CFA02FC41EA030894404FEA1C41B8FB52
:10075000F1F71FFA8CFE01FB178807FB0EF0230C44
:1007600043EA084398420AD91CEB030307F1FF351B
:1007700080F01E81984240F21B81023F63441B1AA5
:10078000B3FBF1F001FB103300FB0EFEA4B244EA10
:100790000344A6450AD91CEB040400F1FF3380F0A2
:1007A0000981A64540F20681644402380021A4EB89
:1007B0000E0440EA07401EB10023D440C6E90043BE
:1007C000BDE8F0878B4208D9002E00F0EE800021B2
:1007D000C6E900050846BDE8F087B3FA83F10029B1
:1007E0004AD1AB4202D3824200F2FC80841A65EB0C
:1007F000030301209846002EE2D0C6E90048DFE757
:1008000002B9FFDEB2FA82F2002A40F09180A1EB39
:100810000C0001214FEA1C471FFA8CFEB0FBF7F3D6
:1008200007FB1300250C45EA00450EFB03F0A84228
:1008300008D91CEB050503F1FF3802D2A84200F2EB
:10084000CE8043462D1AB5FBF7F007FB10550EFB83
:1008500000FEA4B244EA0544A64508D91CEB0404F2
:1008600000F1FF3502D2A64500F2B6802846A4EB7F
:100870000E0440EA03409EE7C1F120078B4022FAB4
:1008800007FC4CEA030C25FA07FA4FEA1C49BAFBAD
:10089000F9F820FA07F309FB18AA8D401FFA8CFE1D
:1008A0001D4300FA01F308FB0EF02C0C44EA0A4445
:1008B000A04202FA01F20BD91CEB040408F1FF3A42
:1008C00080F08880A04240F28580A8F1020864444C
:1008D000241AB4FBF9F009FB104400FB0EFEADB284
:1008E00045EA0444A64508D91CEB040400F1FF3591
:1008F0006CD2A6456AD90238644440EA0840A0FB9D
:100900000295A4EB0E04AC42C846AE4656D353D073
:10091000002E69D0B3EB080264EB0E0422FA01F357
:1009200004FA07F71F43CC40C6E90074002147E7EB
:100930000CFA02FCC2F1200125FA01F34FEA1C4730
:1009400020FA01F195400D43B3FBF7F107FB11339A
:100950001FFA8CFE280C40EA034001FB0EF3834291
:1009600004FA02F408D91CEB000001F1FF382FD281
:1009700083422DD902396044C01AB0FBF7F307FB5C
:100980001300ADB245EA004503FB0EF0A84208D9BA
:100990001CEB050503F1FF3816D2A84214D9023B1F
:1009A0006544281A43EA014138E73146304607E7F3
:1009B0002F46E4E61846F9E64B45A9D2B9EB020802
:1009C00065EB0C0E0138A3E74346EAE7284694E7B7
:1009D0004146D1E7D0467BE76444023847E7023B13
:1009E00065442FE7084606E73146E9E6704700BF51
:1009F00070B505460C4603F02BFB0646D8B104F053
:100A0000C5FF820719D52C2D07D82C2C05D900231A
:100A1000FF211A462C2002F059FD144B1B78DB06EF
:100A200017D5492D07D8492C05D90023FF211A468F
:100A3000492002F04BFD304670BD03F047FD0346F0
:100A40000028EAD12C2DE8D82C2CE6D90246014604
:100A5000E0E703F03BFD03460028ECD1492DEAD83E
:100A6000492CE8D902460146E2E700BF742900207C
:100A700070B506460D4604F0F3F8044680B12EB971
:100A8000002D14BF0420012000F0E1FC45B1054B0E
:100A90002C461A786FF304121A70188801F0B8F90E
:100AA000204670BD7429002003280CD805290AD8D7
:100AB0000F2A08D8062303FB0011044B02EB011296
:100AC00033F8120070470120704700BFB88F00084C
:100AD000032808D839B9054B82F0010202EB400027
:100AE00033F8100070470120704700BFA88F00083E
:100AF0000120704708B5FFF7FBFF08BD01207047D4
:100B00000120704708B5FFF7FBFF08BD704708B527
:100B1000FFF7FCFF08BD000013B502AB03E90300BB
:100B20000F4B1B78B3B99DF8053073B16AB100F073
:100B300069FD04460146009800F026FD2046009914
:100B400002B0BDE8104001F0BBBB009800F03CFDD6
:100B50000446F3E7009800F055FD0099F0E700BF68
:100B60002D120020034610B400885C880A4640EA33
:100B70000440998810BCFFF7CFBF10B5044601218F
:100B8000FFF7F0FF2146FFF7B5FF10BD10B5044693
:100B90000021FFF7E7FF2146FFF7B9FF10BD012055
:100BA000704708B5FFF7FBFF08BD10B5044600F01D
:100BB000FFFB2046FFF7F5FFBDE8104046F2A81006
:100BC00006F09BBA08B50120FFF7EFFFBDE808402B
:100BD00005F0F4B808B50020FFF7E7FFBDE80840CE
:100BE00005F012B938B501210546FFF7BBFF2946CC
:100BF000044604F059FD08B9002038BD29462046B6
:100C0000FFF780FF0028F7D02946204604F050FC6B
:100C10000028F1D02946204604F0FEF90028EBD048
:100C20002946204604F0D2F90028E5D0294620467E
:100C300003F0EEFD0028DFD02946204604F086FCB4
:100C40000028D9D06B797BB147F65A439C4222D019
:100C50000ED847F601439C421AD047F603439C4204
:100C600014D0B4F5F84F0ED02846FFF747FFC4E77D
:100C700047F65B439C4211D047F65C439C42F3D15C
:100C800001F092F8F0E7FFF79DFFB5E701F09EF85D
:100C9000FFF7A0FFB0E701F093F8E5E701F093F864
:100CA000E2E708B504F0D7FF03F0E2F900F022F81C
:100CB000BDE80840012003F095BA08B500F01FF820
:100CC000002003F08FFABDE8084004F0C9BF0120FE
:100CD0007047704738B50546FFF7F9FF044610B175
:100CE0002846FFF7F6FF204638BD704708B5FFF7E6
:100CF000F1FF08BD08B50020FFF7F8FF08BD08B5F3
:100D000004F03CFEFFF7F2FF08BD000010B504F050
:100D100035FE074B04461A78824207D0187004F05B
:100D2000F1FF044B18602046FFF7E0FF10BD00BF45
:100D30002C120020281200201FB56C4684E8030006
:100D40009DF805300BB100F02FFF0023ADF80E30F9
:100D500094E80300ADF80C10C9B2029002AC29B9B6
:100D600094E8030000F07AFE04B010BD2046FFF7BF
:100D700004FF0028F4D1F7E70379012B02D10088A2
:100D800000F060BC7047000010B5044600286AD02F
:100D9000822813D104F0FAFD810764D4392004F0CD
:100DA000DDFE00F099FF4FF4FA5006F0A6F9392065
:100DB00004F0EEFEBDE8104000F08EBF83280ED197
:100DC00004F0E4FDC2074ED4532004F0C7FE00F047
:100DD00083FF42F2107006F090F95320E8E7842870
:100DE0000ED104F0D3FD43073DD4472004F0B6FEF6
:100DF00000F072FF42F2107006F07FF94720D7E74B
:100E0000031FDBB2A02B0BD804F034FE20B1204628
:100E100004F0BEFE00F060FF204604F09FFEC9E72C
:100E200000F12003DBB2072B07D800F007040120F4
:100E3000A040C0B200F092FEBCE700F15B03DBB261
:100E4000022B05D8BDE81040243880B204F0B4BDB0
:100E50005834E4B21A2C06D8034B33F81400BDE81A
:100E6000104004F0C5BD10BDB892000808B5034697
:100E700000284FD082280FD104F088FD810749D582
:100E8000392004F06BFE00F027FF392004F080FECB
:100E9000BDE8084000F020BF83280AD104F076FDA9
:100EA000C20737D5532004F059FE00F015FF532038
:100EB000ECE784280AD104F069FD43072AD54720CE
:100EC00004F04CFE00F008FF4720DFE7021FD2B21B
:100ED000A02ADBD900F12002D2B2072A07D800F0FD
:100EE000070301209840C0B200F040FED0E700F1B7
:100EF0005B02D2B2022A04D8BDE80840002004F008
:100F00005BBD5833DBB21A2B04D8BDE80840002083
:100F100004F06EBD08BD000038B50C460546FFF76D
:100F200033FF9CB140F2E73009494FF47A72A4FBD9
:100F3000014120184FF0000341F10001FFF7D4FBFD
:100F400006F0DBF82846FFF791FF38BD0120F7E7F0
:100F5000A086010008B539280CBF50210F21FFF7EA
:100F6000DBFF08BD08B528B100F0F8FDBDE808407A
:100F700000F0B2BE08BD08B528B100F0F7FDBDE82D
:100F8000084000F0A9BE08BD2DE9F04787798146E9
:100F90000C46457900F0D2FD3F09064608B32E46BF
:100FA000FDB1C4F3072303F0F002402A0CD0E1B2F4
:100FB00001F12002D2B2072A26D903F0E003202B48
:100FC00002D1012920D90FB3A94B5E7816F004068F
:100FD00007D0022000F0B8FE00F0B0FD80F001065E
:100FE000F6B2C4F3033ABAF10B0F3ED8DFE81AF0B9
:100FF000100010005E005E00B9003D003D003D00A5
:10100000D1002F01420142010026EAE73E46E8E70F
:10101000C4F30723C4F3032713F0F00F18BF3F01F5
:10102000E4B285B157B104F12003DBB2072B384697
:1010300000D92CB900F092FD00F04EFE204655E09C
:1010400000F0A2FDF8E72046FFF710FF6FB104F1B2
:101050002003DBB2072B384600D914B900F086FD17
:1010600001E000F099FD00F037FEAAF1080ABAF19C
:10107000030F03D804F082FCFFF738FE002E00F0C7
:101080004F8100F053FD10F0010040F0498189F8D4
:10109000050000F045FD00F00DFA484600F056F955
:1010A00000F03EFDBDE8F04700F010BAC4F307239E
:1010B00003F0F003C4F30328202BE4B218BF4FEA77
:1010C00008182CB1012C34D0002D3CD0DFB1B5E78D
:1010D000674B5B785A0714D45DB1B8F1000F04D0A8
:1010E000404600F03BFD00F0F7FD0020FFF74CFE0E
:1010F000BBE72846FFF7BAFEB8F1000FB5D040466F
:10110000ACE755B11FB94046FFF72CFFADE7012F03
:10111000ABD1404600F068FDA7E7002FA5D14046BF
:10112000FFF729FF404600F06DFD404600F048FD06
:101130009BE715B1052F98D8E5E7042F95D84046D1
:10114000FFF719FF91E7002FF9D0392C0CBF4FF4AE
:10115000FA5040F2DC5005F0D0FF2046FFF786FE43
:1011600083E714F4406FC4F3812308D0012B7FF48C
:101170007CAF65B1C4F3090004F03AFC75E725B112
:10118000C4F3090004F018FC6FE72846FAE7284684
:10119000F2E714F4407F29D1002D7FF466AFC4F349
:1011A00042108000C2B204F00F0014F0100300FAE5
:1011B00002F0C5B21EBF0F209040C043C4F381248B
:1011C00018BFC3B2022C43EA050009D0032C0AD091
:1011D000012C02D000F046F947E700F03BF944E764
:1011E00000F048F941E700F032F93EE7C4F301228C
:1011F0000DB312F0010F3FF438AFC4F3421080007A
:10120000C2B204F00F0014F0100300FA02F0C5B2ED
:101210001EBF0F209040C043C4F3812418BFC3B247
:10122000022C43EA05000CD0032C0DD0012C05D074
:1012300000F06AF919E712F0020FDCE700F05CF940
:1012400013E700F069F910E700F022F90DE7E7B2C3
:10125000C4F3032425B1204600F02CF9384653E7A7
:101260003846FFF788FE204600F030F9FDE600BF63
:10127000742900205FFA84F8A8F1F003042B39D810
:10128000DFE803F003220E151E003DB1042F3FF6E8
:10129000ECAEC4F3042000F023F9E6E6052FF6E7F0
:1012A000C4F30420002DDFD100F004F9DDE625B100
:1012B000C4F3042000F0F7F8D7E600F0F1F8D4E624
:1012C000184B5B785B0704D4C4F30420002DCBD00B
:1012D000EAE72DB10321C4F3042000F013FDC4E6B6
:1012E000012000F031FD012F7FF6BFAE022000F09B
:1012F0002BFDBAE62DB10FB14046F7E6C4F304204A
:10130000D2E757B1B8F1390F0CBF4FF4FA5040F2A1
:10131000DC5005F0F2FE404620E7C4F30420A3E7CA
:10132000BDE8F0877429002038B50188044640796B
:1013300000F094F9054600F0F7F800F087F8294628
:101340002046BDE83840FFF71FBE0000037910B506
:101350000446B3B1FFF746FC68B900F0EFFB80B17B
:10136000637973B1074B5B785B070AD5BDE8104022
:10137000022000F0E9BC2046FFF7D6FF2046FFF729
:1013800005FC10BD7429002008B5002004F014FBF2
:10139000002004F02DFB00F007FCBDE8084000F041
:1013A0009BBC08B504F00EFCBDE80840FFF7ECBF9D
:1013B00008B500F0E3FBBDE80840FFF7F2BFC0F35B
:1013C0000333062BC2B213D094BF0E33063303F09F
:1013D0000F03012B10D8F02A10D004D8E72A8CBFB5
:1013E000002001207047F42A14BF0020012070471C
:1013F000E72A03D9F12AF7E7002070470120704758
:1014000008B50346007930B1188800F01BF9BDE833
:101410000840FFF7D4BF08BD82B002AB03E9030068
:1014200002B0704782B002AB03E9030002B070471C
:10143000704708B5FFF7FCFF08BD000008B5FFF7CF
:10144000F8FF014B187008BD2E1200207047FFF7FF
:10145000F5BF0000024B1B781843FFF7EFBF00BF3A
:101460002E120020024B1B781840FFF7E7BF00BF89
:101470002E120020024B1B785840FFF7DFBF00BF41
:101480002E120020704708B5FFF7FCFF08BD0000D2
:1014900008B5FFF7F8FF014B187008BD32120020A5
:1014A0000020FFF7F5BF012303FA00F0C0B2FFF7F9
:1014B000EFBF0000012303FA00F0034B1B78184331
:1014C000C0B2FFF7E5BF00BF321200200123034A7C
:1014D0008340107820EA0300FFF7DABF32120020C1
:1014E000012303FA00F0034B1B785840C0B2FFF70A
:1014F000CFBF00BF32120020024B1B781843FFF70A
:10150000C7BF00BF32120020024B1B781840FFF704
:10151000BFBF00BF32120020024B1B785840FFF7BC
:10152000B7BF00BF32120020704701F00703C9089F
:1015300030B501EB410101240139114400229C40E6
:10154000E4B211F8015F20FA02F343F300036B40A9
:10155000234001326B40032A0B70F2D130BD0022D0
:1015600010B500F00704C00800EB4000014410462D
:101570008B5CE34003F00103934001321843032ADC
:10158000C0B2F5D110BD000017B40C46ADF8040090
:10159000C1B2C0F30720052809D80F290DD8084A81
:1015A00001EB0011204603B010BCFFF7BEBF031DC6
:1015B000DBB2012B01D8034AF4E703B010BC70473B
:1015C000331200202F12002082B0ADF80400C3B205
:1015D000C0F30720052807D80F2B0CD8074903EBC9
:1015E000001002B0FFF7BBBF0430C0B2012802D820
:1015F00018460349F5E7002002B070473312002077
:101600002F12002073B503240C4BADF804001E7894
:101610000B4B1B781E4346FA04F3DB07E5B205D4F7
:10162000013CF8D20025284602B070BD2846019939
:1016300000F065FE80B20128F2D0F4E732120020FB
:101640002E12002007B5ADF804000198FFF7DAFF6D
:10165000019903B05DF804EB00F051BE13B5104BD7
:10166000ADF804101B782BB1019802B0BDE8104012
:10167000FFF7E8BF70B10198FFF7C4FF04460146C9
:101680000198FFF781FF2046019902B0BDE81040A4
:1016900000F035BE0198FFF797FF0446F3E700BF5F
:1016A0002D12002010B5012404FA01F104FA02F20F
:1016B0000A43D1B202408A4204FA03F406BF20432F
:1016C000C0B2A04310BD000008B513460A4601464B
:1016D00003480078FFF7E6FFBDE80840FFF7D8BEF3
:1016E00032120020F8B50C4B0C4E1C780C4D3378A0
:1016F000A34200D1F8BD05EBC40335F834005F8880
:101700009A88D98840EA074042EA01410134FFF74C
:1017100089FE04F00704EAE7A1120020A0120020CD
:1017200060120020064B10B418885C889A88D9880B
:1017300040EA044042EA014110BCFFF773BE00BF1B
:10174000581200201A4AF8B5937913F0F00F0AD115
:10175000537943B1174B18491B780D781688578871
:10176000164CAB4200D1F8BD04EBC3010879D0B1EF
:1017700034F83300B04216D14879A0B94888C01B6C
:1017800080B2C7280FD80120937960F307139371B3
:101790008B7960F307138B710548FFF7D7FDBDE820
:1017A000F840FFF79FBF013303F00703D9E700BFFD
:1017B00058120020A1120020A01200206012002068
:1017C000F0B50D4B0D4C1B7826780D4CB34201D172
:1017D0000020F0BD04EBC3056F788F4206D114F8EA
:1017E0003370874202D16D79954203D1013303F002
:1017F0000703EBE70120ECE7A1120020A012002074
:10180000601200202DE9FF47E8460446924D06226B
:101810000146404607F0F8FA2B7967792279C3B977
:10182000AAB18FB12046FFF7EBFD064660B1082252
:101830002146284607F0E8FA2846FFF79DFAFFF709
:1018400081FFFFF76FFF4CE02046FFF77FFD012689
:1018500047E0B4F802906B886E79A9EB03039BB262
:10186000002E00F0B280C72B00F28A80002A38D008
:10187000AB79298813F0F00F228850D191420FD113
:10188000002F40F0E380012262F30713AB71FFF7F2
:1018900049FF2846FFF75AFDAB79A371002620E0E7
:1018A000002F40F0D38025783A4628466178FFF72C
:1018B00087FF2846FFF784FF05460028EED10098F1
:1018C000FFF7C0FEC0F30332032AC3B20DD8012ACA
:1018D00015D910F4706F17D0A27912F0F00F13D150
:1018E0002E46304604B0BDE8F087063202F00F0203
:1018F000012A0ED92046FFF729FD3546F0E710F4FE
:10190000706F01D0002BEBD02033DBB2072BE7D96F
:10191000F0E7EF2BE4D90F33DBB2022BF7E791426C
:101920000AD14FB92046A371FFF710FD08222146C6
:10193000284607F069FA84E72046FFF761FD002892
:1019400082D0002F80D0AB791F2B0FD92A8802A814
:10195000ADF808202A79ADF80A908DF80C20002205
:101960008DF80E308DF80D20FFF7F0FC082221468F
:10197000394807F049FAFFF7E5FEFFF7D3FE66E7BF
:10198000AB7913F0F00A0ED198E80300FFF744FD9D
:101990002846FFF7DBFC08225146284607F042FAAA
:1019A000FFF7C0FE7AE7002A9BD02988228891425F
:1019B000C2D1002FC0D12046A371FFF7C7FC082277
:1019C0003946284607F02EFA8BE7C72B34D8002A71
:1019D0003FF43DAF3E46002F3FF436AF2A882388C0
:1019E0009A421CD1AB79DA0713D413F0F00210D06D
:1019F000F02AA37106D0DBB2C3F30312013262F303
:101A00000713A3712046FFF7A1FC082221461248C4
:101A10008FE708222146104807F0F6F961E72046D3
:101A2000FFF7EEFC0028A1D1AB79204643F001037B
:101A3000AB71FFF78BFC54E798E80300FFF7ECFC71
:101A400008223146284607F0EDF9FAE6AB7943F073
:101A50000103AB7122E700BF58120020F0B585B03A
:101A60006C4684E803002046FFF7CCFE284F06466C
:101A7000284D68B19DF804301BB194E80300FFF7CE
:101A8000D1FC254C28783B78834226D105B0F0BDA7
:101A90009DF8042002AB94E8030083E80300002AC9
:101AA000EFD038782A78441C04F0070494420AD016
:101AB0001946194B082203EBC00007F0A5F93C704A
:101AC000FFF710FEDDE7FFF773FC082231461348ED
:101AD0003E702E7007F0A6F9D3E704EBC000FFF7C5
:101AE00091FE0028D2D02B7834F8330004EBC303E6
:101AF0005E889A88D98840EA064042EA0141FFF7A9
:101B000091FC2B78013303F007032B70BAE700BF79
:101B1000A0120020A1120020601200205812002004
:101B2000014B1878C0087047F2120020024B187859
:101B300000F00700704700BFF2120020034B187836
:101B400010F0070018BF0120704700BFF2120020FC
:101B5000014B1878704700BFF5120020024B1A782D
:101B600010431870704700BFF5120020024A137826
:101B700023EA000313707047F51200200022014B86
:101B80001A707047F5120020024B1A781043187033
:101B9000704700BFF6120020024A137823EA0003C0
:101BA00013707047F61200200022014B1A70704724
:101BB000F6120020704708B5FFF7FCFF08BD0000D3
:101BC00008B5054A1378034204D023EA00001070D8
:101BD000FFF7F1FF08BD00BFF3120020704708B502
:101BE000FFF7FCFF08BD000008B505490B7830EA97
:101BF000030C03D003430B70FFF7F1FF08BD00BFD8
:101C0000F412002008B5054A1378034204D023EAF1
:101C100000001070FFF7E3FF08BD00BFF4120020C2
:101C200008B5044B1A781AB100201870FFF7D7FFD7
:101C300008BD00BFF412002010B5084B1C78084BFB
:101C40001B781C43074B1B782BB11C4303F0ECFEA5
:101C500008B1FFF7E5FF204610BD00BFF5120020D8
:101C6000F6120020F412002038B50B4C2568FFF75F
:101C7000E3FF2870246808222046084907F0B4F8DA
:101C800048B121460822054807F0BEF82046BDE8C5
:101C9000384003F07FBE38BD740D0020EA120020EA
:101CA00038B50B4C2568FFF7C7FF68702468202201
:101CB0002046084907F098F848B1214620220548F7
:101CC00007F0A2F82046BDE8384003F06BBE38BDEF
:101CD000780D0020CA120020054B1B7833B1054B4C
:101CE00093F90030002B01DAFFF7DABFFFF7BCBF32
:101CF0008C0D002074290020704708B5FFF7FCFF09
:101D000008BD0000094A10B5527852070AD5084CA0
:101D100041EAC0012170FFF7CDFB2078C008FFF732
:101D2000ECFF10BDBDE81040FFF7C4BB74290020D4
:101D3000F2120020002008B5024B1870FFF7DDFFFB
:101D400008BD00BFF212002008B50A4A137823EA42
:101D50000000107042070CD198420AD0064B5B7805
:101D60005B0706D5C008FFF7B1FBBDE80840FFF7E9
:101D7000E1BF08BDF212002074290020094A08B50D
:101D80005378C3F3800181420AD060F38203537019
:101D9000108800F03DF8BDE808400220FFF7D4BFEE
:101DA00008BD00BF74290020044B5878C0F38000A0
:101DB00080F0010000F00100FFF7E0BF742900206F
:101DC0000120FFF7DBBF0020FFF7D8BF08B50020D8
:101DD00000F06EFDBDE808404FF6FF71002000F0F6
:101DE00049BD08B5002000F0DEFC4FF6E5639842DF
:101DF00003D1BDE8084003F0F7BB002008BD022076
:101E000000F0C2BC032000F0BFBC042000F0CBBC3B
:101E10000146042000F02EBD01460F2000F038BD21
:101E20000146132000F034BD0020FFF7F9BF08B5CC
:101E30000020FFF7F1FFFFF7F7FF08BD07B500200F
:101E400000F036FD4FF6E561002000F013FD0021A3
:101E5000022000F001FD01211C4B0320197000F04D
:101E6000FBFC4FF4A051042000F004FD00210620EB
:101E700000F0F2FC0021072000F0EEFC0021082019
:101E800000F006FD0021232000F0E6FC00210C20DC
:101E900000F0E2FC00210D2000F0DEFC0023002217
:101EA0006846CDE900231721082200F0BBFC002181
:101EB0001F2000F0EDFC002003F0ABFB03F0D3FB90
:101EC000FFF7B5FF03B05DF804FB00BF2E12002042
:101ED000FFF7B4BF01460E2000F0BEBC73B503F09F
:101EE00049FF0B4D04462B8883420ED00026ADF8E7
:101EF000006003F03FFFADF80460ADF8020002ABF4
:101F000013E90300FEF718FF2C8002B070BD00BF7C
:101F10000413002008B503F0F5FE024B1860024BD5
:101F2000186008BDFC1200200013002008B503F063
:101F3000E9FE024B1860024B186008BDFC1200203D
:101F4000F81200207047704708B5FFF7FCFF08BD86
:101F5000704708B5FFF7FCFF08BD0120704700007F
:101F600008B5054800F0C2FA00F0A0FCFFF7EAFF50
:101F7000FFF7EAFF08BD00BFE52400080120704715
:101F800008B5FFF7FBFF08BD7047704708B5FFF7BE
:101F9000FBFFFFF7FAFF08BD08B5FFF722FF08B9FE
:101FA000FFF796FFFFF72BFF084B1870FFF72DFF89
:101FB000074B188002F050FEFFF724FFFFF747FAA7
:101FC000044B1878BDE80840FFF75DBA12130020F3
:101FD000742900203212002008B503F091FE03F0AE
:101FE00052FB02F0B3FC00F035FBFFF7D5FFFEF724
:101FF0007CFE02F0CFF8064B1A7842F080021A708D
:102000001888FFF705FF02F051FEFFF7A2FF08BD99
:10201000742900202DE9F04F85B0FFF79EFF78B9B5
:10202000FFF75CFF02F04FFE02F022F802F0E4FC42
:1020300008B1FFF77BFF05B0BDE8F04FFEF766BEC5
:10204000DFF8C08000F020FB46460024E0B236F8FE
:10205000025B00F05BFA052C50D0854204F10104CC
:10206000F4D0294B1B789B0701D500F055FAFFF7F8
:1020700087FF002701905FFA87F9484600F046FA8B
:1020800038F8026B0546B04232D000244FF0010A06
:102090004640B6B216EA0A0F20D0019B15EA0A0F95
:1020A00014BF4FF0010B4FF0000B93B18DF80840B7
:1020B0008DF8099003F05EFE4FF00103ADF80A00C1
:1020C0008DF80C308DF80DB002AB93E80300FEF7ED
:1020D00033FE5A462146484601F04CFA0134E4B238
:1020E0004FEA4A03102C1FFA83FAD3D128F8025C76
:1020F0000137062FBFD1FFF70DFF93E78542B0D11F
:102100008EE700BF061300201213002038B500F040
:1021100001F9B0F5A44F044643D2B0F5A04F80F0CA
:10212000AC80DF2816D8CC2800F28A80A7280AD8ED
:10213000A42878D8012804D0031F9BB2A12B28BF64
:102140000024204638BDA0F1A8039BB21A2B6FD9FA
:102150000024F6E7B0F5804F19D2B0F5005F80F0AB
:102160009C80E728EDD9A0F580739BB2B3F5F85FAA
:10217000EED2C0F3072000F053F90546E0B200F0BC
:10218000C9F82D0205F4F8550543ACB2D9E7C0B241
:1021900000F0C0F804F47064044344F42044A4B292
:1021A000CFE7B0F5A54F21D245F25F23984251D831
:1021B00045F23F2398420ED845F21F23984242D859
:1021C0000124C0F3850300F00300844044EA431473
:1021D00044F40D44E3E70124C0F3820300F003005C
:1021E000844044EA431444F40C44D8E745F2BF2346
:1021F00098420AD845F29F23984200F01F0034D835
:102200004AF2F40444EA00249BE7A0F5A543403BCE
:102210009BB21F2B9CD8040204F4F85444F42044CD
:1022200044F0F0048DE7A0F1240444F48044B6E7C0
:10223000224B5834E4B233F8144044F4884480E725
:1022400040F4A044ABE74AF2F10300F01F0443EA74
:10225000042476E70124C0F3820300F003008440E5
:1022600044EA431444F40A4499E700F0D9F804021C
:1022700004F4F85444F4005463E700F01F0000F045
:10228000CFF8C306C4F3431448BF0001240200B2D0
:10229000204340F4104084B253E7C0F3042000F020
:1022A000BFF80546E0B200F035F82D0205F4F85508
:1022B00045EA000444F4005471E700BFEE920008C0
:1022C00082B0ADF80410CBB2C1F30721052905D8BF
:1022D0000F2B11D81A4602B002F0CBBDFD2905D153
:1022E00053B90122194602B002F0D0BDFC2903D136
:1022F00013B91A461946F6E7002002B0704707B531
:10230000ADF804100199FFF7DBFF03B05DF804EBB3
:10231000FFF7FCBEE72850D8DF2807D8312865D062
:102320000ED8292858D02A2867D07047A0F1E0039A
:10233000072B42D8DFE803F01541242933413D4201
:10234000392804D0822802D0352840D07047334B3A
:102350001A7892075CD15B7813F0080F18BF292018
:1023600070472E4A1378D9074ED4527812F0010FD5
:1023700023D013F0100F08BFE32018BF00207047D0
:10238000264B1B7813F0040FF2E7244A1378590701
:102390003CD45278D2073BD413F0100FEDE71F4B1B
:1023A0005A78910709D51B7813F0100F08BFE72062
:1023B000E3E71A4B1B781A07F6D47047174A1378CD
:1023C000190727D452789107E6D5E4207047134BBC
:1023D0001B7813F0200FC1E7104B1A7892061BD41C
:1023E0005B7813F0080F18BF392070470B4B1B7830
:1023F00013F0400F18BF2A207047084B1B7813F0CA
:10240000400F18BF3120704739207047E2207047D5
:10241000E0207047E62070473520CEE77429002081
:1024200010B52F4C21784B0713D500F01402A2F100
:10243000040C00F01803DCF1000242EB0C02A3F1E3
:10244000080CDCF1000343EB0C039A4218BF80F048
:102450000C000B0713D500F01402A2F1140C00F0CD
:102460001803DCF1000242EB0C02A3F1180CDCF1C2
:10247000000343EB0C039A4218BF80F00C00647811
:10248000E30713D500F0110202F1FF3C00F018033E
:10249000DCF1000242EB0C02A3F1080CDCF10003BA
:1024A00043EB0C039A4218BF80F00900A30711D533
:1024B00000F0110200F01803A2F111046242A3F12E
:1024C000180C6241DCF1000343EB0C039A4218BF85
:1024D00080F00900CB0648BF00F0E70010BD00BF48
:1024E000742900200020704700207047014B1860BD
:1024F000704700BF7C0D0020704708B5FFF7FCFF58
:1025000008BD704708B5FFF7FCFF08BD014B33F865
:10251000100070478229002070474FF4076004F0D4
:1025200065BC00BF00BF00BF00BF00BF00BF00BF51
:1025300000BF00BF00BF00BF00BF00BF00BF00BFA3
:1025400000BF00BF00BF704708B5FFF7E6FF08BD3A
:1025500008B5302383F31188012100F00F0399405F
:10256000202220F00F0005F050FD002383F3118896
:1025700008BD000038B510240B4D55F8040B421C63
:1025800001D0FFF7E5FF013C14F0FF04F5D106246C
:10259000064D55F8040B431C01D0FFF7D9FF013C51
:1025A00014F0FF04F5D138BD2493000864930008AB
:1025B0002DE9F843DFF89480174658F82130054696
:1025C0005A1C0E4640D0302282F31188012223F09B
:1025D0000F0903F00F0302FA03F4214648462404CE
:1025E00005F013FDC9F81840002484F31188FFF7A3
:1025F00098FF6FEA070C1648AA1E0A3550F8041B0C
:1026000032F8023FB1F1FF3F1AD021F00F0EDEF891
:1026100010E001F00F012EFA01F1C90710D40124D6
:102620003B4313809542E9D158F82600431C01D062
:10263000FFF78EFF21463046BDE8F843FFF784BF21
:102640000CEA03031380EDE7BDE8F8832493000848
:102650006493000810B50C24FFF78CFF224600217C
:10266000074806F0DFFB22460021064806F0DAFBA9
:10267000062000F039F8BDE81040FFF73EBF00BF6C
:10268000822900207629002030B50024012585B05C
:102690000194029403942A46E1B201A80134FFF7A1
:1026A00087FF6D00102CADB2F5D10C220C4801A9AA
:1026B00006F09AFB002814BF0124002404D00C2249
:1026C000074801A906F0A0FB234606220549044855
:1026D00000F00CF80446FFF715FF204605B030BDAA
:1026E0007629002082290020704700002DE9F84358
:1026F00007460E4615461C46DFF850804BB10123B5
:1027000088F8003003F0FEFA114B18600020BDE895
:10271000F88398F80090B9F1000FF7D00C4B1868C7
:1027200003F034FB0428F1D96D002A4639463046BF
:1027300006F05AFB28B12A463946304606F064FBBB
:102740004C460023204688F80030E0E713130020B1
:1027500014130020FFF75EBC08B503F097FA03F0EE
:10276000D3FEFFF7FDFB03F0D1FEFFF735FC03F0CE
:10277000E3FE03F0E7FEFFF7EDFF03F0FBFE03F0DF
:102780009DFEFFF703FCF4E7002307B50146012295
:102790000DF107008DF8073000F08CF89DF8070068
:1027A00003B05DF804FB002307B5014602220DF1DA
:1027B0000600ADF8063000F07DF8BDF8060003B065
:1027C0005DF804FB07B50422002301460DEB02006F
:1027D000019300F06FF8019803B05DF804FB07B5B2
:1027E00001228DF8071001460DF1070000F067F88F
:1027F00003B05DF804FB07B50222ADF806100146F0
:102800000DF1060000F05BF803B05DF804FB07B5BE
:102810000422019101460DEB020000F050F803B0D4
:102820005DF804FBF8B505461446D31D23F00703F5
:1028300000AFADEB030D68460E4600F03BF82246B4
:102840006946284606F0D0FA20B12246314628468D
:1028500000F035F8BD46F8BD38B50C460546FFF723
:1028600093FFA04205D021462846BDE83840FFF737
:10287000B6BF38BD38B50C460546FFF794FFA042F9
:1028800005D021462846BDE83840FFF7B4BF38BD23
:1028900038B50C460546FFF795FFA04205D0214606
:1028A0002846BDE83840FFF7B2BF38BD00F014B984
:1028B00000F038B80B460146184600F04DB80B46FC
:1028C0000146184600F09CB808B5064B4FF48052FC
:1028D0001846002106F0A6FA41F2080200F58053DE
:1028E0001A6008BD1813002010B5054C23792BB9C8
:1028F00000F06BF908B10120207110BD0220FCE747
:102900001823002010B5064C237933B100F067F985
:1029100010B100230120237110BD0220FCE700BF8D
:102920001823002038B5FFF7DFFF044618B9FFF77A
:10293000E9FF204638BD00F04AF90546FFF7C4FF1D
:10294000012C06D1FFF7DEFF00280CBF002505F0A3
:1029500001052C46EDE7000008B503460846991826
:10296000B1F5805F05D80449194406F04DFA0120FD
:1029700008BD0020FCE700BF181300200000000085
:1029800038B500F024F9044608B3FFF7ADFF4FF463
:10299000007205461249002000F03EF970B10EA306
:1029A000D3E900234FF480510D4801F091FF024616
:1029B0000B464FF4805000F061F950B90024012D0E
:1029C00001D1FFF79FFF41F20802064B1A60204633
:1029D00038BD0224F3E700BF25232284E49CF2CB18
:1029E0001813002018230020044B1B68B3F5005F68
:1029F00001D3FFF7C5BF0120704700BF1823002097
:102A00008318B3F5805F2DE9F34705460F46164658
:102A10001AD8304C00EB04084146384606F0E4F979
:102A2000002854D032463946404606F0EDF9FFF70B
:102A30005BFF814630B104F580583EB9FFF7D4FF03
:102A4000044639E0FFF75EFF00243CE0052EB24665
:102A500028BF4FF0050A052200210DF1030006F002
:102A6000E1F9C5F3024343EACA03524639468DF8F9
:102A700000300DF103002B0A8DF801308DF8025063
:102A800006F0C2F9DDE90023D8F8000000F0F6F8FE
:102A9000044688B1D8F800300833C8F80030FFF792
:102AA000A3FF0128044604D1A6EB0A065544574467
:102AB000C3E7022818BF0024B9F1010F03D1FFF7C3
:102AC00021FF0028C0D0204602B0BDE8F0870124D5
:102AD000F9E700BF181300207FB5FFF7F5FE00F0FF
:102AE0006FF8044610B9FFF7EFFE5BE04FF4007299
:102AF0000020314900F075F82F4D044610B9FFF75A
:102B0000E3FEF0E72AA3D3E900234FF480512846DF
:102B100001F0DEFE06460C464FF4805002A900F09C
:102B200078F8DDE902239C4208BF964201D0FFF706
:102B3000CBFE41F208046946204600F06AF80346DD
:102B400040B3DDE9000350EA030220D010F0C00FCB
:102B5000CDE9020304F10804C1B2C0F3811318D116
:102B60000A0400F47F46C0F3074002F4E022304339
:102B70001043CA0800EBD101B1F5805F0AD80DF10E
:102B80000B01284406F040F9B4F5005FD3D10123CE
:102B900000E00023094A14603BB9FFF7F1FE044648
:102BA0000028A0D0204604B070BDFFF71DFFF6E757
:102BB00025232284E49CF2CB181300201823002044
:102BC00008B500F0DDF8012008BD0120704708B508
:102BD000002000F0D7F8B0FA80F0400908BD0120CD
:102BE000704738B5D5002A460C4600F0E8F818B909
:102BF00021462544A94203D1B0FA80F0400938BDEE
:102C0000D1E90023D243DB4341F8082B41F8043CCF
:102C1000F0E70122FFF7E5BF2DE9F04706468846B9
:102C200015460027C0B0202DA94628BF4FF0200927
:102C30004FEAC90A5246684608EBC70106F0E4F8B5
:102C400000246B464C450DD152466946304600F093
:102C5000D4F888B92D1B56442744E4D1012040B054
:102C6000BDE8F087D3E90001C043C94343F8080B2E
:102C700043F8041C0134E5E70020F0E707B5CDE98F
:102C8000002369460122FFF7C7FF03B05DF804FB8C
:102C9000002208231146014803F074B90C080040D3
:102CA00008B5FFF7F5FF30B1062003F0ABF903F0EC
:102CB000E1F9002008BD4FF0FF30FBE7F7B51F46F4
:102CC0008DF807100B0A090C064615468DF804000E
:102CD0008DF806308DF80510FFF7DAFFE8B1042112
:102CE0000DEB010003F0B2F9044648B945B1022EDC
:102CF0000BD0032E0ED12846B9B203F0B1F9044629
:102D000003F0B8F9204603B0F0BD2846B9B203F08D
:102D10009DF9F4E74FF0FF34F2E74FF0FF34F1E7AD
:102D200010B5FFF7B5FF88B1052003F06BF903F08C
:102D30007BF9044603F09EF9002C05DB14F0010F2B
:102D400014BF6FF003040024204610BD4FF0FF3481
:102D5000FAE710B5044602F0D5FF4FF47A7303FB8F
:102D6000040402F0CFFFA04204D2FFF7D9FF031DF5
:102D7000F7D010BD6FF00100FBE70120FFF7E9BFBE
:102D800003F0C6B800F58033B3F5002F10B5044644
:102D900012D283B283B9FFF7F0FF78B9FFF780FF53
:102DA00060B9034602462146D820FFF787FF28B9BD
:102DB000BDE81040FFF7E1BF4FF0FF3010BD2DE937
:102DC000F04107460D461646FFF7D7FF04468046FA
:102DD00038B132460021284606F024F82046BDE8E6
:102DE000F08133462A4639460320FFF767FF044641
:102DF0000028F3D032464146EDE72DE9F041064682
:102E00000F46154675B9FFF7B8FF044638B9FFF706
:102E10003FFF30B3042003F0F5F803F02BF9204610
:102E2000BDE8F0815FFA86F8C8F58078A84528BF2C
:102E3000A846FFF7A2FF04460028F0D1FFF730FFB5
:102E400004460028EBD143463A4631460220FFF7BC
:102E500035FF04460028E2D147444644A5EB080567
:102E6000D0E74FF0FF34DAE730B510F47F4F85B08C
:102E70000190C0F30725C0F3074217D109B1304BC9
:102E80009A5C8DF80C208DF80D208DF80E20002016
:102E90009DF80C3063F307009DF80D3063F30F20AD
:102EA0009DF80E3063F3174005B030BD9DF8044027
:102EB00061B3234B9A5C0620FF236043591BB0FB90
:102EC000F3F06FF05403434303EB440303EB43037A
:102ED000DBB203FB05F4C3F1FF036B4324121B12A7
:102EE000C4F1FF04C3F1FF03514354435343C1F3FF
:102EF0000721C4F30724C3F30723D2B2062819D845
:102F0000DFE800F00608110F1418060092B2D2E7AD
:102F100014461A468DF80C208DF80D408DF80E10D1
:102F2000B5E7134622460C461946F3E71C461346FE
:102F30000A46F9E713460A4621461C46EAE700BF5F
:102F4000A3930008012184B004B0FFF78DBF0128CE
:102F500030B501D8C0B230BDB0F5F75F88BFFF22F1
:102F60004FF001049EBF42090832D2B2A318591093
:102F7000C3F34705C3F34F035B439BB2834205D9B9
:102F80006A1ED2B29442F1D9601EE3E7FF2902D053
:102F90006C1CE4B2F6E70846DDE7000010F04003E1
:102FA00016BFC2430246D2B210B502F00F0103B100
:102FB0000131094CC2F3011204EB42035B7859431F
:102FC00014F81230020603EB2113DBB244BF5B425C
:102FD000DBB283F0800010BD7C93000884B00190C8
:102FE00000208DF80420019BDAB262F30700C3F3DE
:102FF000072262F30F20C3F3074363F3174004B0C3
:103000007047000084B0019000200A4B303113F863
:1030100011309B1A8DF80430019BDAB262F307007D
:10302000C3F3072262F30F20C3F3074363F3174090
:1030300004B07047000C002084B001900B4800EBF6
:10304000410090F8613000209B1A8DF80430019BFC
:10305000DAB262F30700C3F3072262F30F20C3F36F
:10306000074363F3174004B0704700BF000C002013
:1030700030B5134D85B03031019005EB41035B78DD
:10308000C0B2A3F1200464B2002CBCBFC3F1200382
:103090005CB215F811309A1A224410448DF80400DD
:1030A0000020019BDAB262F30700C3F3072262F348
:1030B0000F20C3F3074363F3174005B030BD00BFD3
:1030C000000C002084B0019000209DF8102003EB3C
:1030D000430302EB53038DF80430019BDAB262F331
:1030E0000700C3F3072262F30F20C3F3074363F320
:1030F000174004B070471FB592B2019048B2002843
:1031000002FB02F2BCBF494248B2C0F1380000FBEA
:10311000002080B21C46FFF71AFF00EB4000044479
:1031200000208DF80440019BDAB262F30700C3F37C
:10313000072262F30F20C3F3074363F3174004B081
:1031400010BD00001FB5124C3033019004EB43005A
:1031500014F813304078703B4B43203802FB0032A8
:1031600000209DF80410002AB8BF7F3201EBE21264
:103170008DF80420019BDAB262F30700C3F3072243
:1031800062F30F20C3F3074363F3174004B010BD8D
:10319000000C00201FB5124C3033019004EB4300AB
:1031A00014F813304078703B4B43203802FB003258
:1031B00000209DF80410002AB8BF3F3201EBA21294
:1031C0008DF80420019BDAB262F30700C3F30722F3
:1031D00062F30F20C3F3074363F3174004B010BD3D
:1031E000000C0020C94384B00190C9B2C0F307406D
:1031F0004143002009128DF80610019BDAB262F3F8
:103200000700C3F3072262F30F20C3F3074363F3FE
:10321000174004B07047C94384B0C1F385010190E1
:10322000014400208DF80410019BDAB262F307001C
:10323000C3F3072262F30F20C3F3074363F317407E
:1032400004B0704784B0BDF81020C0F30741D31A12
:103250009BB2FF2B28BFFF23DBB2DA43D2B211446B
:10326000FF2928BFFF210190034400208DF804307E
:103270008DF80610019BDAB262F30700C3F3072250
:1032800062F30F20C3F3074363F3174004B07047A2
:10329000024B1A7810431870704700BF212300209A
:1032A000012310B5044C0822172104482370FFF7AE
:1032B00001FB0023237010BD212300209029002052
:1032C00010B5044620B90029ACBF0020802010BDF5
:1032D00080EAE073A3EBE0731BB2002903EB010269
:1032E000A7BFCB1A5B015B1A5201ABBF93FBF2F392
:1032F00092FBF3F3C3F12003C3F160035BB2D8B2D6
:10330000002CBCBF4042C0B2E1E71FB5019010469F
:103310001C46FFF7D5FF20448DF804000020019BD8
:10332000DAB262F30700C3F3072262F30F20C3F39C
:10333000074363F3174004B010BD1FB59DF8184054
:10334000019010461C1BFFF7BBFFE4B2241A0020BB
:103350008DF80440019BDAB262F30700C3F3072241
:1033600062F30F20C3F3074363F3174004B010BDAB
:10337000082208B517210348FFF754FA0022024B30
:103380001A7008BD902900202123002084B004B0C9
:10339000FFF7D8BD2DE9F74F314D074605EB001378
:1033A0005A5C8846FF2A4FEA001626D00024DFF830
:1033B000B4B05E440E444FF0000905EB04130BEB70
:1033C000041A13F801CBBCF1FF0F0CD0E1B28F420D
:1033D00016D15FFA89F1884512D131782031FF2961
:1033E00028BFFF21317009F10109B9F1100F0AF16D
:1033F000010AE6D10134062CDDD103B0BDE8F08F1F
:1034000002F1300E0CF1300C15F81C0015F81E10EE
:1034100005EB4C0C05EB4E0E091A9CF801C09EF80A
:1034200001000193A0EB0C0080B2404301FB0100BE
:1034300080B20092FFF78BFDDDE900232828D2D867
:103440009AF80010C0F12800C0B2102894BF0918E3
:103450001031FF2928BFFF218AF80010C3E700BF01
:10346000000C002022230020FFF782BF10B5084C7B
:1034700011232046032200F8013B064905F0C4FC55
:103480004FF67F73A380BDE81040FFF771BF00BF08
:1034900090290020348E00080020704770B5064641
:1034A0000D461446FFF7F8FF044B03EB06135B5D74
:1034B000FF2B1EBF23540130C0B270BD000C002092
:1034C000014BDB68184700BF8493000810B4024C1E
:1034D0006468A44610BC60478493000837B51F4B4E
:1034E0000446034493F81831194234D01C4B9A789F
:1034F00059788DF80120DA788DF80220194A13885E
:1035000003EB432003EB80034FF4B47003F55853EF
:1035100019339BB2138001F1B402B2FBF0F500FB4A
:103520001522521A48BF033203EB132303F003039F
:10353000921002FB03128DF800200098FFF726FF7F
:10354000C0F30743C2B2C0F30721204603B0BDE871
:103550003040FFF7BBBF03B030BD00BF000C002000
:1035600090290020860D0020014B9B68184700BF62
:10357000849300082DE9F04F85B005460E46019270
:10358000FEF7FCFC0746002856D0019B002B56D1C5
:103590003146284602AAFFF781FF0446DFF8D880AB
:1035A00098F800302344082B23DDC4F10809611C7E
:1035B0004A46414408F1010005F026FC04F10901E6
:1035C0004A46414408F1090005F01EFC08EB44019D
:1035D0004FEA4902193108F1190005F015FC04F110
:1035E00011014A46414408F1110005F00DFC88F82C
:1035F000009000221146914698F800C0DFF878E06C
:10360000DFF878800DF1080BD0B200EB0C03DBB2D1
:103610008442009315D86444E4B209B1164B1C707F
:10362000019B4BB9164B1B7803F0FC03382B03D1DD
:1036300031462846FFF7AEFE05B0BDE8F08F002406
:10364000ACE71BF801AB009B0AF130010EEB030065
:1036500018F8113008EB41014370009B49780C3396
:103660000EEB4303417280F811A0394683F80190B4
:1036700083F802900132C7E784230020000C002069
:10368000902900200120704708B5FFF7FBFF08BD17
:1036900000EBC00300EB4300C3B2002003F11302B0
:1036A000D2B25C2A63F30700134628BF5C2382B0C2
:1036B00063F30F2002B070472DE9F04F074689B041
:1036C00000780291FFF7E4FFDFF8B8802E4BC4B218
:1036D0001D8898F80430C0F3072B5B085D432B4B23
:1036E000C5F3072503EB440603F58C79E3B29B454C
:1036F00007D8BBF15B0F8CBF0020012009B0BDE8EB
:10370000F08F14F809207B781A4238D096F861209F
:1037100096F86010203A92B202FB02F070391FFA5C
:1037200081FA0AFB0A0080B20392FFF710FC98F8B6
:1037300001C0034698F8020098F803E0039A4CEAA7
:10374000002012B20FFA8AF1DDF808C040EA0E40FC
:103750000095E047C0F307238DF81C00C0F3074035
:103760008DF81D308DF81E000798FFF70FFEC0F38F
:103770000743C2B2C0F307212046FFF7A7FE023677
:103780000134B3E79029002098290020000C002084
:103790000149FFF791BF00BFC53000080149FFF79D
:1037A0008BBF00BF3B3300082DE9F04F074685B0C3
:1037B0000078FFF76DFF8A46DFF89480254B98F874
:1037C00004501B886D085D43234BC4B2C0F3072B24
:1037D000C5F3072503EB440603F58C79E3B29B455B
:1037E00007D8BBF15B0F8CBF0020012005B0BDE8FE
:1037F000F08F14F809207B781A4226D098F802300E
:1038000098F8010098F803C096F8612096F86010C7
:1038100040EA0320203A70392B4640EA0C40D0475A
:10382000C0F307238DF80C00C0F307408DF80D306E
:103830008DF80E000398FFF7A9FDC0F30743C2B24D
:10384000C0F307212046FFF741FE02360134C5E7E9
:103850009029002098290020000C00200149FFF742
:10386000A3BF00BFF73000080149FFF79DBF00BFAD
:103870000B3300082DE9FF4706460078FFF708FFE5
:1038800088461F4F1F4A3D79DFF87CA0AB0815889A
:10389000C0F3072903FB0555C4B2C5F30725E1B200
:1038A000894507D8B9F15B0F8CBF0020012004B017
:1038B000BDE8F08714F80A2073781A421DD0B87852
:1038C0007B782A4643EA0023F87843EA0040C04761
:1038D000C0F307238DF80C00C0F307408DF80D30BE
:1038E0008DF80E000398FFF751FDC0F30743C2B2F5
:1038F000C0F307212046FFF7E9FD0134CFE700BF01
:103900009029002098290020180D00200149FFF778
:10391000B1BF00BFDD2F00080149FFF7ABBF00BFFB
:10392000053000080149FFF7A5BF00BF3930000886
:103930000149FFF79FBF00BF713000082DE9F04F2C
:10394000814689B000780391FFF7A2FEDFF8A8A0B6
:103950002A4B9AF804401B88A4085C43C4F307244C
:10396000C6B2C0F3072504F14000C0B2FFF716FB52
:10397000A0F180072046FFF711FBDFF884B0A0F12B
:1039800080087FB24FFA88F8F3B29D4206D85B2DCB
:103990008CBF0020012009B0BDE8F08F16F80B1095
:1039A00099F80120114224D09AF802209AF80100D7
:1039B0009AF803C040EA02203946424640EA0C40E9
:1039C0000094DDF80CC0E047C0F307238DF81C001D
:1039D000C0F307408DF81D308DF81E000798FFF7E3
:1039E000D5FCC0F30743C2B2C0F307213046FFF74E
:1039F0006DFD0136C8E700BF9029002098290020FE
:103A0000180D00200149FFF799BF00BF453100089C
:103A10000149FFF793BF00BF953100082DE9F04F32
:103A2000324D074685B00078FFF732FE2E794FF60B
:103A3000FF730136FF2E28BFFF268846B3FBF6F63C
:103A4000DFF8ACB0DFF8ACA0C0F30729C4B2E0B235
:103A5000814507D8B9F15B0F8CBF0020012005B06C
:103A6000BDE8F08F14F80B207B781A422CD09AF81E
:103A700000302149013B5BB21A0627D5324629792D
:103A8000A8780131FF2928BFFF216B78514343EA11
:103A90000023E878C1F30F2143EA0040C047C0F398
:103AA00007238DF80C00C0F307408DF80D308DF81A
:103AB0000E000398FFF76AFCC0F30743C2B2C0F3DD
:103AC00007212046FFF702FD0134C0E75A5C82421D
:103AD0000AD103F10C020AEB420292F801C092787B
:103AE0004CEA0222B242CAD3013BC5E7902900202A
:103AF000180D00209C290020AD2900200149FFF766
:103B00008DBF00BFE53100080149FFF787BF00BF47
:103B1000173200082DE9F04F82468DB008780492E4
:103B2000FFF7B6FD8B46424BC4B21B78C0F30729A2
:103B30000393404B03EB440703F58C730593E3B207
:103B4000994507D8B9F15B0F8CBF002001200DB05B
:103B5000BDE8F08F059BE25C9BF801301A4220D053
:103B6000D0460025032234490AA805F04DF9304B10
:103B70000AF101061E44039A5FFA88F39A4213D8A9
:103B80002E4BD87845432D128DF82A500A98FFF70E
:103B9000FDFBC0F30743C2B2C0F307212046FFF785
:103BA00095FC01340237CAE716F8013B97F860101C
:103BB00097F86120C91AF37989B2D21A92B202FB3E
:103BC00002F001FB010080B207920691FFF7BFF9F6
:103BD0001A4A08F10C0C92F804E0154A0EF1010E95
:103BE000BEF1FF0F28BF4FF0FF0E02EB4C0C034657
:103BF0009CF801009CF802C0079A40EA0C200EFBDA
:103C000000F006998DF82A50C0F30F20049D009013
:103C100012B20A9809B2A847C0F307238DF828000A
:103C20008DF82930C0F3074508F10108A3E700BF6C
:103C30009C290020000C00209129002090290020C0
:103C40000146024A0020FFF765BF00BF4532000869
:103C5000F7B506460078FFF71BFD184AC5B2537842
:103C6000C0F307249078164F43EA0023D07843EA44
:103C70000040FFF78BFBC0F307238DF80530C0F33E
:103C800007438DF804008DF80630EBB29C4205D84E
:103C90005B2C8CBF0020012003B0F0BDEA5D73787F
:103CA0001A4208D028469DF806309DF804209DF859
:103CB0000510FFF70BFC0135E7E700BF9029002056
:103CC000180D00202DE9FF4106460078FFF7E0FCC3
:103CD000DFF89480032208F10101C5B2C0F3072484
:103CE00002A805F091F8214B98F80370188898F80D
:103CF0000430DB085843C0F30720FFF74FF9A0F169
:103D000080035BB2002BBCBFC0F1800043B25B00FC
:103D1000DBB27B431B128DF80A300298FFF736FBAB
:103D2000134FC0F307238DF80C00C0F307408DF844
:103D30000D308DF80E00EBB29C4206D85B2C8CBF88
:103D40000020012004B0BDE8F081EA5D73781A42DA
:103D500008D028469DF80E309DF80C209DF80D10D7
:103D6000FFF7B4FB0135E6E79029002098290020F1
:103D7000180D002073B505460078FFF789FCAB7875
:103D8000ADF80400C0F307245BBB1B4B1B4A1B7937
:103D900012881033FF2B28BFFF2353430A22C3F39B
:103DA0000F23B3FBF2F102FB11339BB29BB95C20F2
:103DB000134A138803EB432103EB810303F55853A4
:103DC00019339BB2138003EB1323DBB2584369789A
:103DD000000AFFF783FB5B2C8CBF0020012002B0A0
:103DE00070BD9DF80460B442F5DD30466978FFF798
:103DF00075FB0136F7E700BF9029002098290020C5
:103E0000860D00202DE9F04F804687B00078FFF73F
:103E10003FFCC3B2009398F80230C0F307264BB1C1
:103E2000002211461046FFF79FFB602200213C480C
:103E300004F0F8FF98F800306BB93A4C208801F094
:103E40009EFF18288CBF01220022374B1A7002D91E
:103E500001F090FF20800025DFF8D0B02C46A94665
:103E600003E0B9F1120F53D8002431494FEA051A83
:103E700001EB05131A1901921B5D009A93423FD37F
:103E8000B3423DD20B4493F8182198F8013009F160
:103E900001091A425FFA89F932D0214B9BF80320BD
:103EA0009A441AF80470A7F1550323EAE373C3F1A7
:103EB000AA038DF810309BF802308DF8113007F10D
:103EC000AA03FF2B28BFFF2303EB43030233DBB21C
:103ED00053431B128DF812300498FFF757FAC0F3C2
:103EE0000743C2B2C0F3072101980078FFF7EEFA4A
:103EF0000D4B1B7823B1013F27EAE7770AF80470DE
:103F00000134E4B2102CB0D10135EDB2062DA8D1A8
:103F10005B2E8CBF0020012007B0BDE8F08F00BFF2
:103F2000222300208223002020230020902900202B
:103F3000000C002038B5414B05461B78404A8342AF
:103F400020D140491378097803F003035B1A18BFA6
:103F500001233D4CA370537962789A4205D0002228
:103F6000114610466370FFF7FFFA112D13D8DFE8F2
:103F700005F00B1424282C3034383C4044484C5075
:103F800054585C600123E4E7A07848B10022114650
:103F90001046FFF7E9FA002002E02B48FFF758FE31
:103FA00023780133237038B90222284B1A70A27883
:103FB00012B90DB903221A7038BD2348FFF782FEEB
:103FC000EEE72148FFF7A2FCEAE71F48FFF7A4FC51
:103FD000E6E71D48FFF7A6FCE2E71B48FFF7A8FC51
:103FE000DEE71948FFF7D4FBDAE71748FFF736FC9E
:103FF000D6E71548FFF738FCD2E71348FFF7CEFBAA
:10400000CEE71148FFF7FEFCCAE70F48FFF700FDB7
:10401000C6E70D48FFF7AEFEC2E70B48FFF7F2FE1A
:10402000BEE70948FFF76AFDBAE70748FFF76CFDEE
:10403000B6E70548FFF704FEB2E700BF830D002096
:1040400090290020840D0020800D0020850D002087
:104050000120704707B500780138C0B2FFF718FBA0
:10406000C0F30721C0B2FCF7C3FC03B05DF804FB4A
:104070002DE9F0413C4C3D4E206801F087FE05469D
:1040800001F040FE2060002496F800E0A44671464E
:10409000C5F57F47FF37E3B29E4514D8BCF1000F4A
:1040A00000D03170324B1B782BBB324B1B7813F096
:1040B000030500D09D08304C2378032B29D8DFE876
:1040C00003F01C2A394504F10C0206EB4202537836
:1040D00092F80280013443EA08239F4229BF5B190A
:1040E00001F1FF315370C3F307233ABF4FF0010CC6
:1040F000C9B29370CFE70025DDE700221F4B1B49B3
:104100001A701F4B292218601E4804F07DFE0123FF
:104110002370BDE8F0812846FFF70CFF002DF8D092
:104120002378022B01D1FFF7AFFABDE8F041134825
:10413000FFF790BF144B154A1D700E4B1B78C3F34D
:1041400001031370FFF7BCF90323E1E7104B1B7861
:104150000BB1FFF70DF90A4B186801F017FE0F2895
:10416000D7D90023D4E700BFB02300208423002048
:10417000B423002090290020850D0020800D002010
:10418000982900209C290020830D0020840D002008
:104190002123002010B500240E4B1B6898470E48C1
:1041A0001022FF2100F8194B04F03CFE0B481022AE
:1041B000FF2100F8194B04F035FEFFF771F8084BAA
:1041C0001B7813F0FC0F03D1BDE81040FFF74EB988
:1041D00010BD00BF849300089C2900208423002088
:1041E0009029002070B504460A4E88B135787DB913
:1041F0002846FFF79FFE084B084A1D70084B1B78A6
:10420000C3F301031370FFF75BF90322054B1A7028
:10421000347070BDB4230020830D0020840D002075
:1042200090290020850D0020044A137883F00103B3
:1042300013700022024B1A70FFF72AB89029002051
:10424000850D00200020FFF7EFBF0120FFF7ECBF36
:10425000064A137813F0030304BF05490B700121CC
:10426000137861F301031370704700BF9029002099
:10427000850D0020054B1A7892071EBF0021044AC5
:1042800011701A786FF301021A707047902900209C
:10429000850D0020024B187800F00300704700BF26
:1042A0009029002010B40B4C024623780846990749
:1042B0000ED04AB9012262F3870300222370064B15
:1042C0001A7010BCFEF7E4BF112A88BF1122F2E772
:1042D00010BC704790290020850D00200021FFF7B9
:1042E000E1BF0121FFF7DEBF014B1878800870475E
:1042F00090290020054B01461B789B080133122BA7
:1043000034BF18460120FFF7CDBF00BF9029002021
:104310000120FFF7EFBF0000064B01461B78C3F3F7
:104320008503013B13F0FF0314BF18461120FFF76C
:10433000B9BF00BF902900200120FFF7EDBF0000AA
:1043400030B4084C0546184623789B0708D0C82A85
:1043500028BFC8226570A170E27030BCFEF798BF1C
:1043600030BC7047902900200023FFF7E9BF000010
:10437000014B5878704700BF90290020014B987876
:10438000704700BF90290020014BD878704700BFCC
:1043900090290020034903464878CA780830897874
:1043A000FFF7CEBF902900200120FFF7F3BF0000E8
:1043B000054910B44C780346083CCA78A0B2897805
:1043C00010BCFFF7BDBF00BF902900200120FFF700
:1043D000EFBF000010B4064C0346A178E27810311C
:1043E000FF2928BFFF216078C9B210BCFFF7A8BF22
:1043F000902900200120FFF7EDBF000010B4064C0B
:104400000346A178E278103921EAE1716078C9B2F7
:1044100010BCFFF795BF00BF902900200120FFF7D7
:10442000EDBF000010B4064C0346E278A1781032CC
:10443000FF2A28BFFF226078D2B210BCFFF780BFEE
:10444000902900200120FFF7EDBF000010B4064CBA
:104450000346E278A178103A22EAE2726078D2B29A
:1044600010BCFFF76DBF00BF902900200120FFF7AF
:10447000EDBF0000024B18710020FEF709BF00BF1E
:1044800090290020014B1879704700BF9029002027
:10449000044A13791033FF2B28BFFF231371FEF753
:1044A000F7BE00BF902900200120FFF7F1BF0000F8
:1044B000034A1379103B23EAE3731371FEF7E8BE56
:1044C000902900200120FFF7F3BF0000014B58792D
:1044D000704700BF902900201FB5084B8DF80F20B2
:1044E000185C6423400000930DF10F02012300F0DB
:1044F000FE0001F0C5FC05B05DF804FBA1930008C7
:104500000A46FD21FFF7E8BFF7B5DA220024642749
:104510000A4D0B4B02FB00551E5C7600F6B221469D
:1045200010342A46102330460097E4B201F0A8FC6C
:10453000C02C05F11005F2D103B0F0BDB523002069
:10454000A19300087FB503210446FFF7D9FF00229D
:1045500020461146FFF7C0FFAA2213212046FFF78D
:10456000BBFF002214212046FFF7B6FF04221521CD
:104570002046FFF7B1FFC02216212046FFF7ACFF0F
:1045800000221A212046FFF7A7FF00212046FFF74F
:10459000B7FF0025E9B2002220460135FFF79CFF56
:1045A000182DF7D101212046FFF7AAFF0025E9B217
:1045B000002220460135FFF78FFF0C2DF7D1042193
:1045C0002046FFF79DFF2A46134901A804F01CFC72
:1045D000002601ADF1B2204615F8012B0136FFF798
:1045E0007BFF0C2EF6D100212046FFF789FF002526
:1045F000E9B2FF2220460135FFF76EFF182DF7D1F3
:1046000020460321FFF77CFF01220021204604B051
:10461000BDE87040FFF760BF949300085B28F0B5D9
:1046200023D8124D05EB800494F801C0A778E678F2
:10463000DA2415F8200000F003050D4804FB0504FA
:1046400014F80CE08E4506D114F807E0964502D127
:10465000A45D9C4209D0DA2404FB050000F80C108C
:10466000C2558355012380F8C030F0BD378E000855
:10467000B5230020F8B505460E461746002420460F
:104680003B46324629460134FFF7C8FF5C2CF6D181
:10469000F8BD00002DE9F0474FF0DA082A4D05EB90
:1046A000800415F82050012094F801A094F802C06D
:1046B000E678264C05F0030508FB054808EBDA0808
:1046C0000AF0070A00FA0AF04FEADC0EF70898F938
:1046D000C1900CF0070C06F0070640B251B349EA4E
:1046E0000000DA2101FB054171444FF0010E88F80A
:1046F000C1000EFA0CFC91F9C1004FFA8CFCE2B13A
:1047000040EA0C00DA2281F8C100012002FB0542D8
:1047100000FA06F63A4492F9C11076B283B13143F9
:10472000DA2303FB0544012382F8C11084F8D93051
:10473000BDE8F08729EA0000D3E720EA0C00E1E7B2
:1047400021EA0601ECE700BF378E0008B523002000
:1047500038B5DA23084C054603FB004494F8C03012
:1047600043B10121FFF7CCFE2846FFF7CDFE002321
:1047700084F8C03038BD00BFB5230020F8B5DA2476
:1047800044430E4E0746331993F8D930ABB100219C
:10479000FFF7B6FE0025C1343444294601353846BA
:1047A00014F8012BEDB2FFF797FE182DF5D1DA20A2
:1047B000002300FB076686F8D930F8BDB52300203A
:1047C00010B501F035FB0020FFF7BCFE0120FFF71C
:1047D000B9FE00240123E0B21A4619460134FFF75E
:1047E00059FF5C2CF6D10020FFF7C8FFBDE8104050
:1047F0000120FFF7C3BF08B50020FFF7A9FFBDE800
:1048000008400120FFF7A4BF00B11047084700008F
:1048100038B54C790546002C44D0FDF799F9A5F53B
:10482000F043203B00F02200142B0FD8DFE803F008
:104830000B1015181B1E2124272A2D303436380D55
:104840000D0D0D0D0D00FFF700FD0024204638BDB5
:10485000154A1649FFF7D8FFF7E7144A1249F9E756
:10486000134A1449F6E7134A1149F3E7124A134968
:10487000F0E7124A1049EDE7114A1249EAE7114AF6
:104880000F49E7E7104A1149E4E7104A0E49E1E70A
:104890000120FFF726FDD8E70220FAE70420F8E719
:1048A0000920F6E70124D1E7394300081143000845
:1048B000CD430008A94300081D440008F543000843
:1048C0006D44000845440008C5440008A944000898
:1048D000F0B545180446194610460026AC4200D3F0
:1048E000F0BD14F8012B4FEA011C424093184FEA27
:1048F000021E41EB01004CEA127C13EB0E0340EB6D
:104900000C004FEA421E9B184FEA411C41EB00008D
:104910004CEAD26C13EB0E0340EB0C004FEAC21EC4
:104920004FEAC11C17024CEA526C13EB0E034FEA1C
:10493000012140EB0C0041EA1261DA1940EB010160
:104940003944B018CAE7FDF719BB000008B50822C2
:104950000021034804F066FABDE8084000F00AB9F7
:10496000692500208378C078013303F003031B1A04
:1049700058425841704710B50446FFF7F3FF78B925
:10498000A37801F07F01E01841EAC2110171012012
:10499000013303F00303A37023780133237010BDA8
:1049A0000020FCE710B5C37884789C4211D0034402
:1049B0001B79C3F3C014C3F306030B701470C378E0
:1049C000013303F00303C3704378013343700120C4
:1049D00010BD0020FCE700000A4601460148FFF731
:1049E000CABF00BF692500200A4601460148FFF7FB
:1049F000D9BF00BF6925002070B5334B86B01A7847
:104A000032B100221A70314B9A78DA701A785A70E3
:104A100000F0ECF8FFF797FF0446002840D0002490
:104A2000FC2634E09DF806309DF807208DF8103004
:104A3000CAB3FD238DF8113001F09CF94FF4817356
:104A4000ADF81200ADF8143006AB13E90300FCF723
:104A500073F940F2DC5002F050FB9DF806309DF8EF
:104A600007208DF808303AB3FD238DF8093001F0A6
:104A700081F90223ADF80A00ADF80C30DDE902013E
:104A8000FCF75AF940F2DC5002F037FB2C460DF1EE
:104A900007010DF10600FFF7A7FF05460028C1D169
:104AA000204606B070BD8DF8116001F063F940F248
:104AB0000313ADF81200C5E78DF8096001F05AF94B
:104AC0000323ADF80A00D7E77125002069250020EF
:104AD0004FF4E15002F08AB9002914BF0D210E21D4
:104AE00001232022024803FA01F103F08EBA00BF2D
:104AF00000040040002914BF0D210E21024B18694B
:104B0000C84000F0010070470004004070470000FA
:104B10002DE9F0410025154F3B78ECB2A3420CD8AB
:104B2000FFF7D6FF0026DFF848803B78F5B2AB42AE
:104B30000DD8FFF7EBFFBDE8F08100212046FFF71D
:104B4000CBFF01212046FFF7C7FF0135E4E7002135
:104B50002846FFF7CFFF012104462846FFF7CAFF8A
:104B600044EA400408F805400136DEE774250020D9
:104B7000732500200122024B1A70FFF7C9BF00BF46
:104B80007425002038B541EA4203154ADBB2115CB6
:104B9000044601F00305AB4221D043EA8103DBB2B6
:104BA000104D1354104A03F00F03D35C2A5C1344D6
:104BB0005BB2032B2B5402DD0021FFF70DFF2B57B7
:104BC000033303DA01212046FFF706FF2B575A4231
:104BD00002F0030203F0030358BF53422B5538BDC4
:104BE0007325002072250020A3940008F8B5002545
:104BF0000A4F3B78ECB2A34200D8F8BD0021204612
:104C0000FFF778FF012106462046FFF773FF314684
:104C100002462046FFF7B6FF0135EAE7742500207B
:104C2000FDF7D4B808B50020FDF770FC00F00100D6
:104C300008BD08B5FDF728FD40F6B83002F05DFA72
:104C4000FDF722FDFFF7EEFF28B1FFF7E9FFBDE812
:104C5000084001F0B3B808BD08B5FFF7EAFF08BD8A
:104C6000012070470120704708B5FFF7FBFF08BD22
:104C70004FF08043196970B56FEA5121094C01F07A
:104C800001062378084DB34231462E7000D138B169
:104C90000020FBF7EDFE3046FFF7E6FF2B78237090
:104CA00070BD00BF762500207525002008B54FF0A7
:104CB000804020224FF4007103F0A7F9BDE80840BE
:104CC0000120FFF7D5BF0020FFF7D2BF04207047B7
:104CD000520002EB4112C02101FB00202830704736
:104CE000032838B510D805290ED80F2A0CD8FFF79D
:104CF000EFFF0546FDF748FD0402681CFDF744FD83
:104D0000A4B2204380B238BD0020FCE7032870B570
:104D10001C460FD805290DD80F2A0BD8FFF7D8FF4E
:104D20000546190AFDF798FDE1B2681CBDE8704020
:104D3000FDF792BD70BD032870B5164618D8B9B9F5
:104D4000002A4FEA800000F54A7514BF00200220B7
:104D50002844FDF719FD002E4FEA002414BF01205E
:104D600003202844FDF710FDA4B2204380B270BD9B
:104D70000020FCE7032870B516461D4615D8A1B9DA
:104D80008000002A00F54A7414BF00200220190A8E
:104D90002044FDF761FD002E14BF01200320E9B27D
:104DA0002044BDE87040FDF757BD70BD2DE9F843C4
:104DB00000250026ECB212E05FFA87F94A46414628
:104DC0002046FBF771FE013703464A46414620461E
:104DD000FFF79CFF102FEFD10136062E03D00027DE
:104DE0005FFA86F8E8E7012200212046FBF770FE13
:104DF0000122034600212046FFF7BCFF0022204687
:104E00001146FBF765FE0022034611462046013598
:104E1000FFF7B0FF042DCCD1BDE8F883F8B51446F8
:104E2000002700F128055618B44200D1F8BDA5F1BD
:104E30002803B3F5407F06DA2846FDF7A5FC20706D
:104E400001350134F0E72770FAE770B5144600F138
:104E500028055618B44200D170BDA5F12803B3F55A
:104E6000407F03DA28462178FDF7F6FC013401354E
:104E7000F0E7032810B406D8052904D80F2A02D871
:104E800010BCFFF72DBF002010BC7047032802D8CC
:104E900009B9FFF750BF002070471020704740F657
:104EA000C84070472DE9F0411446054640F6C74713
:104EB0004FF000085618B44205F54E7001D1BDE818
:104EC000F081BD4205DCFDF75FFC20700134013547
:104ED000F1E784F80080F9E7F8B51446054640F696
:104EE000C7475618B44205F54E7000D1F8BDBD4213
:104EF00002DC2178FDF7B0FC01340135F2E710B592
:104F00004FF44E74204600210134FDF7A5FCB4F5A2
:104F1000805FF7D110BD0F28F7B5044654D840F68E
:104F2000FF70FDF731FC00284ED14FF44E7534BBB5
:104F3000CDE900442846FDF727FC6F1C8DF80000E2
:104F40008DF8014000283FD0012812D13846FDF7E6
:104F50001BFCAE1C8DF80100B0B3431E022B19D808
:104F60003046FDF711FCEF1C8DF8020060B38DF8A0
:104F700003400F21684600F0D7F93D46DAE7B5F562
:104F8000805F21D02846FDF7FFFB08B9013CE4B261
:104F90000135CCE7042812D102273046FDF7F4FB97
:104FA000FDB201360DF8070070B17C2809D101353A
:104FB000EDB205F108030DEB030505F8084C374683
:104FC000D7E70137072FE8D103B0F0BD47F6164306
:104FD000984210B50C461BD1FCF7BAFD62790D4B17
:104FE00072B100F0AA00002815BF0122002235206E
:104FF00029201A7000F0B2FDFCF76EFE002010BDF3
:105000001B78002B14BF3520292000F0C1FDF3E7E9
:105010000120F4E77725002038B5054648790028B7
:1050200000F0DC80A5F5E045ABB2222B00F2BB809E
:10503000FCF7EBFE6A4C013D2080212D12D8DFE801
:1050400005F04DBD551B1F59235D692FB5336D37D5
:1050500071973B759F417B8327612B65477F8EA9A5
:10506000B31651C5237843F00103237095E06378AC
:1050700043F00803637090E0237843F00203F4E701
:10508000237843F00403F0E7237843F00803ECE7C8
:10509000637843F00103EDE7637843F00203E9E747
:1050A000237843F01003E0E7237843F02003DCE7A4
:1050B000237843F04003D8E7FCF77AF9237843F0EC
:1050C0008003D2E7237823F00C0343F00C03CCE7F2
:1050D000637823F0030343F00303CBE723786FF3F4
:1050E0000003C2E763786FF3C303C3E723786FF36A
:1050F0004103BAE723786FF38203B6E723786FF3AF
:10510000C303B2E763786FF30003B3E763786FF329
:105110004103AFE723786FF30413A6E723786FF317
:105120004513A2E723786FF386139EE7FCF740F957
:1051300023786FF3C71398E7237823F00C0394E7E1
:10514000637823F0030395E72378C3F3800282F0AA
:105150000102D2B262F3820362F3C30385E763788C
:10516000DA4302F0010262F3000362F3410381E7D4
:105170002378C3F3801282F0010262F3861374E78E
:10518000FCF716F92378C3F3C01282F0010262F330
:10519000C7136AE70120FCF79DFE2088FCF738FE64
:1051A000FCF706F9002038BD0020F4E72378C3F3AC
:1051B000001282F0010262F3041356E72378C3F36E
:1051C000000282F0010262F300034EE76378C3F34A
:1051D000C00282F0010262F3C3034BE70120E2E761
:1051E000742900204B4B4C4A2DE9F04113F8008004
:1051F000C308D55C494A00F00700D65C484A05411F
:10520000D75C064115F0010547FA00F00C4606F0A0
:10521000010600F0010711D0E120FBF7B5FD002CDD
:105220006AD040484FF47A72A4FB000300210023A7
:1052300000F2E730FBF758FA01F05FFF8EB1E6208D
:10524000FBF7A2FD002C59D036484FF47A72A4FB2C
:1052500000030021002300F2E730FBF745FA01F0DC
:105260004CFF21464046FBF757FE002C48D02D4806
:105270004FF47A72A4FB00030021002300F2E73010
:10528000FBF732FA01F039FF86B1E620FBF7EEFDBD
:10529000C4B324484FF47A72A4FB00030021002316
:1052A00000F2E730FBF720FA01F027FF85B1E1209B
:1052B000FBF7DCFD44B31B484FF47A72A4FB0003F8
:1052C0000021002300F2E730FBF70EFA01F015FF92
:1052D000F7B12C20FBF73EFEC4B112484FF47A72AE
:1052E000A4FB00040023002100F2E730FBF7FCF9E7
:1052F000BDE8F04101F001BF01209DE70120AEE7CC
:105300000120BFE70120CFE70120DFE70120EFE721
:10531000BDE8F081D394000853950008B3940008C9
:10532000C3940008A08601002DE9F843304E0446DE
:10533000A1FB06030D464FF47A720023002100F210
:10534000E730FBF7D1F90746DFF8A880207800287E
:105350004CD0012846D16378012B0BD1A07804F101
:105360000209FBF7F7FD4C46D5B3384601F0C5FE00
:105370000134EBE7022B05D1A07804F10209FBF719
:1053800003FDF0E7032B05D1A07804F10209FBF738
:105390006DFDE8E7042B01D00134E5E7224600204B
:1053A0004FF00A0C12F8023F13F80810144611F0DF
:1053B00004010DD190B140F2E73CC0FB06C14FF4AF
:1053C0007A7200236046FBF78FF901F096FECBE777
:1053D000303B0CFB003012F8013FE5E70120F4E719
:1053E0000120C3E72946FFF7FDFEC1E7BDE8F883CA
:1053F000A0860100D5970008F8B5144642791D46ED
:105400009DF81870284B92B11C7000F0B3FC274B2C
:10541000188004F12003DBB2072B44D8012004F0EC
:105420000704A040C0B2BDE8F840FBF79BBD1E7862
:10543000A6422ED11D4B188800F0A1FCC72828D801
:10544000AE4205F1200415D006F12003DBB2072B94
:1054500006D8012006F00706B040C0B2FBF78BFD6E
:10546000E3B2072B06D8012005F007039840C0B22D
:10547000FBF778FD3846E4B2FBF76CFD072C12D839
:10548000012005F00705A840C0B2BDE8F840FBF7D1
:1054900072BD04F12003DBB2072B04D8012004F015
:1054A0000704A040F0E7F8BD782500207A25002009
:1054B0000346A3F5F843183B07B50846062B3BD82F
:1054C000DFE803F0171E0410252C33002623009379
:1054D000E12347F61A411A46FFF78EFF002003B07A
:1054E0005DF804FB27230093E52347F61B411A468A
:1054F000F2E72623E022009347F61841E123EBE789
:105500002723E422009347F61941E523E4E7262305
:10551000E222009347F61C41E123DDE72723E62240
:10552000009347F61D41E523D6E72823E5220093A3
:1055300047F61E410123CFE7487918B10022024BFC
:105540001A70CCE70120CAE77825002047F6774398
:10555000984270B506D047F67843984229D0012486
:10556000204670BD4C7994B100F02CF8FBF7A2FFF7
:1055700000F028F8044600F02BF8054600F02EF85D
:10558000294602462046FCF79FF80024E8E700F091
:1055900019F8FBF79BFF00F015F8054600F018F826
:1055A000064600F01BF8314602462846FCF78CF808
:1055B000D6E74C7914B100F00BF8D7E700F008F803
:1055C000E7E70000014B1878704700BF890D002005
:1055D000014B1878704700BF8A0D0020014B1878E6
:1055E000704700BF880D0020242008B5FDF7CCF8D7
:1055F000242801D0002008BD2520FDF7C5F811287A
:10560000F8D12620FDF7C0F8A0F10903584258410F
:10561000F1E710B5041E14BF2421FF212420FDF75B
:105620001BF9002C14BF1121FF212520FDF714F9CF
:10563000002C18BF0921BDE8104008BFFF2126201B
:10564000FDF70AB9704708B52720FDF79DF808BD9A
:10565000704710B50446FFF7FBFFE1B22720BDE815
:105660001040FDF7F9B808B50020FFF7D2FF002081
:10567000FFF7EFFFFFF79AFBFFF741FCBDE808409B
:105680000120FFF7C6BF08B5FFF7DCFFFFF7DBFF20
:10569000FFF7DEFFFFF7A8FF18B9BDE80840FFF7E6
:1056A000E2BF08BDFEF7CEBD08B50346487940B15C
:1056B000A3F5EE427F2A03D8D8B2FFF72CFC0020D6
:1056C00008BD0120FCE7FF230370704700207047EE
:1056D00010B503780446013B032B0BD8DFE803F039
:1056E000020B1215FEF750FEC823C0EB0020B0FBE2
:1056F000F3F0607010BDFEF7CDFD0028F9D0FEF785
:10570000F3FDF6E7FEF7BEFEF3E7FEF731FE60704D
:10571000FEF734FEA070EDE738B503780446013B90
:10572000032B2CD8DFE803F002111E23FEF720FE26
:105730000546FEF723FEC823627801465A43A8B205
:10574000120ABDE83840FEF70FBE43781BB9BDE82A
:105750003840FEF78FBDFEF77BFD6078BDE838402E
:10576000FEF7BCBD4078BDE83840FEF783BE457803
:105770008478FEF709FE214602462846E1E738BD57
:10578000034610F8022B082A05D0092A05D0072A5B
:1057900005D1FFF7C1BFFFF79BBFFDF765BEFF2235
:1057A0001A70704708B54378032B03D1BDE8084051
:1057B000FFF7E6BFFFF787FF08BD2DE9F04104467C
:1057C0000D46FFF783FF002840F0D0802378013B8F
:1057D000142B48D8DFE803F00B15425C626E717140
:1057E000714747767A808B96999CA7B2BB000023BD
:1057F00063700C23A37029462046BDE8F04100F0F9
:1058000055BE6378013B032B2DD8DFE803F0020C73
:105810000F2100F077FA030EA370030CE370030A64
:1058200023716071E7E7FFF70EFFF4E72646A778DC
:1058300004F11C08052FDED8F8B2FCF767FE030A56
:10584000F37030710236B04507F10107F2D1D2E7AB
:105850000023A370E37023716371CCE76378022B9C
:1058600004D0052B10D0FF232370C4E7E378A07881
:1058700040EA0320237940EA0340637940EA036069
:1058800000BAFFF7E6FEB6E7A078FFF70BFFB2E736
:10589000E278A1786078FFF723FAC0E7627923798C
:1058A000A17843EA02235BBAE27860789BB2FFF703
:1058B0002DFAA0E7FFF77AFA9DE729462046FFF781
:1058C00071FF98E7FFF7E9FA607094E7FFF7E7FAEE
:1058D000030A6370A0708EE76078A378E17840EAED
:1058E000032040BA221D80B2FFF7DCFA83E760781C
:1058F000A378E17840EA032040BA221D80B2FFF786
:10590000EBFA78E7FFF7FBFA75E7FFF7DFF9DBE77C
:105910006078A378E17840EA032040BA221D80B283
:10592000FFF77CFA67E76078A378E17840EA032024
:1059300040BA221D80B2FFF788FA5CE7E278A178CE
:10594000003A18BF01226078FFF7F5F967E762793E
:105950002379A17843EA0223E2785BBA003A18BFC0
:10596000012260789BB2FFF705FA44E7BDE8F081B9
:10597000014B1860704700BF7C250020024B18685F
:1059800008B10368184770477C25002008B5FFF769
:10599000F5FF08BD024B1B680BB15B6818477047E9
:1059A0007C250020034A12681AB106210170936811
:1059B000184770477C2500200B4B07B51A88824298
:1059C0000ED01880094B1B6853B103228DF80500D7
:1059D000000A8DF806001B698DF8042001A898477D
:1059E00003B05DF804FB00BF822500207C25002069
:1059F0000B4B07B51A8882420FD01880094B1B68E1
:105A00005BB104228DF80500000A8DF806001B69C1
:105A10008DF804200DEB0200984703B05DF804FBFD
:105A2000802500207C2500200E4B0F4A1B68127831
:105A300002336AB10D4A92F90020002A08DA1E22C8
:105A40000B4B1B68023300201A44934202D170476B
:105A50000622F8E713F8011B0029F6D00130C0B286
:105A6000F3E700BF740D00208C0D00207429002086
:105A7000780D002030B3144B1B78B3B1134B93F95E
:105A80000030002B11DAEF284FEAD00217D8104B64
:105A900000F007001B6813449A78012303FA00F012
:105AA000024214BF1846002070470A4B1B689A1C1C
:105AB000083312F8011B814203D09A42F9D1002029
:105AC00070470120704700BF8C0D00207429002012
:105AD000780D0020740D00204FF0FF32002330B508
