:020000040800F2
:1000000000040020B9010008BB010008BB01000882
:10001000BB010008BB010008BB010008BB010008D0
:10002000BB010008BB010008BB01000839980008AB
:10003000BB010008BB010008BB0100084BA600087B
:10004000BB010008BB010008BB010008BB010008A0
:10005000BB010008BB010008BB010008BB01000890
:10006000BB010008BB010008BB010008BB01000880
:10007000BB010008BB0100080DAB0008BB01000874
:10008000BB010008BB010008BB010008BB01000860
:10009000BB010008BB010008BB010008BB01000850
:1000A000BB010008BB01000821A7000835A7000814
:1000B000BB010008BB010008BB010008BB01000830
:1000C000BB010008BB010008BB010008BB01000820
:1000D000BB010008BB010008BB010008BB01000810
:1000E00072B6264880F30888254880F30988254899
:1000F00025490860022080F31488BFF36F8F09F050
:10010000F1F808F0BBFC4FF0553020491B4A9142F2
:100110003CBF41F8040BFAE71D49194A91423CBF24
:1001200041F8040BFAE71B491B4A1C4B9A423EBF9D
:1001300051F8040B42F8040BF8E700201849194A5B
:1001400091423CBF41F8040BFAE709F0CFF809F0FF
:10015000CAF8154C154DAC4203DA54F8041B884715
:10016000F9E703F0CDFE124C124DAC4203DA54F81D
:10017000041B8847F9E709F0B7B800000004002025
:10018000000C00200000000808ED00E00000002046
:100190000004002084BD0008000C0020C4120020D0
:1001A000C81200208C2A0020E0000008E0000008AF
:1001B000E0000008E000000892E700F000F8FEE729
:1001C0002DE9F04FC1F80CD0C3689D46BDE8F08F13
:1001D000002383F311882846A047002009F05AFA2B
:1001E000FEE709F0B1F900DFFEE7000053B94AB9B4
:1001F000002908BF00281CBF4FF0FF314FF0FF302F
:1002000000F00CB8ADF1080C6DE904CE0AF042FF25
:10021000DDF804E0DDE9022304B07047704700BF59
:10022000062008B500F010FA01200AF057F800BFC8
:1002300038B5124B04461D682A6B1AB10023C2E977
:10024000044338BD182000F04DFB0246286378B106
:1002500000210B2301209381C2E90401084B0949C5
:10026000094DC2E9011300231560C2E9044338BDFA
:100270004621064B064800F00FFB00BF000C002093
:10028000ECDE050034126DE60E33CDABACBC0008DD
:10029000C4BC000838B5194B1C68226B8AB11369BD
:1002A0001749546903FB01F1164800FB0411A3FB35
:1002B0000030013341EB0001C2E9043121F000407C
:1002C00038BD182000F00EFB0246206388B10124DF
:1002D00000250B230A480C49C2E904451160014678
:1002E0000A4D0B4C93810B4BC2E90154C2E9043116
:1002F00038BD5221084B094800F0CEFA000C00200E
:100300002DF451582D7F954C0E33CDAB34126DE644
:10031000ECDE05002E7F954CACBC0008C4BC000888
:10032000032A70B511D940EA01039B071ED1044688
:100330000B4602E0043A032A1CD91946204653F81A
:10034000045B54F8046BAE42F4D0541EAAB1421EB2
:10035000013901E0C3180BD012F801EF11F801CFF9
:10036000A31AE645F6D0AEEB0C0070BD541EEEE7C6
:10037000184670BD20461946E7E7104670BD00BF1D
:1003800088420ED98B1883420BD900EB020C002A4D
:100390006DD0624613F801CD994202F801CDF9D132
:1003A00070470F2A0FD8034602F1FF3C002A5ED0A7
:1003B0000CF1010C013B8C4411F8012B614503F851
:1003C000012FF9D1704740EA01039B0750D1A2F1F8
:1003D000100370B501F1200C23F00F0501F1100E90
:1003E00000F11004AC441B095EF8105C0EF1100E15
:1003F00044F8105C5EF81C5C103444F81C5C5EF839
:10040000185C44F8185C5EF8145CE64544F8145C2B
:10041000EAD1013312F00C0F01EB031102F00F04CB
:1004200000EB031328D08E46043C24F003064FEA69
:10043000940C1E441C1F5EF8045B44F8045FB44235
:10044000F9D10CF1010402F0030203EB840301EB88
:10045000840102F1FF3C4AB10CF1010C013B8C44D8
:1004600011F8012B614503F8012FF9D170BD7047D8
:10047000034602F1FF3C9BE72246EAE770B5860798
:1004800047D0541E002A3ED00346CAB201E0013CC8
:1004900039D303F8012B9D07F9D1032C2CD9CDB208
:1004A00005EB05250F2C1A4605EB054534D9A4F1BB
:1004B000100C2CF00F0603F1100EB6444FEA1C1C72
:1004C000156055609560D56010327245F8D10CF119
:1004D000010214F00C0F03EB021204F00F0C13D006
:1004E000ACF1040323F003030433134442F8045B28
:1004F0009A42FBD10CF003042CB1C9B21C4403F89E
:10050000011B9C42FBD170BD64461346002CF4D104
:10051000F9E703461446C0E7A446E1E738B5C46BE3
:100520000CB1002038BD8021054600F011FA0246CA
:10053000E86330B1031F7C3243F8044F9342FBD190
:10054000EFE74FF0FF3038BD30B51F29054683B0C7
:1005500008D8C36B0C4653B153F8240043F8242049
:1005600003B030BD162303604FF0FF30F8E7802161
:10057000019200F0EDF9019A0346E8630028F3D0F8
:10058000011F00F17C05002041F8040FA942FBD1B6
:10059000E2E700BF1F2938B505461ED8C26B0C46DE
:1005A0006AB152F8213053B1012B06D0591C10D03A
:1005B0000021204642F824109847002038BD2846E4
:1005C00000F0F2F8224601462846BDE8384000F027
:1005D000D7B8162301202B6038BD16234FF0FF300B
:1005E0002B6038BD1F292BD838B5C36B0C46054688
:1005F000A3B153F8242003EB84034AB1511C0BD060
:10060000012A07D0002520461D609047284638BDA6
:10061000012038BD032038BD022038BD802100F004
:1006200097F90346E86340B100201A1F03F17C01EB
:1006300042F8040F9142FBD1DBE74FF0FF3038BDA9
:100640004FF0FF30704700BF38B5134B1F281D68AF
:100650001DD8EA6B044662B152F820304BB1012B31
:1006600005D0591C0FD0002142F8201098470020D7
:1006700038BD284600F098F8224601462846BDE8D5
:10068000384000F07DB8162301202B6038BD1623BA
:100690004FF0FF302B6038BD000C0020114B1F289D
:1006A00070B51E6808D8F36B04460D464BB153F87D
:1006B000240043F8245070BD162333604FF0FF3000
:1006C00070BD8021304600F043F90346F0630028F6
:1006D000F4D00021021F7C3042F8041F9042FBD16D
:1006E000E5E700BF000C002038B50B4B1D68EC6B34
:1006F0000CB1002038BD8021284600F029F9E863BC
:1007000038B1031F00F17C0243F8044F9342FBD140
:10071000EFE74FF0FF3038BD000C002038B5174B25
:100720001F281D6826D80446E86BA0B150F8242085
:1007300000EB84034AB1511C0BD0012A07D00025DD
:1007400020461D609047284638BD012038BD032053
:1007500038BD022038BD8021284600F0F9F8E86352
:1007600040B10021031F00F17C0243F8041F9A42AC
:10077000FBD1DBE74FF0FF3038BD00BF000C00209D
:1007800070B50026074D0446084611462E6009F054
:10079000ADFD431C00D070BD2B68002BFBD0236047
:1007A00070BD00BFD012002009F0A8BD844641EA08
:1007B000000313F0030349D1403A23D30B680360CD
:1007C0004B6843608B688360CB68C3600B690361CF
:1007D0004B6943618B698361CB69C3610B6A0362B7
:1007E0004B6A43628B6A8362CB6AC3620B6B03639F
:1007F0004B6B43638B6B8363CB6BC3634030403184
:10080000403ADBD230320BD30B6803604B68436055
:100810008B688360CB68C36010301031103AF3D21C
:100820000C3205D351F8043B40F8043B043AF9D2AA
:10083000043208D0D2071CBF11F8013B00F8013B7D
:1008400001D30B8803806046704700BF082A13D38A
:100850008B07B1D010F00303AED0C3F10403D21A5A
:10086000DB071CBF11F8013B00F8013BA4D331F8B2
:10087000023B20F8023B9FE7043AD9D3013A11F832
:10088000013B00F8013BF9D20B7803704B784370C1
:100890008B78837060467047144600B51A460A4B41
:1008A0000D461B6885B0DE6803464CB107490191CF
:1008B000304607490294009500F0E0F8FFF7B0FCDD
:1008C00004490C46F3E700BF000C002000BD0008FF
:1008D00010BD00080CBD000808B513460022FFF744
:1008E000DBFF00BF024B0146186800F031B800BFC3
:1008F000000C0020024B0146186800F0E7B800BF6A
:10090000000C002070B5114E054633680C46BBB193
:100910002146284609F0C6FC431C01460CD0C41CE5
:1009200024F00304A04205D02846611A09F0BAFC5D
:10093000013001D0204670BD4FF0FF34204670BD1D
:10094000194609F0AFFC3060E2E700BFC812002092
:100950002DE9F041CD1C25F0030508350C2D38BFDD
:100960000C25002D064682B016DBA94214D8354F5F
:1009700000F06AF87A68AAB1144603E06368224678
:1009800083B11C4623685B1BF8D40B2B21D8A242F1
:10099000636855D053600DE00C233360002002B033
:1009A000BDE8F08129463046FFF7ACFF431C044602
:1009B00019D00560304600F04DF804F10B00231DFE
:1009C00020F00700C21A1CBF1B1AA35002B0BDE8DA
:1009D000F0816119A242256014BF516079606351B2
:1009E00063684B60E6E77B6823B31C465B68002BBB
:1009F000FBD122681946304604EB0208019309F046
:100A000051FC804516D122683046AD1A2946FFF7C1
:100A100079FF01300ED0226878682A44226042684B
:100A2000019B12B90CE010465268A242FBD1002390
:100A30004360BFE70C233046336000F00BF8ADE7AE
:100A40007B60B7E7C8120020014800F035B800BF4E
:100A5000E4120020014800F037B800BFE412002083
:100A60000CB400B583B004AB53F8042B019300F031
:100A7000C7F803B05DF804EB02B070470EB400B5E0
:100A8000074A82B003AB0146106853F8042B019368
:100A900000F0B6F802B05DF804EB03B0704700BF99
:100AA000000C0020704700BF704700BF704700BFB8
:100AB000704700BF704700BF704700BF01207047FC
:100AC00001207047704700BF704700BF002950D019
:100AD00038B551F8043C0C1F002BB8BFE41805468C
:100AE000FFF7B2FF274A13682BB1A3420CD9216844
:100AF000601883422CD0284663601460BDE83840FB
:100B0000FFF7A8BFA3420FD81A465B68002BF9D1A4
:100B100011685018844217D02CD363605460284663
:100B2000BDE83840FFF796BF11685018A04214D0B6
:100B300020D8216860188342EFD118685B680844A8
:100B4000C4E900035460EAE723680B441360E6E756
:100B500018685B6808442060CDE72068014450189D
:100B600083421160DBD1D3E900040144C2E90014DF
:100B7000D5E770470C2328462B60BDE83840FFF7C7
:100B800069BF00BFCC1200209368013B002B93602B
:100B900005DAD2F818C0634507DB0A2905D01368C7
:100BA000581C106008461970704700F0B3BE00BFB3
:100BB0009BB1F8B5134406460F46541E5D1E01E076
:100BC000AC4208D03A46304614F8011FFFF7DCFF6C
:100BD000431CF5D1F8BD0020F8BD0020704700BFD0
:100BE000936810B514461BB918460023636010BD06
:100BF00000F0AEFC0023A3600023636010BD00BFC3
:100C00002DE9F04FA1B08B4691461C46049018B1D7
:100C1000036A002B00F04181DBF86420BBF90C3043
:100C2000D20702D49F0540F131811E0740F19A801E
:100C3000DBF81030002B00F09580002343F22002F7
:100C40000D9399F800300127954E0794ADF839209F
:100C5000002B77D04D4604E015F8013F002B00F043
:100C60009780252BF8D1B5EB090A40F094802B78BA
:100C7000002B67D000234FF0FF320135CDE9092367
:100C800008930B938DF863301E9306E02546089B6E
:100C9000801B07FA00F0034308932C46052214F842
:100CA000011B304600F0E4FEA1460028EED1089B6F
:100CB000D80644BF20228DF86320190748BF2B2295
:100CC000297848BF8DF863202A297AD1079A1168BC
:100CD000043200290792C0F2AD800B9169782E2969
:100CE00000F086806F4C0322204600F0C1FE38B130
:100CF0004022089B001B8240134309F1010908931D
:100D000019F8011B062268488DF8381000F0B0FE73
:100D1000002800F09580654B002B7ED007A900913C
:100D20005A460498624B08A9AFF300800390039BD6
:100D3000013307D00D9B039A13440D9399F80030AB
:100D4000002B87D1DBF8643013F0010FBBF80C30B7
:100D500002D19A0540F193805B0616D40D9821B01C
:100D6000BDE8F08F5946049800F022FE00283FF4B9
:100D700064AFDBF86430DD0707D4BBF80C309C05AA
:100D800003D4DBF85800FFF79FFE4FF0FF30E6E793
:100D9000B5EB090AD6D009F1FF3805954546DDF8CF
:100DA000108001E0A2453FD92C465A46404615F82E
:100DB000011FFFF7E9FE02340130A4EB0904F1D171
:100DC000C0E7A1F13002092A88BFA94687D80B9B4A
:100DD00000E00134217803EB830302EB4303A1F12C
:100DE0003002092AF5D92E29A1460B937FF47AAF58
:100DF00099F801102A292DD1079B09F102001A68E0
:100E00000433002A0793B8BF4FF0FF3399F802105C
:100E100009928146B8BF099364E7079B073323F023
:100E200007030833079385E70D99059D51442B78F7
:100E30000D911DE7494243F002030B9108934DE7E2
:100E400007A900915A460498194B08A900F0D2F856
:100E500003906CE70023A1F13002092A09F101098E
:100E600009933FF63FAF19F8011F03EB830302EB31
:100E70004303A1F13002092AF5D9099332E7DBF8DF
:100E80005800FFF721FEBBF80C3065E7DBF858008F
:100E9000FFF712FEBBF90C30C7E600F009FBBBE61A
:100EA00040BD000848BD00084CBD0008000000001F
:100EB000B10B00088C4600B586461346034A7146BE
:100EC00010685DF804EB6246FFF79ABE000C002044
:100ED0002DE9F84F92461F460A698B680C469A42E4
:100EE000B8BF1A46CAF8002091F843300646DDF82C
:100EF000289013B10132CAF80020226891065FD50C
:100F0000DAF800300233CAF80030226812F0060F17
:100F100011461DD1E1689942D8BF114618DD4FF046
:100F2000000804F1190B05E0E568DAF80030ED1A65
:100F300045450CDD01235A4639463046C847013045
:100F400008F10108F0D14FF0FF30BDE8F88F2168BB
:100F500094F84330003B18BF01238A060AD530219C
:100F6000E21882F8431094F845105A1C22440233C8
:100F700082F843103946304604F14302C847013035
:100F8000E1D0D4E902202368DAF8005003F0060328
:100F9000042B21691BD08A4220DD4FF00008521A31
:100FA000904400251A3401E0454517DA0123224612
:100FB00039463046C847013005F10105F4D1C2E792
:100FC00012F0060F0DD0003B18BF0123D2E7401BE3
:100FD0008A4220EAE078E2DC0028E2DC0020BDE87A
:100FE000F88FE168DAF800309942D8BF114696DCF4
:100FF000AEE700BF2DE9F04717460A7E84B00C46E5
:10100000064698460C9D01F1430C002A35D0A2F10A
:101010005803D9B2202969D8202B67D8DFE813F00C
:10102000E000660066006600660066006600660016
:101030006600660066009400700066006600660048
:10104000660070006600660066006600210083008E
:10105000AE00660066009E006600830066006600C3
:10106000E6002B682268181D6169286010061B685D
:1010700002D4520600F1DC8019600023E1462361AE
:101080003B4621463046CDF8008003AAFFF720FFFB
:10109000013020D04A46394630462369C0470130E6
:1010A00019D02368E0689B07DDF80C9018D54845F7
:1010B00016DD002504F1190A04E0E068A0EB09033D
:1010C000AB420DDD0123524639463046C047013060
:1010D00005F10105F1D14FF0FF3004B0BDE8F08714
:1010E0004845B8BF484604B0BDE8F087012084F801
:1010F000422004F142090023206184F84330BFE715
:101100002A682368111D2960190602D45D0600F1C2
:1011100093801068014600286268C0F291804FF009
:101120000A0E52484AE02B682168181D28600806FC
:1011300001D449067ED419686F2A14BF4FF00A0EF5
:101140004FF0080E494835E02A6801201168043242
:101150002A6004F1420984F84210CCE72B68002190
:101160001A1D2A60D3F800906268484600F080FC9F
:10117000002879D0A0EB09006060BCE7236843F049
:101180002003236078223A4884F845202A68111DFC
:1011900029601D064AD4590648D51188DA0744BF8C
:1011A00043F02003236019B9236823F02003236050
:1011B0004FF0100E0023626884F84330002AA260CA
:1011C00016DB236823F00403236089B9002A45D184
:1011D000E146BEF1080F1CD0ACEB090323614FE7D9
:1011E0005823224884F845302368CFE72368C9E7AD
:1011F0007546E146B1FBF5F30A4605FB131A19469D
:1012000010F80A30AA4209F8013DF3D2BEF1080FE6
:10121000E2D12368DD07DFD5626823699A42DBDC0F
:10122000302309F1FF3989F80030D5E71168B5E7B7
:10123000198022E719887FE7B2F9001008466AE7AB
:101240002D20002AA26084F8430002DB23F004036F
:1012500023600A250548AE464942CAE7037804F1EF
:10126000420984F84230B4E7606844E754BD00089E
:1012700068BD0008024A0349034800F0DFBA00BF16
:10128000500C0020811C0008040C00200C4B41680D
:1012900010B59942044601D000F0F2FCA168094B58
:1012A000994202D0204600F0EBFCE168064B9942DF
:1012B00004D02046BDE8104000F0E2BC10BD00BFE5
:1012C000F41200205C130020C413002008B54B6EFC
:1012D000DA0702D48B899B0501D5002008BD886DF3
:1012E000FFF7EAFB002008BD08B54B6EDA0702D411
:1012F0008B899B0501D5002008BD886DFFF7E4FBB5
:10130000002008BD2DE9F84300250423304C314965
:10131000DFF8C490DFF8C480314F324E0822C4F8A1
:10132000381104F15C002946C4E90335C4E90055CD
:10133000C4E90555A5606566FFF7A0F804F15800FB
:10134000C4E90849C4E90A872663FFF7ADFB264BC9
:101350002946082204F1C4006367C4E91A55C4E9A8
:101360001E552567C4F8CC50C4F88050FFF786F8A6
:1013700004F1680304F1C000C4F88830C4E923987C
:10138000C4E92576FFF790FB184B294604F59670C3
:101390000822C4F8DC30C4E93455C4E93855C4F82F
:1013A000D850C4F83451C4F8E850FFF767F804F196
:1013B000D003C4E93E87C4F8F49004F59470C4F8EF
:1013C0000061C4F8F030BDE8F843FFF76DBB00BF23
:1013D000F41200207512000881180008A9180008EE
:1013E000E91800080D1900080900010012000200A8
:1013F000F8B506462A48FFF75FFB2A4BD3F8383189
:10140000002B43D0284FD7E90134013B04D524E019
:101410005A1C04F1680420D0B4F90C50013B002D93
:10142000F6D1224B04F15800E3606566FFF73CFB00
:101430001B48FFF749FB08222946C4E90155C4E9C6
:1014400004552560A56104F15C00FFF717F8C4E9B5
:101450000D55C4E912552046F8BD3D680DB12F4623
:10146000D1E74FF4D6713046FFF772FA044680B1E7
:1014700004230560294605460C304FF4D072A06065
:101480006360FEF7FBFF3C602F46BCE7FFF73AFFC7
:10149000B8E703483C60FFF717FB0C233360DAE73B
:1014A000F0120020F4120020500C00200100FFFF79
:1014B00010B504460B48FFF7FFFA236A2BB90A4B15
:1014C0000A4AD3F83831226223B1BDE810400548FA
:1014D000FFF7FABAFFF716FFBDE810400148FFF723
:1014E000F3BA00BFF0120020F41200208D120008A1
:1014F0000148FFF7E1BA00BFF01200200148FFF7F2
:10150000E3BA00BFF012002008B50548FFF7D4FA8F
:10151000BDE808400020034A034900F08FB900BF2E
:10152000F0120020500C0020CD12000808B5002059
:10153000044A054900F082F9BDE808400348FFF776
:10154000C3BA00BF500C0020E9120008F0120020BE
:101550009368002B00F0F0802DE9F04FB1F90CC03A
:1015600090461CF0080F81460C4683B02BD00B69C7
:101570004BB31CF00207D8F8006032D04FF0000ADD
:101580005546D4F828B0216AAB4FC5B1BD422B46B1
:10159000524628BF3B464846D847002840F3C28001
:1015A000D8F8083082441B1A2D1AC8F80830002BCE
:1015B00000F0AE80D4F828B0216A002DE6D1D6E93B
:1015C00000A50836E1E72146484600F0F1F9002879
:1015D00040F0AD80B4F90CC0D8F800601CF00207F0
:1015E000CCD11CF0010A63D157462368A168184684
:1015F0008B46002F58D01CF4007F00F0B180B94218
:101600000A4600F2DD801CF4906F2FD021696269D8
:101610005D1A02EB420202EBD2726B1C52103B4489
:10162000934292BF93469B461A461CF4806F00F08B
:10163000E68011464846FFF78BF9002800F0F58058
:101640002A4621690190FFF7B1F8A289019B22F493
:10165000906242F08002A2815819C4F814B0ABEB3A
:1016600005053A46BB462361A56020603D4600273C
:1016700051460192FEF784FEA1682368019AA1EB0E
:101680000B011A44A1602260D8F80830AA445B1B01
:10169000C8F80830002B3BD02368A16818468B4659
:1016A000B4F90CC0002FA6D1D6E900A708369EE7F2
:1016B0003846BB463D46002D40D0002845D03A462E
:1016C000D4E904C32068AA4228BF2A466045A1681D
:1016D00004D901EB030A524500F38280934272DC85
:1016E0005A464846216AD4F828C0E047B0F1000ABB
:1016F00018DDB7EB0A070FD00120D8F80830D34423
:10170000A3EB0A03A5EB0A05C8F80830002BD2D1D9
:10171000002003B0BDE8F08F2146484600F0B0FA43
:101720000028EAD0B4F90C3043F04003A3814FF015
:10173000FF3003B0BDE8F08F002070477568334676
:101740000836002DFAD0D3F800B02A460A215846B0
:1017500000F08EF9002865D00130A0EB0B07AEE752
:1017600022699A4214D36569BD4211D86FF00043D3
:10177000BB4228BF3B4693FBF5F3524605FB03F300
:101780004846A56A216AA847051ECBDD7F1B7BE77B
:10179000B94228BF39460D46184651462A46FEF73B
:1017A000EFFDA1682368491B2B44A1602360002939
:1017B000ECD12146484600F063FA0028E6D0B1E7B4
:1017C000BB463A4652E7594692460192FEF7D8FD8B
:1017D000A368019A9B1AA36023681344236088E7D7
:1017E00059465246FEF7CCFD2368214653444846ED
:1017F000236000F045FA00283FF47BAF92E74846AB
:1018000000F082F9034600287FF426AF484621699C
:10181000FFF75CF90C22B4F90C30C9F8002023F072
:10182000800381E76A1C17464AE70C22B4F90C30A2
:10183000C9F8002078E700BF00FCFF7F2DE9F843DE
:101840004FF0000980460F461646D6E90154013D87
:1018500010D4A389013D012B08D9B4F90E3001330E
:1018600004D021464046B84749EA00096B1C04F100
:101870006804EED13668002EE7D14846BDE8F8830B
:1018800010B50C46B1F90E1008F001FD002803DB7D
:10189000636D0344636510BDA38923F48053A38162
:1018A00010BD00BF002070472DE9F0410C46B1F992
:1018B0000C101F46CB05054616460BD421F480516B
:1018C000A1813B4632462846B4F90E10BDE8F041EE
:1018D00008F0E4BCB4F90E100223002208F0DCFC8E
:1018E000B4F90C10EAE700BF10B50C46B1F90E10C0
:1018F00008F0D2FCB4F90C30421C0EBF23F4805324
:1019000043F480536065A38110BD00BFB1F90E1090
:1019100008F0C6BCF8B506460D46144610B1036A79
:10192000002B37D0A269A389A2601A0719D52369B1
:10193000BBB122686169D31AEDB299422F4620DD0E
:101940000133A1680139A160511C216015706269E1
:101950009A420DD0A389DB0701D50A2D08D038465D
:10196000F8BD2146304600F023F838B92369E0E796
:101970002146304600F084F90028F0D04FF0FF37C0
:10198000EDE72146304600F07BF90028F6D101232F
:101990002268D6E7FFF78CFDC4E700BF03460A467E
:1019A000024908681946FFF7B5BF00BF000C0020C8
:1019B00038B52E4B05461B680C4613B11A6A002A2F
:1019C0004BD0B4F90C3018071CD5226922B313F0A0
:1019D000010107D000206169A0604942A1613AB1CC
:1019E000002038BD980758BF6169A160002AF7D16F
:1019F000190658BF1046F4D543F040034FF0FF30AE
:101A0000A38138BDD9062CD55A0712D4226943F0D8
:101A10000803A381002ADAD103F42071B1F5007F15
:101A2000D5D02146284600F06BF9B4F90C30226974
:101A3000CDE7616B51B104F14402914204D02846D4
:101A4000FFF744F8B4F90C300022626300212269E8
:101A500023F02403C4E90021D9E71846FFF728FD45
:101A6000AFE7092243F040032A60C7E7000C0020DB
:101A70005FFA81FC810744D00346511E22B909E078
:101A80009A0709D0013905D3184602780133624517
:101A9000F6D1704700207047184603290CD800295A
:101AA000F8D00346014401E08B42F3D0184613F806
:101AB000012B6245F8D1ECE710B50CEB0C24024683
:101AC00004EB044402E00439032918D9104652F803
:101AD000043B6340A3F1013E2EEA030313F0803F71
:101AE000F1D051B10346014401E08B4205D01846C4
:101AF00013F8012B6245F8D110BD002010BD10462F
:101B0000EFE71146C9E700BF2DE9F041144649B39C
:101B1000EAB106460D4600F07BF98442074602D83A
:101B2000B4EB500F1AD821463046FEF711FF80461D
:101B300078B1BC422246294628BF3A46FEF736FE17
:101B400030462946FEF7C2FF4046BDE8F081FEF769
:101B5000BDFF4FF000084046BDE8F081A846404672
:101B6000BDE8F0811146BDE8F041FEF7F1BE00BFCF
:101B7000F8B5B1F90C30074618070C4639D44A6855
:101B8000002A53DDE56A002D31D000223E683A601C
:101B900013F48052216A55D101233846A847411CCD
:101BA00002465ED0B4F90C30E56A216A5B0705D5C0
:101BB0006368D21A636B0BB1236CD21A00233846C8
:101BC000A847451C40D00022236962602360A38996
:101BD000D90400D56065616B3E6041B104F14403F6
:101BE000994202D03846FEF771FF0023636300205C
:101BF000F8BD0E69002EFAD09B0718BF00230D68B0
:101C000008BF4B690E60AD1B8B600CE02B46324663
:101C1000D4F828C03846216AE047B0F1000CA5EBA3
:101C20000C05664406DD002DF0DCE0E70A6C002AB6
:101C3000A8DCDCE7B4F90C3043F040034FF0FF3090
:101C4000A381F8BD626DB1E73A68B4F90C308AB18E
:101C50001D2A01D0162AEFD100232269C4E90023EE
:101C6000B9E73B68002B9DD01D2B01D0162BE1D18D
:101C70003E60BCE7626022692260DA04AAD4AAE767
:101C800038B50B69CBB10C46054608B1036ABBB148
:101C9000B4F90C308BB1626ED00701D4990512D51E
:101CA00028462146FFF764FF636E0546DA0702D433
:101CB000A3899B050BD5284638BD0025284638BD8D
:101CC000FFF7F6FBE4E7A06DFEF7F6FEE8E7A06D90
:101CD000FEF7FAFEEFE700BF014618B1044B1868A3
:101CE000FFF7CEBF034A04490448FFF7A7BD00BF72
:101CF000000C0020500C0020811C0008040C002067
:101D000070B5B1F90C300C46990796B007D5012291
:101D100004F14703C4E90432236016B070BDB4F97E
:101D20000E100546002929DB6A4608F0C8FA00288B
:101D300022DB4FF480612846019EFEF709FE88B33E
:101D4000A38906F4704643F08003A3814FF48063B7
:101D5000B6F5005FC4E904032060DED12846B4F97B
:101D60000E1008F0B8FA0028D7D0A38923F0030397
:101D700043F00103A381D0E7B4F90C3013F0800FD6
:101D800014BF40264FF4806628463146FEF7E0FD3A
:101D900040B1A389C4E9040643F080032060A38115
:101DA00016B070BDB4F90C309A05B6D4012123F0F9
:101DB000030304F1470243F00203C4E90421A381B1
:101DC0002260AAE770B50C46B1F90E10154600293D
:101DD0001E4696B00FDB6A4608F071FA00280ADB4F
:101DE000019B4FF4806203F47043A3F50053B3FAF0
:101DF00083F35B0907E0A289002312F0800F14BF70
:101E000040224FF48062002033602A6016B070BD1B
:101E100051F8043C181F002BBCBF0B58C01870476A
:101E2000194B10B51C7874BB012220211A704FF099
:101E30008040224608F0D3FB224680214FF08040AC
:101E400008F0CDFB224640214FF0804008F0C7FB50
:101E50004FF47A7007F023FC41F6822220214FF0E4
:101E6000804008F0BCFB40F2822280214FF080408D
:101E700008F0B5FBBDE8104040F2822240214FF04F
:101E8000804008F0ACBB10BD3014002010B5054CEC
:101E900001224FF40051204608F0A1FB4FF40053FB
:101EA000A36110BD0004004010B50C4C208806F062
:101EB000E8FAA5280DD906F0DFFA094920800B7849
:101EC000062B07D80748013302780B7082F0010215
:101ED000027010BD0022044B1A70FAE7361400207D
:101EE000BA0D0020381400203514002038B50446FF
:101EF000B8B90F4D288806F0C4FAA52810D906F005
:101F0000BBFA0C4928800B78062B97BF0A480B4B6D
:101F1000027801339DBF82F0010202700B701C70C9
:101F200038BD0128FCD1BDE83840FFF7BDBF00BF78
:101F300036140020BB0D002038140020351400207A
:101F400047F62A03984270B540D847F61F039842D7
:101F50000ED845F20123984200F00C8126D8E328E0
:101F600000F09B80B0F5A44F00F0F780012038E02E
:101F7000A0F5F04020380A28F8D801A353F820F043
:101F8000B12000086D1F00086D1F0008C520000863
:101F90000B2100086D1F00086D1F00086720000856
:101FA0007320000841200008FB1F000847F20B03C4
:101FB0009842DBD14B799BB176490B7883F00402D0
:101FC000C2F3800262F382030B7009E047F6034319
:101FD0009842CBD14D79704C25B106F04DFA208056
:101FE000002070BD20880028FAD006F04AFA40F69A
:101FF000B7339842F4D82580F2E74B79002BB5D05F
:10200000664C2378012B09D80F2004F091FD0122A2
:10201000634B1A700022634B1A70E1E7022B0CD15C
:102020000F2004F085FD01225D4B1A7000225D4BEC
:102030001A702378013B2370D2E7013B237095E7A8
:102040004B79002B92D0554A1378042BDFD805BF6B
:102050000121534B0133197001BF0021514B1970FD
:102060000523137082E74B79002B3FF47FAF4E4A74
:10207000EAE74B79002B3FF479AF4B4A1378012BF9
:10208000C5D0022B03BF01230020454903F1FF33D4
:1020900002BF0B7043490870E3E74B79002B3FF414
:1020A00065AF3C4B187880F00400C0F3800098E7DF
:1020B0004B79002B94D03D4A1378B3FA83F35B0934
:1020C00013708DE74B79002B8AD00722314CA17811
:1020D000C1F342030133B3FBF2F2C2EBC2029B1A1B
:1020E0000A4663F34302A270314A03EB4303D1185B
:1020F000D55C4E7804F09EFC31460246284604F03A
:102100008AFC206801F096FA6AE74B79002B3FF4CD
:1021100067AF04F03DFC06281E4C254A07D00D3859
:10212000C0B2152813D8234BC340DB070FD5237843
:1021300013F0700F05D0C3F30213013B03F0070344
:1021400000E00523217863F306112170CDE72378A1
:1021500013F0700FEFD10623F4E74B79002B3FF417
:102160003FAF012200200E4B1A700E4B187000F08A
:1021700018F935E74B79002B3FF432AF01200021ED
:10218000074B1870074B1970024B1A7861F38202E3
:102190001A70ECE7F427002032140020B80D00205C
:1021A00035140020BB0D0020B90D00203414002090
:1021B0003AB700080D30200070B51F4D2B78012B69
:1021C00033D10020FFF792FE1C4E308890B306F00A
:1021D00058F940F6B73398422CD90024184B348074
:1021E0001C70184B1A7864F382021A7002232B7049
:1021F000154B1D7801F076FA284600F056FD204672
:1022000005F09EFD04F0BFFE04F045FF04F07CFBEA
:102210000D2004F0BAFBFF222046114604F0FBFB20
:10222000BDE87040FF2004F0AFBC022BCCD1FFF71B
:102230003BFEC9E770BD00BF3514002032140020FA
:10224000BA0D0020F42700206614002008B51B4BAF
:102250001B7823B100221146104602F0ADFF05F0B5
:10226000EFFE820705D50022FF231146252002F04C
:1022700037FF134B1B785B0705D5FF2302201A4657
:10228000194602F02DFF0F4B1B78052B0BD80E4B78
:102290001B7833B100221146104602F08DFF012059
:1022A00008BD6422F7E7094B1B78052BF7D8064BCE
:1022B0001A78002AEED11146FF20EEE734140020F0
:1022C000F4270020BB0D002038140020BA0D002098
:1022D00003280CD805290AD80F2A08D8062303FB9F
:1022E0000011044B02EB011233F812007047012079
:1022F000704700BF3AB400080120704708B5FFF7E7
:10230000FBFF08BD0120704708B5FFF719FE08BDA7
:10231000704708B5FFF7FCFF08BD000013B502AB1E
:1023200003E903000F4B1B78B3B99DF8053073B177
:102330006AB100F081FD04460146009800F04EFDB0
:102340002046009902B0BDE8104001F09DBB009806
:1023500000F05CFD0446F3E7009800F06DFD009985
:10236000F0E700BF40140020034610B400885C88EA
:102370000A4640EA0440998810BCFFF7CFBF10B569
:1023800004460121FFF7F0FF2146FFF7B7FF10BD1C
:1023900010B504460021FFF7E7FF2146FFF7B9FF1C
:1023A00010BD10B501248440E4B2204601F033F999
:1023B0002046BDE8104000F078BC0120704708B509
:1023C000FFF7FBFF08BD10B5044600F01FFC2046D8
:1023D000FFF7F5FFBDE8104046F2A81007F05FB91F
:1023E00008B50120FFF7EFFFBDE8084006F068B828
:1023F00008B50020FFF7E7FFBDE8084006F086B803
:1024000038B501210546FFF7AFFF2946044605F020
:10241000C2FC002840D029462046FFF775FFD8B3FC
:102420002946204605F0C8FBB0B32946204604F0F3
:10243000BFFE88B32946204604F094FE60B32946C7
:10244000204604F0F3FB38B32946204605F002FC91
:1024500010B36B797BB147F65A439C4223D00ED818
:1024600047F601439C421BD047F603439C4215D0DC
:10247000B4F5F84F0ED02846FFF744FF0DE047F6BD
:102480005B439C4212D047F65C439C42F3D101F07F
:1024900091F8F0E7FFF7A4FF002038BD01F09CF8A9
:1024A000FFF7A6FFF8E701F091F8E4E701F091F8F3
:1024B000E1E708B505F04FFF04F026F900F022F837
:1024C000BDE80840012004F0D7B908B500F01FF8B6
:1024D000002004F0D1F9BDE8084005F041BF01201B
:1024E0007047704738B50546FFF7F9FF044610B14D
:1024F0002846FFF7F6FF204638BD704708B5FFF7BE
:10250000F1FF08BD08B50020FFF7F8FF08BD08B5CA
:1025100005F08EFDFFF7F2FF08BD000010B505F0D5
:1025200087FD074B04461A78824207D0187005F0E1
:102530006BFF044B18602046FFF7E0FF10BD00BFA3
:10254000391400203C1400201FB56C4684E80300B9
:102550009DF805300BB100F02DFF0023ADF80E30D3
:1025600094E80300ADF80C10C9B2029002AC29B98E
:1025700094E8030000F078FE04B010BD2046FFF799
:10258000FEFE0028F4D1F7E70379012B02D1008881
:1025900000F072BC704708B529B104F06DFFBDE8CA
:1025A000084005F047B804F0B9FFF8E710B5044655
:1025B000002875D0822813D105F042FD81076FD421
:1025C000392005F029FE00F08DFF4FF4FA5007F096
:1025D00066F8392005F03AFEBDE8104000F082BFF1
:1025E00083280ED105F02CFDC20759D4532005F0E5
:1025F00013FE00F077FF42F2107007F050F85320FE
:10260000E8E784280ED105F01BFD430748D4472096
:1026100005F002FE00F066FF42F2107007F03FF88E
:102620004720D7E7031FDBB2A02B0BD805F084FDB2
:1026300020B1204605F00AFE00F054FF204605F0C8
:10264000EBFDC9E700F12003DBB2072B07D800F050
:1026500007040120A040C0B200F086FEBCE700F1F4
:102660005B03DBB2022B05D8BDE81040243880B2F2
:1026700005F006BD00F15803DBB21A2B06D8BDE801
:102680001040084A32F8130005F016BD3334E4B2A6
:10269000122C05D804F0F0FEBDE8104004F0CABFCB
:1026A00010BD00BF50B7000808B5034600285AD037
:1026B00082280FD105F0C4FC810754D5392005F0DC
:1026C000ABFD00F00FFF392005F0C0FDBDE808406C
:1026D00000F008BF83280AD105F0B2FCC20742D53A
:1026E000532005F099FD00F0FDFE5320ECE784280F
:1026F0000AD105F0A5FC430735D5472005F08CFD30
:1027000000F0F0FE4720DFE7021FD2B2A02ADBD99B
:1027100000F12002D2B2072A07D800F007030120F7
:102720009840C0B200F028FED0E700F15B02D2B2C0
:10273000022A04D8BDE80840002005F0A1BC00F141
:102740005802D2B21A2A04D8BDE80840002005F089
:10275000B3BC3333DBB2122B05D804F0DFFEBDE887
:10276000084004F067BF08BD38B50C460546FFF7C2
:102770001DFF94B140F2E73309494FF47A72A4FB8C
:102780000141E01841F100010023FDF72FFD06F0A3
:1027900086FF2846FFF788FF38BD0120F7E700BF16
:1027A000A086010008B539280CBF50210A21FFF787
:1027B000DBFF08BD08B528B100F0D6FDBDE8084034
:1027C00000F090BE08BD08B528B100F0D5FDBDE809
:1027D000084000F087BE08BD2DE9F843877981469F
:1027E0000C46457900F0B0FD3F09064608B32E4679
:1027F000FDB1C4F3072303F0F002402A0CD0E1B28C
:1028000001F12002D2B2072A25D903F0E003202BE0
:1028100002D101291FD907B3A54B5E7816F0040633
:1028200007D0022000F096FE00F08EFD80F0010639
:10283000F6B2C4F303330B2B3DD8DFE813F01000DE
:10284000100054005400AF00C6003C003C00CB0018
:102850002D01420142010026EBE73E46E9E7C4F3C1
:102860000723C4F303270F2B88BF3F01E4B285B1D0
:1028700057B104F12003DBB2072B384600D92CB93D
:1028800000F072FD00F02EFE20464CE000F082FDCC
:10289000F8E72046FFF708FF6FB104F12003DBB231
:1028A000072B384600D914B900F066FD01E000F0AE
:1028B00079FD00F017FE002E00F05C8100F03CFD79
:1028C00010F0010040F0568189F8050000F02EFD5F
:1028D00000F01EFA484600F063F900F027FDBDE85D
:1028E000F84300F01FBAC4F3072303F0F003C4F366
:1028F0000328202BE4B218BF4FEA08182CB1012C92
:1029000034D0002D3CD0DFB1BEE7694B5B7859076E
:1029100014D45DB1B8F1000F04D0404600F024FD9E
:1029200000F0E0FD0020FFF741FEC4E72846FFF776
:10293000BBFEB8F1000FBED04046B5E755B11FB998
:102940004046FFF737FFB6E7012FB4D1404600F00D
:1029500051FDB0E7002FAED14046FFF734FF4046AF
:1029600000F056FD404600F031FDA4E715B1052FFB
:10297000A1D8E5E7042F9ED84046FFF724FF9AE749
:10298000002FF9D0392C0CBF4FF4FA504FF47A7065
:1029900006F085FE2046FFF787FE8CE714F4406FB3
:1029A000C4F3812307D0012B85D165B1C4F309009D
:1029B00005F082FB7FE725B1C4F3090005F060FB59
:1029C00079E72846FAE72846F2E72946E0B2FFF71A
:1029D000E2FD70E714F4407F2DD1F5B914F010003A
:1029E00018BF0F20C4F342134FEA8303DBB21CBFAE
:1029F0009840C04304F00F0202FA03F2C4F38124AA
:102A000018BFC0B2D2B2022C40EA02000DD0032C93
:102A10000ED0012C06D000F053F905F009FBFFF7AA
:102A20006DFD48E700F044F9F7E700F051F9F4E7ED
:102A300000F03BF9F1E7C4F301220DB3D207ECD566
:102A400014F0100318BF0F20C4F342124FEA8202A1
:102A5000D2B21CBF9040C04304F00F0101FA02F152
:102A6000C4F3812418BFC3B2C9B2022C43EA0100E7
:102A70000CD0032C0DD0012C05D000F06FF9CCE761
:102A8000012ACAD9DCE700F061F9C6E700F06EF967
:102A9000C3E700F02BF9C0E7E7B2C4F303244DB15C
:102AA000204600F035F93846FFF784FEB5E700BF51
:102AB000F82700203846FFF786FE204600F032F95E
:102AC000ABE75FFA84F8A8F1F003042B38D8DFE80D
:102AD00003F003210D141D0035B1042F9DD8C4F35C
:102AE000042000F029F998E7052FF7E7C4F3042044
:102AF000002DE3D100F00CF98FE725B1C4F30420D9
:102B000000F0FFF889E700F0F9F886E71A4B5B78E8
:102B10005B0704D4C4F30420002DCFD0EAE72DB125
:102B20000321C4F3042000F0F3FC76E7012000F059
:102B300011FD012F7FF671AF022000F00BFD6CE755
:102B40003DB11FB14046FFF731FD66E7C4F30420F5
:102B5000D0E767B1B8F1390F0CBF4FF4FA504FF41A
:102B60007A7006F09CFD4046FFF79EFD55E7C4F3E2
:102B70000420A3E7BDE8F883F827002038B50188D2
:102B80000446407900F084F9054600F0F7F800F0BB
:102B90008BF829462046BDE83840FFF71DBE0000EF
:102BA000037910B50446B3B1FFF72AFC68B900F009
:102BB000CBFB80B1637973B1074B5B785B070AD5B8
:102BC000BDE81040022000F0C5BC2046FFF7D6FF4C
:102BD0002046FFF7DDFB10BDF827002008B50020D8
:102BE00005F04EFA002005F067FA00F0E3FB00F074
:102BF00079FC04F03BFDBDE8084004F01BBD08B5BE
:102C000005F03EFBBDE80840FFF7E8BF08B500F05F
:102C1000BBFBBDE80840FFF7F2BFC0F30333062B50
:102C2000C2B213D094BF0E33063303F00F03012B4F
:102C300010D8F02A10D004D8E72A8CBF0020012039
:102C40007047F42A14BF002001207047E72A03D9F7
:102C5000F12AF7E7002070470120704708B50346C6
:102C6000007930B1188800F007F9BDE80840FFF797
:102C7000D4BF08BD82B002AB03E9030002B07047C5
:102C800082B002AB03E9030002B07047704708B599
:102C9000FFF7FCFF08BD000008B5FFF7F8FF014B88
:102CA000187008BD661400207047FFF7F5BF0000DC
:102CB000024B1B781843FFF7EFBF00BF66140020DC
:102CC000024B1B781840FFF7E7BF00BF66140020D7
:102CD000024B1B785840FFF7DFBF00BF661400208F
:102CE000704708B5FFF7FCFF08BD000008B5FFF707
:102CF000F8FF014B187008BD651400200020FFF795
:102D0000F5BF012303FA00F0C0B2FFF7EFBF0000E8
:102D10000123034A834010781843C0B2FFF7E6BF8F
:102D2000651400200123034A8340107820EA030041
:102D3000FFF7DCBF651400200123034A83401078AD
:102D40005840C0B2FFF7D2BF65140020024B1B7879
:102D50001843FFF7CBBF00BF65140020024B1B7860
:102D60001840FFF7C3BF00BF65140020024B1B785B
:102D70005840FFF7BBBF00BF65140020704701F04B
:102D80000703C90830B501EB4101012401390A44A8
:102D900000219C40E4B212F8015F20FA01F343F3F2
:102DA00000036B40234001315D4003291570F2D1CF
:102DB00030BD002210B500F00704C00800EB400051
:102DC000014410468B5CE34003F001039340013261
:102DD0001843032AC0B2F5D110BD000082B0ADF88F
:102DE0000400C0F3072005280B460AD89DF80410FC
:102DF0000F2906D801EB00111846034A02B0FFF76D
:102E0000BEBF02B0704700BF4114002082B0ADF8D1
:102E10000400C0F30720052809D89DF804300F2BC3
:102E200005D8044903EB001002B0FFF7C2BF002031
:102E300002B070474114002073B503240C4BADF869
:102E400004001E780B4B1B781E4346FA04F3DB0785
:102E500005D4013CF9D20025284602B070BDE5B288
:102E60002846019900F021FE80B20128F1D0F3E755
:102E7000651400206614002007B5ADF80400019821
:102E8000FFF7DAFF019903B05DF804EB00F00DBE27
:102E900013B5104BADF804101B782BB1019802B09C
:102EA000BDE81040FFF7E8BF70B10198FFF7C4FF1D
:102EB000044601460198FFF791FF2046019902B0B0
:102EC000BDE8104000F0F1BD0198FFF79FFF0446F8
:102ED000F3E700BF4014002010B5012404FA02F209
:102EE00004FA01F11143CAB20140914204FA03F419
:102EF00006BF2043C0B2A04310BD000008B5134672
:102F00000A46014603480078FFF7E6FFBDE808409F
:102F1000FFF7ECBE65140020F8B50C4B0C4E1C7886
:102F20000C4D3378A34200D1F8BD05EBC40335F84E
:102F300034005F889A88D98840EA074042EA014114
:102F40000134FFF79DFE04F00704EAE76714002050
:102F5000681400206A140020064B10B418885C889E
:102F60009A88D98840EA044042EA014110BCFFF740
:102F700087BE00BFAA140020194AF8B593790F2B19
:102F80000AD8537943B1174B17491B780D78168827
:102F90005788164CAB4200D1F8BD04EBC301087949
:102FA000D0B134F83300B04216D14879A0B948887E
:102FB000C01B80B2C7280FD80120937960F3071394
:102FC00093718B7960F3071305488B71FFF7E8FD68
:102FD000BDE8F840FFF7A0BF013303F00703D9E7CE
:102FE000AA14002067140020681400206A1400202E
:102FF000F0B50D4B0D4C1B7826780D4CB34201D12A
:103000000020F0BD04EBC3056F788F4206D114F8A1
:103010003370874202D16D79954203D1013303F0B9
:103020000703EBE70120ECE7671400206814002099
:103030006A1400202DE9FF47E9460446894D014600
:1030400006224846FDF7B2FB2B7994F800806178A0
:103050006779B4F802A02279C3B9002A00F0C780CA
:10306000002F00F0F6802046FFF7F8FD002800F062
:10307000F080082221462846FDF798FB2846FFF7F6
:1030800083FAFFF779FFFFF767FFB0E06B886E798F
:10309000AAEB03039BB2002E00F0AB80C72B00F21B
:1030A0008480002A00F0A380AB7928880F2B228827
:1030B0004ED8904211D1002F45D1012262F307135F
:1030C000AB71FFF749FF2846FFF76AFDAB79A371A3
:1030D0000025284604B0BDE8F087A7BB3A46404625
:1030E000FFF786FF4046FFF783FF05460028EFD134
:1030F0000098FFF7C1FEC0F30332032AC3B208D819
:10310000012A10D910F4706F12D0A2790F2A0FD8AB
:10311000DFE7063202F00F02012A0ED92046FFF740
:103120003FFD3546D5E710F4706F01D0002BD0D0AD
:103130002033DBB2072BCCD9F0E7EF2BC9D90F3303
:10314000DBB2022BF7E7AB7943F00103AB71BFE7CA
:1031500090420AD14FB92046A371FFF721FD082202
:1031600021462846FDF722FB8DE72046FFF776FD36
:1031700000286ED0002F6CD0AB791F2B0FD92A8876
:1031800002A8ADF808202A79ADF80AA08DF80C2025
:1031900000228DF80E308DF80D20FFF701FD08227A
:1031A00021463048FDF702FB6BE7AB790F2B0ED8B9
:1031B00099E80300FFF75EFD2846FFF7F1FC0822BF
:1031C00000212846FDF75AF9FFF7C6FE80E772B1E5
:1031D000298822889142C8D1002FC6D12046A371E8
:1031E000FFF7DEFC082239462846FDF747F901259E
:1031F0006FE7C72B31D8002AF9D057B32A88238824
:103200009A421DD1AB79DA0714D40F2B12D9A371CE
:1032100003F0F003F02B06D0A379C3F303120132BD
:1032200062F30713A3712046FFF7BAFC0822214678
:103230000C4897E7082221460A48FDF7B7FAD6E777
:103240002046FFF70BFD0028A9D1AB7943F001031D
:10325000AB712046FFF7A4FCC9E799E80300FFF72C
:1032600009FDACE7AA140020F0B585B06C4684E8EF
:1032700003002046FFF7DEFE284F0646284D68B1C2
:103280009DF804301BB194E80300FFF7F9FC254CCE
:1032900028783B78834226D105B0F0BD02AB94E894
:1032A000030083E803009DF8041038782A78002989
:1032B000EDD0441C04F0070494420AD01946194B7F
:1032C000082203EBC000FDF771FA3C70FFF724FE03
:1032D000DDE7FFF79BFC0822314613483E702E7055
:1032E000FDF7CCF8D3E704EBC000FFF7A3FE0028FE
:1032F000D2D02B7834F8330004EBC3035E889A886D
:10330000D98840EA064042EA0141FFF7B9FC2B7830
:10331000013303F007032B70BAE700BF68140020E5
:10332000671400206A140020AA140020014B1878AA
:10333000C0087047DA140020024B187800F007002C
:10334000704700BFDA140020034B187810F0070014
:1033500018BF0120704700BFDA140020014B187815
:10336000704700BF06150020024B1A7810431870F2
:10337000704700BF06150020024A137823EA0003B5
:1033800013707047061500200022014B1A70704719
:1033900006150020024B1A7810431870704700BFC2
:1033A00005150020024A137823EA000313707047C2
:1033B000051500200022014B1A70704705150020EA
:1033C000704708B5FFF7FCFF08BD000008B5054AC7
:1033D0001378034204D023EA00001070FFF7F1FFD6
:1033E00008BD00BFDB140020704708B5FFF7FCFFE5
:1033F00008BD000010B505490B7830EA030403D07E
:1034000003430B70FFF7F1FF10BD00BFDC14002079
:1034100008B5054A1378034204D023EA000010706F
:10342000FFF7E3FF08BD00BFDC14002008B5044B24
:103430001A781AB100201870FFF7D7FF08BD00BF37
:10344000DC14002038B5084B1C78084B1B781C4353
:10345000074B1D782DB104F04BFE08B1FFF7E6FFD6
:103460002C43204638BD00BF06150020051500205E
:10347000DC14002038B50B4C2568FFF7E3FF2870FB
:103480002468082220460849FCF74AFF48B1214633
:1034900008220548FDF78AF92046BDE8384004F0C7
:1034A000D3BD38BDC00D0020D214002038B50B4C60
:1034B0002568FFF7C7FF6870246820222046084966
:1034C000FCF72EFF48B1214620220548FDF76EF992
:1034D0002046BDE8384004F0BFBD38BDBC0D00201B
:1034E000B2140020054B1B7833B1054B93F9003023
:1034F000002B01DAFFF7DABFFFF7BCBFDC0D0020BD
:10350000F8270020704708B5FFF7FCFF08BD000052
:10351000094A10B5527852070AD5084C41EAC00151
:103520002170FFF7F5FB2078C008FFF7ECFF10BD16
:10353000BDE81040FFF7ECBBF8270020DA140020AC
:10354000002008B5024B1870FFF7DDFF08BD00BF73
:10355000DA14002008B50A4A137823EA0000107034
:1035600042070CD198420AD0064B5B785B0706D520
:10357000C008FFF7D7FBBDE80840FFF7E1BF08BD73
:10358000DA140020F8270020094A08B55378C3F35D
:10359000800181420AD060F382035370108800F0EA
:1035A00041F8BDE808400220FFF7D4BF08BD00BFC6
:1035B000F8270020044B5878C0F3800080F0010009
:1035C00000F00100FFF7E0BFF82700200120FFF71F
:1035D000DBBF0020FFF7D8BF08B5002000F03EFD9C
:1035E000BDE808404FF6FF71002000F019BD08B596
:1035F000002000F0AEFC4FF6E563984203D1BDE831
:10360000084004F067BB002008BD022000F092BC17
:10361000032000F08FBC0146032000F0F3BC04201F
:1036200000F097BC0146042000F0FABC01460F20D0
:1036300000F004BD0146132000F000BD0020FFF79C
:10364000F9BF08B50020FFF7F1FFFFF7F7FF08BD4E
:1036500007B5002000F002FD4FF6E561002000F004
:10366000DFFC0021022000F0CDFC01211C4B0320D7
:10367000197000F0C7FC4FF4A051042000F0D0FCFA
:103680000021062000F0BEFC0021072000F0BAFC5B
:103690000021082000F0D2FC0021232000F0B2FC21
:1036A00000210C2000F0AEFC00210D2000F0AAFC4F
:1036B000002300226846CDE900231721082200F0EC
:1036C00087FC00211F2000F0B9FC002004F017FB4C
:1036D00004F040FBFFF7B5FF03B05DF804FB00BF4B
:1036E00066140020FFF7B4BF01460E2000F08ABC2C
:1036F00073B504F0C1FE0B4D04462B8883420ED0F7
:103700000026ADF8006004F0B7FEADF80460ADF837
:10371000020002AB13E90300FEF716FF2C8002B093
:1037200070BD00BF0815002008B504F06DFE024B07
:103730001860024B186008BD1C15002018150020E9
:103740007047704708B5FFF7FCFF08BD01207047C0
:1037500008B5054800F0A0FA00F07EFCFFF7F0FF86
:10376000FEF794FB08BD00BF913C000801207047A4
:1037700008B5FFF7FBFF08BD7047704708B5FFF7B6
:10378000FBFFFFF7FAFF08BD08B5FFF730FF08B9E8
:10379000FFF7A8FFFFF739FF084B1870FFF73FFF4F
:1037A000074B188003F07FFBFFF732FFFFF77DFA2E
:1037B000044B1878BDE80840FFF793BA20150020A5
:1037C000F82700206514002008B504F01BFE04F063
:1037D000D1FA00F013FBFFF7D7FFFEF78EFE03F0E0
:1037E00025F8FFF7AFFF08BD2DE9F04F85B0FFF7D3
:1037F000ADFF50B9FFF77CFF02F086FF03F05EFFDC
:1038000005B0BDE8F04FFEF789BEDFF8C08000F0DC
:103810000FFB46460024E0B236F8025B00F04CFA9B
:10382000052C50D0854204F10104F4D0284B1B78BC
:103830009B0701D500F046FAFFF79AFF0027019099
:103840005FFA87F9484600F037FA38F8026B054608
:10385000B04232D000244FF0010A4640B6B216EA18
:103860000A0F20D0019B15EA0A0F14BF4FF0010B7D
:103870004FF0000B93B18DF808408DF8099004F0DB
:10388000FBFD4FF00103ADF80A008DF80C308DF808
:103890000DB002AB93E80300FEF756FE5A462146F0
:1038A000484601F045FD0134E4B24FEA4A03102CCA
:1038B0001FFA83FAD3D128F8025C0137062FBFD153
:1038C000FFF732FF98E78542B0D193E70A15002051
:1038D0002015002038B500F0F3F8B0F5A44F0446E9
:1038E00043D2B0F5A04F80F0AD80DF2816D8CC28A9
:1038F00000F28B80A7280AD8A42879D8012804D000
:10390000031F9BB2A12B28BF0024204638BDA0F185
:10391000A8039BB21A2B70D90024F6E7B0F5804FAC
:1039200019D2B0F5005F80F09C80E728EDD9A0F5B2
:1039300080739BB2B3F5F85FEED2C0F3072000F0BE
:1039400045F90546E0B200F0BBF82D0205F4F85544
:1039500040EA050407E0C0B200F0B2F804F4706475
:10396000044344F42044A4B2CFE7B0F5A54F22D2DB
:1039700045F25F23984252D845F23F2398420BD933
:10398000012300F00304C0F38202A34043EA421380
:1039900043F40C439CB2B8E745F21F23984237D852
:1039A000012300F00304C0F38502A34043EA42135D
:1039B00043F40D43EEE745F2BF2398420AD845F29F
:1039C0009F23984200F01F0034D84AF2F40343EAE0
:1039D00000249AE7A0F5A543403B9BB21F2B9BD840
:1039E000040204F4F85444F4204444F0F0048CE756
:1039F000A0F1240444F48044B5E7224B5834E4B2E7
:103A000033F8144044F488447FE740F4A044AAE724
:103A10004AF2F10300F01F0443EA042475E701238E
:103A200000F00304C0F38202A34043EA421343F4CC
:103A30000A43AFE700F0CAF8040204F4F85444F46F
:103A4000005462E700F01F0000F0C0F8C306C4F3A2
:103A5000431448BF0001240200B2044344F410445C
:103A600081E7C0F3042000F0B1F80546E0B200F0B1
:103A700027F82D0205F4F855054345F40055ACB27E
:103A800043E700BF86B7000882B0ADF80410C1F369
:103A90000721052906D89DF804200F2A02D802B074
:103AA00003F0BDBA002002B0704707B5ADF80410AE
:103AB0000199FFF7E9FF03B05DF804EBFFF70ABFD8
:103AC000E72850D8DF2807D8312865D00ED8292814
:103AD00058D02A2867D07047A0F1E003072B42D8BE
:103AE000DFE803F01541242933413D42392804D051
:103AF000822802D0352840D07047334B1A7892077D
:103B00005CD15B7813F0080F18BF292070472E4A4C
:103B10001378D9074ED4527812F0010F23D013F046
:103B2000100F08BFE32018BF00207047264B1B78FA
:103B300013F0040FF2E7244A137859073CD4527863
:103B4000D2073BD413F0100FEDE71F4B5A789107C3
:103B500009D51B7813F0100F08BFE720E3E71A4BD5
:103B60001B781A07F6D47047174A1378190727D419
:103B700052789107E6D5E4207047134B1B7813F079
:103B8000200FC1E7104B1A7892061BD45B7813F014
:103B9000080F18BF392070470B4B1B7813F0400FEC
:103BA00018BF2A207047084B1B7813F0400F18BF2E
:103BB0003120704739207047E2207047E02070477D
:103BC000E62070473520CEE7F827002010B52F4CAF
:103BD00021784B0713D500F01402A2F1040C00F079
:103BE0001803DCF1000242EB0C02A3F1080CDCF13B
:103BF000000343EB0C039A4218BF80F00C000B0744
:103C000013D500F01402A2F1140C00F01803DCF13B
:103C1000000242EB0C02A3F1180CDCF1000343EBB1
:103C20000C039A4218BF80F00C006478E30713D5A8
:103C300000F0110202F1FF3C00F01803DCF1000279
:103C400042EB0C02A3F1080CDCF1000343EB0C0384
:103C50009A4218BF80F00900A30711D500F01102A5
:103C600000F01803A2F111046242A3F1180C6241A2
:103C7000DCF1000343EB0C039A4218BF80F009000B
:103C8000CB0648BF00F0E70010BD00BFF8270020BA
:103C90000020704700207047014B1860704700BF3C
:103CA000C40D0020704708B5FFF7FCFF08BD08B53C
:103CB000FEF782FA08BD0000014B33F81000704790
:103CC0000628002070474FF4076005F061BB00BF75
:103CD00000BF00BF00BF00BF00BF00BF00BF00BFEC
:103CE00000BF00BF00BF00BF00BF00BF00BF00BFDC
:103CF00000BF704708B5FFF7E6FF08BD08B53023E1
:103D000083F31188012100F00F039940202220F055
:103D10000F0006F064FC002383F3118808BD000047
:103D200038B510240B4D55F8040B421C01D0FFF799
:103D3000E5FF013C14F0FF04F5D1074D55F8040BE5
:103D4000431C01D0FFF7DAFF0134E4B2062CF5D1B1
:103D500038BD00BFBCB70008FCB700082DE9F84328
:103D6000DFF89080054658F821300E465C1C174657
:103D70003ED0302282F31188012223F00F0903F094
:103D80000F0302FA03F421464846240406F027FCF8
:103D9000C9F81840002484F31188FFF798FF6FEAF0
:103DA000070EDFF854C0A91E0A355CF8042B31F861
:103DB000023F501C19D022F00F00006902F00F02E0
:103DC00020FA02F2D20710D401243B438D420B802B
:103DD000EBD158F82600431C01D0FFF78FFF214696
:103DE0003046BDE8F843FFF785BF03EA0E03EDE771
:103DF000BDE8F883BCB70008FCB7000810B50C2478
:103E0000FFF78EFF224600210748FCF737FB2246CA
:103E100000210648FCF732FB062000F039F8BDE827
:103E20001040FFF740BF00BF06280020FA270020FF
:103E300030B50024012585B00194029403942A46EC
:103E4000E1B201A80134FFF789FF6D00102CADB27B
:103E5000F5D10C220C4801A9FCF762FA002814BF26
:103E60000124002404D00C22074801A9FCF79EFC81
:103E7000234606220549044800F00CF80446FFF7E3
:103E800016FF204605B030BDFA2700200628002086
:103E9000704700002DE9F84307460E4615461C46BC
:103EA000DFF850804BB1012388F8003004F0ACFA01
:103EB000114B18600020BDE8F88398F80090B9F124
:103EC000000FF7D00C4B186804F0E2FA0028F1D08C
:103ED0006D002A4639463046FCF722FA28B12A46B8
:103EE00039463046FCF762FC4C460023204688F8F1
:103EF0000030E0E72815002024150020FFF774BCEF
:103F000008B504F043FA04F0C7FDFFF721FC04F004
:103F1000C5FDFFF759FC04F0D7FD04F0DBFDFFF70A
:103F2000EDFF04F0F3FD04F091FD02F0EDFFFFF76B
:103F300025FCF2E7002307B5014601220DF1070039
:103F40008DF8073000F08CF89DF8070003B05DF89D
:103F500004FB002307B5014602220DF10600ADF86F
:103F6000063000F07DF8BDF8060003B05DF804FBF4
:103F700007B50422002301460DEB0200019300F077
:103F80006FF8019803B05DF804FB07B501228DF8C6
:103F9000071001460DF1070000F067F803B05DF867
:103FA00004FB07B50222ADF8061001460DF106002C
:103FB00000F05BF803B05DF804FB07B50422019143
:103FC00001460DEB020000F050F803B05DF804FB71
:103FD000F8B505461446D31D23F0070300AFADEB3B
:103FE000030D68460E4600F03BF822466946284617
:103FF000FCF796F920B122463146284600F035F804
:10400000BD46F8BD38B50C460546FFF793FFA04204
:1040100005D021462846BDE83840FFF7B6BF38BD79
:1040200038B50C460546FFF794FFA04205D021465F
:104030002846BDE83840FFF7B4BF38BD38B50C4658
:104040000546FFF795FFA04205D021462846BDE86A
:104050003840FFF7B2BF38BD00F016B900F03CB8E9
:104060000B460146184600F051B80B46014618466B
:1040700000F09CB808B5064B4FF4006200211846CA
:10408000FCF7FCF940F60802C0F8002808BD00BFA4
:104090003015002010B5064C94F8043833B900F000
:1040A0006AF910B1012084F8040810BD0220FCE771
:1040B0003015002010B5074C94F804383BB100F0DF
:1040C00064F918B10023012084F8043810BD0220DF
:1040D000FCE700BF3015002038B5FFF7DBFF0446D2
:1040E00018B9FFF7E7FF204638BD00F046F905464E
:1040F000FFF7C0FF012C06D1FFF7DCFF00280CBF43
:10410000002505F001052C46EDE7000008B5034643
:1041100008469918B1F5006F05D804491944FCF711
:1041200045FB012008BD0020FCE700BF3015002042
:1041300070B500F022F9044618B3FFF7ABFF4FF457
:10414000807205461249002000F03CF9104E0446EA
:1041500078B10DA3D3E900234FF40061304602F09B
:10416000C5FD02460B464FF4006000F05DF94400C7
:10417000E4B2012D01D1FFF79DFF40F60803C6F818
:104180000038204670BD00BF25232284E49CF2CB7A
:1041900030150020044BD3F80038B3F5805F01D30D
:1041A000FFF7C6BF01207047301500202DE9F04F02
:1041B0008318B3F5006F04460E46154685B01CD82B
:1041C000DFF8BCB000EB0B0739463046FCF7A8F827
:1041D000002845D02A4631463846FCF7E7FAFFF773
:1041E00059FF824638B14FF000084FF000094DB931
:1041F000FFF7D0FF24E0FFF75DFF0023184605B06E
:10420000BDE8F08F052D2F4628BF0527C4F30243D4
:1042100043EAC703CDE902893A468DF808303146B2
:10422000230A0DF10B008DF809308DF80A40FCF7D8
:10423000BDFADDE90223DBF8000800F0F5F808B963
:10424000034613E0DBF800380833CBF80038FFF7FB
:10425000A1FF0128034605D1ED1B3C443E44C6E7BF
:104260000123CBE710F0FD0F18BF0023BAF1010FB7
:10427000C4D10193FFF71EFF0028BED0019BBDE70C
:1042800030150020000000007FB5FFF7F3FE00F0BE
:104290006DF828B9FFF7EEFE0024204604B070BD8B
:1042A0004FF480720020304900F071F82E4DA0B319
:1042B0002BA3D3E900234FF40061284602F016FD3A
:1042C00006460C464FF4006002A900F078F8DDE9DC
:1042D00002239C4208BF964201D0FFF7CBFE40F676
:1042E00008046946204600F06AF888B3DDE9003228
:1042F00053EA02012BD013F0C00FCDE9023204F1D2
:104300000804D9B20CD0C5F80048FFF711FF0446E5
:104310000028C2D1FFF7AEFEBFE7FFF7ABFEB9E75B
:1043200003F47F40C3F3074318430B0403F4E02373
:104330001843CA0800EBD101B1F5006FE3D80DF1C5
:104340000B012844FCF732FAB4F5805FC9D1012093
:10435000C5F800480028D8D0FFF71CFFD7E700BFFA
:1043600025232284E49CF2CB3015002008B500F010
:10437000DBF8012008BD0120704708B5002000F0DF
:10438000D5F8B0FA80F0400908BD0120704738B573
:10439000D5002A460C4600F0E6F818B92146254417
:1043A000A94203D1B0FA80F0400938BDD1E9002319
:1043B000D243DB4341F8082B41F8043CF0E70122EB
:1043C000FFF7E5BF2DE9F047064689461546002769
:1043D000C0B0202DAA4628BF4FF0200A4FEACA08D5
:1043E00009EBC70142466846FCF7E0F9002469463C
:1043F00054450DD142466946304600F0D2F888B99E
:104400002D1B46442744E4D1012040B0BDE8F0878D
:10441000D1E90023D243DB4341F8082B41F8043CA7
:104420000134E5E70020F0E707B5CDE90023694650
:104430000122FFF7C7FF03B05DF804FB0022082349
:104440001146014804F066B80E04004008B5FFF7B5
:10445000F5FF30B1062004F09DF804F0D3F80020F9
:1044600008BD4FF0FF30FBE7F7B51F464BBA090C0C
:10447000064615468DF80400ADF806308DF8051097
:10448000FFF7DCFFE8B104210DEB010004F0A6F812
:10449000044648B945B1022E0BD0032E0ED1284652
:1044A000B9B204F0A5F8044604F0ACF8204603B015
:1044B000F0BD2846B9B204F091F8F4E74FF0FF34AC
:1044C000F2E74FF0FF34F1E710B5FFF7B7FF88B11F
:1044D000052004F05FF804F06FF8044604F092F849
:1044E000002C05DB14F0010F0CBF00246FF0030457
:1044F000204610BD4FF0FF34FAE710B5044603F034
:1045000083FF4FF47A7303FB040403F07DFFA042A2
:1045100004D2FFF7D9FF031DF7D010BD6FF00100E3
:10452000FBE70120FFF7E9BFFDF77ABC00F5803318
:10453000B3F5002F10B5044612D283B283B9FFF74A
:10454000F0FF78B9FFF782FF60B9034602462146C3
:10455000D820FFF789FF28B9BDE81040FFF7E1BF79
:104560004FF0FF3010BD2DE9F04107460D461646CD
:10457000FFF7D7FF0446804638B13246002128466F
:10458000FBF77CFF2046BDE8F08133462A463946DA
:104590000320FFF769FF04460028F3D03246414666
:1045A000EDE72DE9F04107468846164676B9FFF754
:1045B000B8FF044638B9FFF741FF20B3042003F0E9
:1045C000E9FF04F01FF82046BDE8F081FDB2C5F513
:1045D0008075B54228BF3546FFF7A3FF0446002883
:1045E000F1D1FFF733FF04460028ECD12B464246B9
:1045F00039460220FFF738FF04460028E3D1A844DB
:104600002F44761BD2E74FF0FF34DCE730B510F4CF
:104610007F4F85B00190C0F30725C0F307420DD14D
:1046200009B1304B9A5C13461146002063F3070032
:1046300061F30F2062F3174005B030BD9DF80440D0
:10464000002937D0274B995C0620FF2360435A1B73
:10465000B0FBF3F06FF05403434303EB440303EB6D
:104660004303DBB203FB05F4C3F1FF036B432412E6
:104670001B12C4F1FF04C3F1FF034A434C434B43F5
:10468000C2F30722C4F30724C3F30723C9B20628E1
:1046900024D801A555F820F02B460008B94600089B
:1046A000BF460008C9460008D3460008DD4600089A
:1046B0002B4600081146C7E70B462146B5E71846CA
:1046C0000B4611460246B0E70B4611461A462346F2
:1046D000ABE7184613460A460146A6E713462246AC
:1046E000A3E700BF2CB80008012184B004B0FFF795
:1046F0008DBF012830B501D8C0B230BDB0F5F75F2D
:1047000088BFFF224FF001049EBF42090832D2B297
:10471000A3185910C3F34705C3F34F035B439BB280
:10472000984206D2013DEAB29442F1D9013CE0B28E
:10473000E3E7FF2902D00135ECB2F5E70846DCE7F4
:10474000074B188800EB402200EB820000F5585020
:10475000193080B2188000EB1020C0B2704700BF43
:10476000CE0D002041064CBFC343024610B548BFE2
:10477000DAB20D4CC2F3011204EB420148BF03F060
:104780000F03497854BF00F00F030133594314F865
:104790001230020603EB2113DBB244BF5B42DBB2F3
:1047A00083F0800010BD00BF14B8000884B0134B24
:1047B0000190303113F81130E4214B43C2EB132345
:1047C0001C33002BC0F30720B8BF5B42A0EBC30330
:1047D0001BB223EAE373434300201B128DF805301C
:1047E000019BDAB262F30700C3F3072262F30F20E2
:1047F000C3F3074363F3174004B070475C0C002019
:1048000084B0134B0190303113F81130E4214B4345
:10481000C2EB13231C33002BC0F30740B8BF5B422D
:10482000A0EBC3031BB223EAE373434300201B1234
:104830008DF80630019BDAB262F30700C3F307225A
:1048400062F30F20C3F3074363F3174004B07047CC
:104850005C0C002084B0019000208DF80420019BA6
:10486000DAB262F30700C3F3072262F30F20C3F347
:10487000074363F3174004B07047000084B0019011
:1048800000200A4B303113F811309B1A8DF8043098
:10489000019BDAB262F30700C3F3072262F30F2031
:1048A000C3F3074363F3174004B070475C0C002068
:1048B00084B0019000200B4B03EB410393F861306F
:1048C0009B1A8DF80430019BDAB262F30700C3F340
:1048D000072262F30F20C3F3074363F3174004B0CA
:1048E000704700BF5C0C002030B5134D85B03031EF
:1048F000019005EB41035B78C0B2A3F11E0464B2E2
:10490000002CBCBFC3F11E035CB215F811309A1A1B
:10491000224410448DF804000020019BDAB262F3B7
:104920000700C3F3072262F30F20C3F3074363F3C7
:10493000174005B030BD00BF5C0C002084B0019072
:1049400000209DF8102003EB430302EB53038DF886
:104950000430019BDAB262F30700C3F3072262F36B
:104960000F20C3F3074363F3174004B070471FB52C
:1049700092B2019048B2002802FB02F2BCBF494249
:1049800048B2C0F1260000FB002080B21C46FFF7B1
:10499000B0FE00EB4000044400208DF80440019B71
:1049A000DAB262F30700C3F3072262F30F20C3F306
:1049B000074363F3174004B010BD00001FB5124C4D
:1049C0000190303304EB430014F8133040784D3B32
:1049D0004B431E3802FB003200209DF80430002AB1
:1049E000B8BF7F3203EBE2138DF80430019BDAB2DB
:1049F00062F30700C3F3072262F30F20C3F30743F8
:104A000063F3174004B010BD5C0C00201FB5124CBE
:104A10000190303304EB430014F8133040784D3BE1
:104A20004B431E3802FB003200209DF80430002A60
:104A3000B8BF3F3203EBA2138DF80430019BDAB20A
:104A400062F30700C3F3072262F30F20C3F30743A7
:104A500063F3174004B010BD5C0C002030B5174D57
:104A600085B03033019005EB43046478C0B21E3C3E
:104A7000544315F81320A2F14D035BB2002BBCBFC9
:104A8000C2F14D0253B2C3F1380301FB034111EBF4
:104A9000410148BF7F3100EBE1108DF80400002098
:104AA000019BDAB262F30700C3F3072262F30F201F
:104AB000C3F3074363F3174005B030BD5C0C00201F
:104AC00030B50D4685B00190C4B21046FFF74AFEDE
:104AD000124B303513F81530C218D2B2A2F1800350
:104AE0005BB2002BBCBFC2F1800253B20C2200208B
:104AF0005B00DBB2534304EB13248DF80440019BAD
:104B0000DAB262F30700C3F3072262F30F20C3F3A4
:104B1000074363F3174005B030BD00BF5C0C0020B5
:104B200084B0114B0190303113F81110C0B28B1AC0
:104B30005BB2002BBCBF521A53B21822DBB25343F4
:104B400000EB13208DF804000020019BDAB262F321
:104B50000700C3F3072262F30F20C3F3074363F395
:104B6000174004B0704700BF5C0C0020C94384B0FC
:104B70000190C9B2C0F307404143002009128DF8EB
:104B80000610019BDAB262F30700C3F3072262F357
:104B90000F20C3F3074363F3174004B07047C943C2
:104BA00084B0C1F385010190014400208DF8041008
:104BB000019BDAB262F30700C3F3072262F30F200E
:104BC000C3F3074363F3174004B0704784B003EBAB
:104BD0008302BDF81030019013449BB2FF2B28BF15
:104BE000FF23DB43C0F30740DBB20344FF2B28BFA6
:104BF000FF2300208DF80630019BDAB262F3070034
:104C0000C3F3072262F30F20C3F3074363F3174094
:104C100004B0704700291FB5B8BF4942002AB8BF89
:104C2000524209B2090112B2FF294FEA0212A8BF8B
:104C3000FF21FF2AA8BFFF22BDF8184009B2234474
:104C400012B29BB29142D4BF5B189B189BB2FF2B50
:104C500028BFFF23DB430190DBB2C0F307400344CE
:104C6000FF2B28BFFF2300208DF80630019BDAB20E
:104C700062F30700C3F3072262F30F20C3F3074375
:104C800063F3174004B010BD1FB5482B0190C0F36B
:104C9000074030D8BDF81840E31A9BB2FF2B28BF5D
:104CA000FF23083189B2102905D902F1080189B220
:104CB000112928BFFF23DB43DBB21844002AB8BF09
:104CC0000332FF2828BFFF208DF8060000200B4983
:104CD000497801EBA2028DF80420019BDAB262F35D
:104CE0000700C3F3072262F30F20C3F3074363F304
:104CF000174004B010BDFF23D3E700BF18280020E1
:104D000084B0BDF81020C0F30741D31A9BB2FF2B2B
:104D100028BFFF23DBB2DA43D2B21144FF2928BFF8
:104D2000FF210190034400208DF804308DF8061017
:104D3000019BDAB262F30700C3F3072262F30F208C
:104D4000C3F3074363F3174004B0704784B0BDF862
:104D500010200190D31A9BB2FF2B28BFFF23DB4307
:104D6000C0F30740DBB20344FF2B28BFFF23002022
:104D70008DF80630019BDAB262F30700C3F3072215
:104D800062F30F20C3F3074363F3174004B0704787
:104D9000024B1A7810431870704700BF721E002033
:104DA000012310B5044C0822172104482370FFF793
:104DB00057F90023237010BD721E00201828002010
:104DC00010B5044610B9C90FC80110BD80EAE072E1
:104DD000A2EBE07212B2002901EB02030CDB891A8C
:104DE000490191FBF3F1C1F120014BB2D8B2002C83
:104DF000BCBF4042C0B2E8E75B01521A93FBF2F33A
:104E0000C3F160035BB2F1E730B5C0F3072585B0AD
:104E1000EB1A01901046DCB2FFF7D2FFC0EB801313
:104E200000EB830004440020E4B26C4324128DF8AC
:104E30000540019BDAB262F30700C3F3072262F375
:104E40000F20C3F3074363F3174005B030BD30B5FF
:104E5000C0F3074585B0EB1A01901046DCB2FFF7AE
:104E6000AFFFC0EB801300EB830004440020E4B2EA
:104E70006C4324128DF80640019BDAB262F30700FE
:104E8000C3F3072262F30F20C3F3074363F3174012
:104E900005B030BD30B585B0C0F3072501909DF851
:104EA00020001C1A1046FFF78BFF2C44E4B2241A92
:104EB0000020E4B26C4324128DF80540019BDAB265
:104EC00062F30700C3F3072262F30F20C3F3074323
:104ED00063F3174005B030BD30B585B0C0F307456A
:104EE00001909DF820001C1A1046FFF769FF2C4422
:104EF000E4B2241A0020E4B26C4324128DF8064078
:104F0000019BDAB262F30700C3F3072262F30F20BA
:104F1000C3F3074363F3174005B030BD1FB50190DD
:104F200010461C46FFF74CFF031900208DF8043093
:104F3000019BDAB262F30700C3F3072262F30F208A
:104F4000C3F3074363F3174004B010BD1FB50190CE
:104F50009DF818001C1A1046FFF732FFE4B2241A1D
:104F600000208DF80440019BDAB262F30700C3F31E
:104F7000072262F30F20C3F3074363F3174004B023
:104F800010BD0000082208B517210348FFF720F8DC
:104F90000022024B1A7008BD18280020721E002043
:104FA00084B004B0FFF7A0BB2DE9F74F314D0746A1
:104FB00005EB00135A5C8846FF2A4FEA001626D0FC
:104FC0000024DFF8B4B05E440E444FF0000905EB56
:104FD00004130BEB041A13F801CBBCF1FF0F0CD038
:104FE000E1B28F4216D15FFA89F1884512D131784A
:104FF0002031FF2928BFFF21317009F10109B9F1E2
:10500000100F0AF1010AE6D10134062CDDD103B0FC
:10501000BDE8F08F02F130000CF1300C15F81CE007
:1050200015F8101005EB4C0CA1EB0E0189B24943A9
:1050300005EB40009CF801C040780193A0EB0C0008
:1050400000FB001080B20092FFF753FBDDE9002364
:105050002828D2D8C0F1280189B2102928BF1021F0
:105060009AF80000C9B20144FF2928BFFF218AF83D
:105070000010C2E75C0C0020A11E0020FFF782BFD9
:1050800010B5084C35232046032200F8013B0649A1
:10509000FBF78CFB4FF6C373A380BDE81040FFF70E
:1050A00071BF00BF1828002034B3000800207047EB
:1050B00070B506460D461446FFF7F8FF044B03EBA8
:1050C00006135B5DFF2B1EBF23540130C0B270BDC1
:1050D0005C0C0020014BDB68184700BF1CB80008BF
:1050E00010B4024C6468A44610BC60471CB80008A9
:1050F00037B5194B0446034493F80831194229D0B7
:10510000164B9A7859788DF80120DA788DF80220BC
:10511000FFF716FB4FF4B47201F1B403B3FBF2F5E1
:1051200002FB15335B1A48BF03339B1000F00300EA
:1051300003FB00118DF800100098FFF731FFC0F35A
:105140000743C2B2C0F30721204603B0BDE8304098
:10515000FFF7C6BF03B030BD5C0C0020182800204C
:1051600013B5134B0446034493F8083119421CD07D
:10517000FFF7E6FA8DF80000FFF7E2FA40F3570375
:105180007F338DF801300B4BDB788DF802300098BF
:10519000FFF706FFC0F30743C2B2C0F30721204662
:1051A00002B0BDE81040FFF79BBF02B010BD00BFCA
:1051B0005C0C002018280020014B9B68184700BF9A
:1051C0001CB800082DE9F04F534B87B0DC78534EE4
:1051D00004EB44034FEAA30B9B080193FF23B3FBAB
:1051E000F4F3009383785BB1002211461046FFF779
:1051F000E3FF602200214A48FBF740F900233370A7
:105200000025484FDFF818A13B7801333B70A4EB31
:105210000B030293D0464FF0000932785FFA89F30E
:105220001A4362D10393FBF735F83F4B9842039B37
:105230005BDC8AF800402946184604AAFFF738FFCD
:1052400090B198F80020019B9DF810009A425BD91C
:10525000A2EB0B030BFB03F3029A93FBF2F3224640
:10526000DBB21946FFF73CFF09F10109B9F1060F5E
:1052700008F11008D1D10135EDB2102D0AF1010A63
:10528000C8D13B78009A934204BF00233B70337827
:105290000133DBB21C2B3DD900233370234E052391
:1052A0003546671E304629461022052B04D190F85A
:1052B00000C0644508BF077011F810CC013AA4453E
:1052C00024BF01F8107C0C7012F0FF0201F1010103
:1052D00000F10100E9D1013B13F0FF03A5F1100536
:1052E000E0D1002007B0BDE8F08F98F80020002A38
:1052F000A1D094429FD939780098814204BF02F12D
:10530000FF3288F8002096E76243B2FBFBF20023ED
:10531000D2B2A6E73370E4E718280020711E0020FF
:10532000A11E0020701E002054555505F11E0020BE
:105330002DE9F04F85B00F4615460190FEF716FA9D
:105340008046002850D0002D51D03946019802AA3D
:10535000FFF7AEFE0446354E33782344082B22DD9A
:10536000C4F1080A611C52463144701CFBF71EFA56
:1053700004F109015246314406F10900FBF716FA1F
:1053800006EB44014FEA4A02193106F11900FBF716
:105390000DFA04F111015246314406F11100FBF7F8
:1053A00005FA86F800A002AB00930023194699463F
:1053B00096F800B0DFF874C0DFF874E0D8B200EB04
:1053C0000B0A84425FFA8AF613D811B1174B5C447A
:1053D0001C704DB1174B1B7803F0FC037C2B03D1E1
:1053E00039460198FFF7E0FD05B0BDE8F08F2C4687
:1053F000B1E7009A0CEB060012F801AB01330AF199
:10540000300100921EF811200EEB410149784270E4
:10541000417206F10C010CEB410181F8019081F819
:10542000029080F811A04146C8E700BF731E00201B
:105430005C0C0020182800200120704708B5FFF7F9
:10544000FBFF08BD00EB0010C3B2002003F1110206
:10545000D2B2542A63F30700134628BF542382B004
:1054600063F30F2002B070472DE9F04F074689B073
:1054700000780291FFF7E6FFDFF8B8802E4BC4B248
:105480001D8898F80430C0F3072B5B085D432B4B55
:10549000C5F3072503EB440603F58479E3B29B4586
:1054A00007D8BBF1530F8CBF0020012009B0BDE825
:1054B000F08F19F804207B781A4238D096F86120D2
:1054C00096F860101E3A92B202FB02F04D391FFAB4
:1054D00081FA0AFB0A0080B20392FFF70AF90095ED
:1054E000034698F801C098F8020098F803E0039A80
:1054F0004CEA002012B20FFA8AF1DDF808C040EA47
:105500000E40E047C0F307238DF81C00C0F30740AE
:105510008DF81D308DF81E000798FFF741FDC0F390
:105520000743C2B2C0F307212046FFF7D9FD023678
:105530000134B3E718280020202800205C0C00204C
:105540000149FFF791BF00BF954E00080149FFF7E1
:105550008BBF00BFD94E00080149FFF785BF00BFD0
:105560003D4900080149FFF77FBF00BF4D4F0008CC
:105570002DE9F04F074685B00078FFF763FF8A46B4
:10558000DFF89480254B98F804501B886D085D4324
:10559000234BC4B2C0F3072BC5F3072503EB440626
:1055A00003F58479E3B29B4507D8BBF1530F8CBF59
:1055B0000020012005B0BDE8F08F19F804207B78A9
:1055C0001A4226D098F8023098F8010098F803C0E3
:1055D00096F8612096F8601040EA03201E3A4D3993
:1055E0002B4640EA0C40D047C0F307238DF80C004F
:1055F000C0F307408DF80D308DF80E000398FFF7CB
:10560000CFFCC0F30743C2B2C0F307212046FFF727
:1056100067FD02360134C5E7182800202028002045
:105620005C0C00200149FFF7A3BF00BF094E000832
:105630000149FFF79DBF00BF4F4E00080149FFF72A
:1056400097BF00BF6F4900080149FFF791BF00BF36
:105650001D4F00082DE9FF4706460078FFF7F2FED0
:1056600088461F4F1F4A3B7915889B0803FB055549
:10567000DFF874A0C0F30729C5F30725C4B2E1B26F
:10568000894507D8B9F1530F8CBF0020012004B021
:10569000BDE8F0871AF8042073781A421DD0BA7852
:1056A0007B78F87843EA022343EA00402A46C04761
:1056B000C0F307238DF80C00C0F307408DF80D30C0
:1056C0008DF80E000398FFF76BFCC0F30743C2B2DE
:1056D000C0F307212046FFF703FD0134CFE700BFE9
:1056E0001828002020280020640D00200149FFF721
:1056F000B1BF00BFAD4700080149FFF7ABBF00BF16
:10570000014800080149FFF7A5BF00BF5548000840
:105710000149FFF79FBF00BF7D4800080149FFF71F
:1057200099BF00BFB14800080149FFF793BF00BF10
:10573000E94800080149FFF78DBF00BFC14A0008D2
:105740000149FFF787BF00BF214B00082DE9F04F4B
:10575000804689B00078FFF775FEDFF8A490294BEA
:1057600099F804401B88A4085C43C4F30724C6B21C
:10577000C0F3072504F14000C0B28A46FEF7F2FFED
:10578000803843B220460393FEF7ECFFDFF878B091
:10579000A0F180077FB2F3B29D4206D8532D8CBF93
:1057A0000020012009B0BDE8F08F1BF8061098F822
:1057B0000120114222D0009499F8022099F80100AA
:1057C00099F803C040EA022003993A4640EA0C40A7
:1057D000D047C0F307238DF81C00C0F307408DF8B5
:1057E0001D308DF81E000798FFF7DAFBC0F3074362
:1057F000C2B2C0F307213046FFF772FC0136CAE798
:105800001828002020280020640D00200149FFF7FF
:105810009DBF00BFBD4900080149FFF797BF00BF0A
:105820000D4A00080149FFF791BF00BF5D4A00081B
:105830002DE9F04F324D074685B00078FFF702FEA4
:105840002B794FF6FF760133FF2B28BFFF238846C5
:10585000B6FBF3F6DFF8ACB0DFF8ACA0C0F3072975
:10586000C4B2E1B2894507D8B9F1530F8CBF00200B
:10587000012005B0BDE8F08F1BF804207B781A42A8
:105880002CD09AF800302148013B5BB21A0627D58C
:10589000324629796B780131FF2928BFFF21514316
:1058A000AA78E87843EA0223C1F30F2143EA0040D3
:1058B000C047C0F307238DF80C00C0F307408DF8F4
:1058C0000D308DF80E000398FFF76AFBC0F3074315
:1058D000C2B2C0F307212046FFF702FC0134C0E743
:1058E000C25C8A420AD103F10C020AEB420292F82E
:1058F00001C092784CEA0222B242CAD3013BC5E70A
:1059000018280020640D00202428002035280020BD
:105910000149FFF78DBF00BF6D4B00080149FFF73C
:1059200087BF00BF9F4B00082DE9F04F82468DB026
:1059300008780492FFF786FD8B46414BC4B21B7872
:10594000C0F3072903933F4B03EB440603F584732D
:105950000593E3B2994507D8B9F1530F8CBF0020E6
:1059600001200DB0BDE8F08F059B1A5D9BF801305A
:105970001A421ED057460025032233490AA8FAF7D7
:1059800015FF2F4B0AEB0308039AFBB29A4213D878
:105990002E4BDB786B431B128DF82A300A98FFF7E9
:1059A000FFFAC0F30743C2B2C0F307212046FFF756
:1059B00097FB01340236CCE718F8013F96F86010E7
:1059C00096F86120C91A98F8083089B2D21A92B2B2
:1059D00002FB02F001FB010080B207920691FEF784
:1059E00088FE1A4B07F10C0E93F804C0144B0CF10F
:1059F000010CBCF1FF0F28BF4FF0FF0C03EB4E0E64
:105A00009EF801309EF802E0079A43EA0E2303FB5A
:105A10000CFC0699CCF30F238DF82A500093049DBB
:105A2000034612B20A9809B2A847C0F307238DF8BB
:105A300028008DF82930C0F307450137A4E700BFDF
:105A4000242800205C0C00201928002018280020A1
:105A5000044B01461B78044A013B23EAE373D8B2A6
:105A6000FFF762BF24280020CD4B00080146024A00
:105A70000020FFF759BF00BFCD4B0008044B014683
:105A80001B78044A013B23EAE373D8B2FFF74CBF0B
:105A900024280020154C00080146024A0020FFF788
:105AA00043BF00BF154C0008044B01461B78044A55
:105AB000013B23EAE373D8B2FFF736BF2428002066
:105AC000894C00080146024A0020FFF72DBF00BFA5
:105AD000894C0008044B01461B78044A013B23EA29
