:10000000020066029B18010A32646402ACAC53DA47
:10001000DF320002ACB2758F01220002ACB8E4F509
:100020009675945F7595777591C0900F3404F09034
:100030000F36F0E4900F32F0A3F02202A545020043
:100040005600000225F4000000000002AB3F000053
:1000500000000002AB53439708439702E4900F421D
:10006000F0220002000E78FFE4F6D8FD9000007F39
:10007000007E10E4F0A3DFFCDEFA75812C0200BBE9
:100080000283D5E493A3F8E493A34003F68001F23E
:1000900008DFF48029E493A3F85407240CC8C33381
:1000A000C4540F4420C8834004F456800146F6DF50
:1000B000E4800B0102040810204080902AB2E47E04
:1000C000019360BCA3FF543F30E509541FFEE49345
:1000D000A360010ECF54C025E060A840B8E493A30C
:1000E000FAE493A3F8E493A3C8C582C8CAC583CA37
:1000F000F0A3C8C582C8CAC583CADFE9DEE780BEEF
:10010000900F4A7411F0A3E4F0900F4AE0FEA3E0D0
:10011000FFF5828E83E0900F28F08F828E83A3E01C
:10012000900F29F0900F4AA3E0F5828E83A3A3E0FD
:10013000900F2AF08F828E83A3A3A3E0900F2BF061
:10014000900F4AA3E02404F582E43EF583E0900F8B
:100150002CF0EF2405F582E43EF583E0900F2DF0BE
:10016000900F4AA3E02406F582E43EF583E0900F69
:100170002EF0EF2407F582E43EF583E0900F2FF098
:1001800022E4F5B1D39009ACE094B89009ABE094C7
:100190000B406B301768C217E4F0A3F0FBFDFF12B1
:1001A0008989127FD812886E7BFF7DFF7FFF1289BD
:1001B000897F9612AA61E4FBFDFF1289897F96125E
:1001C000AA617BFF7DFF7FFF1289897F9612AA615A
:1001D000E4FBFDFF1289897F9612AA617BFF7DFFF8
:1001E0007FFF1289897F9612AA61E4FBFDFF1289C5
:1001F000897F9612AA61C219C250D231D20122005F
:10020000900F49E0FFB4041BE4F0A37411F0A3E4E1
:10021000F0900F4AE0FCA3E0F5828C83E0900F4160
:1002200002054FEFB40607E4900F4902054F900F07
:1002300049E06409600302054B900F43E07004A39A
:10024000E0640660030202F1900F4A7411F0A3E427
:10025000F0900F4AE0FEA3E0FFF5828E83E0B40544
:1002600010A3E0B4750BE4900F49F012AC6D0205D9
:1002700049900F4AE0FEA3E0F5828E83E0B4051AB0
:10028000A3E0B4A515D24D900F4AA3E0F5828E836A
:10029000A3A3E09008E7F0020549900F4AE0FEA30F
:1002A000E0F5828E83E0FDB40513A3E0B45A0EC2DC
:1002B0004DE49008E7F0D231D201020549ED640522
:1002C0006003020549900F16F0900F16E0FF900FA3
:1002D0004AE0FCA3E02FF582E43CF583E0FE7408DD
:1002E0002FF8A606900F16E004F0E0B408DB020534
:1002F00049C3900F44E09408900F43E094005003EA
:10030000020549900F3EE09408900F3DE0940050A4
:100310003E900F4A7411F0A3E4F0900F16F0900F86
:1003200016E0FF900F4AE0FCA3E02FF582E43CF5D5
:1003300083E0FE74082FF8A606900F16E004F0E0A4
:10034000B408DB12AB15900F3DE4F0A37408F090F5
:100350000F43E064017004A3E0647E600302047153
:10036000900F167404F0900F16E0FFC39408502904
:1003700074082FF8E6FF900F24E0FCA3E0F5828CD0
:1003800083EFF0900F25E004F07006900F24E00456
:10039000F0900F16E004F080CDE4900F17F0900F6E
:1003A0004A7411F0A3E4F0900F16F0900F16E0FFDE
:1003B000C394085041900F4AE0FCA3E02FF582E47B
:1003C0003CF583E0FF900F24E0FCA3E0F5828C83F2
:1003D000EFF0900F25E004F07006900F24E004F099
:1003E000900F3EE004F07006900F3DE004F0900F97
:1003F00016E004F080B512AB15900F17E004F0E0A2
:10040000C3942E4099900F4A7411F0A3E4F0900F1A
:1004100016F0900F16E0FFC394065041900F4AE08B
:10042000FCA3E02FF582E43CF583E0FF900F24E08D
:10043000FCA3E0F5828C83EFF0900F25E004F070D0
:1004400006900F24E004F0900F3EE004F070069058
:100450000F3DE004F0900F16E004F080B5900F3DE2
:100460007401F0A3747EF0E4900F49F0D2560205B7
:1004700050E4900F17F0900F4A7411F0A3E4F0903D
:100480000F16F0900F16E0F9C394085040900F3EFD
:10049000E024F8FF900F3DE034FFFE900F4AE0FCAF
:1004A000A3E029F582E43CF583E0FD740F2FF5828B
:1004B000740A3EF583EDF0900F3EE004F070069074
:1004C0000F3DE004F0900F16E004F080B6900F3D71
:1004D000E0FEA3E0FF900F43E06E7003A3E06F70B7
:1004E00056900F49F0D21A9009E7F012A8D4780973
:1004F000E624FDB40700503D90050675F003A4C541
:100500008325F0C5837302051B020527020522021D
:100510000527020527020527020529129F92D242CC
:100520008013E4F5B1800B8009D201D231E4900848
:10053000E2F0129796801912AB15900F17E004F0B5
:10054000E0C3948050030204768005E4900F49F0E4
:10055000539BF043970422E4900F03F030191EC31D
:10056000900359E09464900358E094005003020F04
:10057000107BFF7DFF7FFF128989020E8D300019ED
:10058000C3900359E09464900358E0940050030230
:100590000F10E4F0A3F002ABDC90019BE09092EE30
:1005A00093FF900E35E0D39F4002EFF090019BE067
:1005B00090932093FF900E32E0D39F4002EFF09093
:1005C000019BE0FA90019CE0FF900E32E0900EFB60
:1005D000F0900E35E0F9305002E4FA203124900812
:1005E000E2E0B5021D9008E4E0B50716900EFBE0CE
:1005F000FE900A02E0B5060A90035AE06970030211
:100600000B2AC2319008E2E0B502079008E4E06FDF
:1006100060169008E2EAF09008E4EFF0D201C2021E
:10062000E4FF12AAFF12ABDC900EFBE0FF900A027F
:10063000E0B5070790035AE0696017EA64016010AB
:10064000EA6408600BEA64096006EAC39420400289
:10065000D201900A02EFF090035AE9F0EA127B34DB
:1006600006BB0006CA0106DA0206EA0306FA040718
:100670005F0507730607860708070808190908D2E7
:100680000A08E20B08F20C098F0D0A0F0E0A1F0F61
:100690000A35100A4B110A61120A77130A8D140BDE
:1006A000281509A52009B32109C12209CF2309DD95
:1006B0002409EF2609FF2D00000B2A200103020B5D
:1006C0002AC201D202C24A020B2A200103020B2ACB
:1006D000C201D20212AC94020B2A30010312AC61A7
:1006E000900E35E0901940020B1C30010312AC61F2
:1006F000900E35E090194F020B1C30010512A4300A
:1007000080539008FBE020E74C900E34E090B4FE5C
:1007100093FE5407900EF9F0EE131313541FA3F039
:10072000E0FF249EF582E43401F583C083C082E0BB
:10073000FE900EF9E0FD7401A805088002C333D8CD
:10074000FCFD4ED082D083F0740B2FF582E4340090
:10075000F583E04DF0900E35E090194A020B1C3005
:100760000107C201D20212AC47900E35E090196821
:10077000020B1C30010612ABD612A0AD900E35E074
:10078000901959020B1C30010312A4309008FBE0B1
:1007900020E76A900E34E090B4FE93FE5407900E6A
:1007A000F9F0EE131313541FA3F0E0FF24FCF582BD
:1007B000E43408F583C083C082E0FE900EF9E0FDCA
:1007C0007401A805088002C333D8FCFD4ED082D046
:1007D00083F0743D2FF582E43403F583E04DF0900F
:1007E0000EFAE0FF249EF582E43401F583E04DF03B
:1007F000740B2FF582E43400F583E04DF0900E3554
:10080000E0901968020B1C200103020B2AC201D2DE
:1008100002C24A12A68A020B2A300107C201D20282
:10082000126F2D900E34E0FF90B4FE93F47003022B
:100830000B2AEF93FE5407900EF9F0EE13131354A6
:100840001FA3F0E0FF900EF9E0FE75F015A424441C
:10085000F582E43418F583E5822FF582E43583F5DB
:1008600083E493900EFCF0EE75F015A424C2F5829B
:10087000E43418F583E5822FF582E43583F583E4CB
:1008800093900EFDF0900E35E090194F93FF900875
:10089000F2E4F0A3EFF09008FBE0900EFD20E71EDD
:1008A000E0FF900EFCE0FDE4FB1272EF900EFDE025
:1008B000FF900EFCE0FD7B0112A58D020B2AE0905B
:1008C0000EFC12A588900EFDE0900EFC1274CE0274
:1008D0000B2A30010312AB67900E35E090197202BB
:1008E0000B1C30010312AC61900E35E090195E02D2
:1008F0000B1C30010312ABD6900E34E0FF90B4FE17
:1009000093F47003020985EF93FE5407900EF9F0FB
:10091000EE131313541FA3F0E0FF900EF9E0FE75E1
:10092000F015A42444F582E43418F583E5822FF50C
:1009300082E43583F583E493900EFCF0EE75F015B8
:10094000A424C2F582E43418F583E5822FF582E40D
:100950003583F583E493900EFDF09008FBE0900E54
:10096000FD20E715E0900EFC12510C900EFDE0FF0B
:10097000900EFCE0FD7B018009E0FF900EFCE0FDA5
:10098000E4FB12A58D900E35E0901945020B1C304A
:100990000109C201D202C24A12A106900E35E090AE
:1009A0001963020B1C200103020B2AC201D202E4CC
:1009B000FF8036200103020B2AC201D2027F018090
:1009C00028200103020B2AC201D2027F02801A20D2
:1009D0000103020B2AC201D2027F03800C20010313
:1009E000020B2AC201D2027F041234F8020B2A2021
:1009F0000103020B2AC201D20212AB6D020B2A3094
:100A00000107C201D202127849129050020B2A301B
:100A1000010312AB67900E35E090196D020B1C308C
:100A20000109C201D202C24A12A60D900E35E09011
:100A30001986020B1C300109C201D202C24A12AC53
:100A4000CA900E35E090197C020B1C300109C201DE
:100A5000D202C24A12AC94900E35E0901981020B7A
:100A60001C300109C201D202C24A12AC9C900E3560
:100A7000E0901972020B1C300109C201D202C24A75
:100A800012ACA4900E35E0901972020B1C300109D3
:100A900012A430900E60E004F09008FBE020E775AF
:100AA000900E60E0C3941E4002E4F0900E34E0909B
:100AB000B4FE93FE5407900EF9F0EE131313541F77
:100AC000A3F0E0FF24FCF582E43408F583C083C082
:100AD00082E0FE900EF9E0FD7401A805088002C3D3
:100AE00033D8FCFD4ED082D083F0743D2FF582E4E4
:100AF0003403F583E04DF0900EFAE0FF249EF5827A
:100B0000E43401F583E04DF0740B2FF582E43400FA
:100B1000F583E04DF0900E35E090196893FF900852
:100B2000F2E4F0A3EFF08002D202200203020F10E1
:100B30009008E2E0127B340B8C010BB8020BD60359
:100B40000BF4040C20050C4C060C6A070C96080CE0
:100B500099090CB70A0CE30B0D050C0D230D0D9C28
:100B60000E0DC80F0DE6100E05110E26120E4513C0
:100B70000E64140E95150E9D200EB3210ECA220E82
:100B8000E1230EF8240D4F2600000F10C3900359E7
:100B9000E09428900358E094005003020F1090084E
:100BA000FAE004F0E0D3940940037409F09008FAE5
:100BB000E0FF125F32020E8D9008F2E0FEA3E0FF2C
:100BC000C3900359E09F900358E09E5003020F101A
:100BD000122EBC020E8D9008F2E0FEA3E0FFC3903F
:100BE0000359E09F900358E09E5003020F101285B6
:100BF00008020E8D9009D1E0D3940F4005E4F01265
:100C0000438B9008F2E0FEA3E0FFC3900359E09FFE
:100C1000900358E09E5003020F101266A1020E8D41
:100C20009009D1E0D3940A4005E4F012438B900878
:100C3000F2E0FEA3E0FFC3900359E09F900358E069
:100C40009E5003020F10129581020E8D9008F2E063
:100C5000FEA3E0FFC3900359E09F900358E09E502D
:100C600003020F10125414020E8D9009D1E0D39498
:100C70000F4005E4F012438B9008F2E0FEA3E0FF82
:100C8000C3900359E09F900358E09E5003020F1059
:100C90001266A1020E8D02A5019008F2E0FEA3E00B
:100CA000FFC3900359E09F900358E09E5003020F4A
:100CB00010125CA6020E8D9009D1E0D3940F40056E
:100CC000E4F012438B9008F2E0FEA3E0FFC3900330
:100CD00059E09F900358E09E5003020F10128D8F31
:100CE000020E8D9008F2E0FEA3E0FFC3900359E0EE
:100CF0009F900358E09E5003020F10E4F0A3F012FF
:100D00003C6A020E8D9008F2E0FEA3E0FFC3900360
:100D100059E09F900358E09E5003020F1012438B3E
:100D2000020E8D9009D1E0D3940A4005E4F01243FD
:100D30008B9008F2E0FEA3E0FFC3900359E09F9080
:100D40000358E09E5003020F101266A1020E8D9010
:100D500009D1E0D3940A400BE4F0900E327404F011
:100D600012438BC3900359E0940A900358E0940017
:100D70005003020F1090019C7407F0900E3274041F
:100D8000F0900EE8E0700F12ABDC900E3FE09001A7
:100D90009BF0D231C24B128D8F020E8D9009D1E0A3
:100DA000D3940F4005E4F012438B9008F2E0FEA3C9
:100DB000E0FFC3900359E09F900358E09E50030268
:100DC0000F101246F6020E8D9008F2E0FEA3E0FF2F
:100DD000C3900359E09F900358E09E5003020F1008
:100DE0001276A7020E8D9008F2E0FEA3E0FFC390FA
:100DF0000359E09F900358E09E5003020F10E4F067
:100E0000A3F00281439008F2E0FEA3E0FFC3900349
:100E100059E09F900358E09E5003020F10E4F0A3A6
:100E2000F07F09025F329008F2E0FEA3E0FFC3907A
:100E30000359E09F900358E09E5003020F10E4F026
:100E4000A3F0028C9A9008F2E0FEA3E0FFC39003A7
:100E500059E09F900358E09E5003020F10E4F0A366
:100E6000F0027B789009D1E0D3940F4005E4F012B2
:100E7000438B9008F2E0FEA3E0FFC3900359E09F8C
:100E8000900358E09E5003020F10127CF9E4900387
:100E900058F0A3F022305678C256028F69C39003EF
:100EA00059E09464900358E094004064E4F0A3F0A7
:100EB000FF805AC3900359E09464900358E0940073
:100EC000404EE4F0A3F07F018043C3900359E094C7
:100ED00064900358E094004037E4F0A3F07F028070
:100EE0002CC3900359E09464900358E09400402090
:100EF000E4F0A3F07F038015C3900359E09464905D
:100F00000358E094004009E4F0A3F07F041234F8A1
:100F100022302608900E2DE0FF02508B302E0B90D1
:100F20000E2DE0646570030210FD202203021035CF
:100F3000C2377F02900E17E0FEEFC39E504A74E95D
:100F40002FF582E43408F583E0FD900E2DE0FCEDF2
:100F50006C703274EA2FF582E43408F583E0FD7496
:100F6000E92FF582E43408F583EDF074EA2FF58279
:100F7000E43408F583ECF0D237900365E060069026
:100F800008E87410F00F80AC30373474E92EF58225
:100F9000E43408F583E4F0D218900365E060129021
:100FA00008E87410F0900E17E0D394074003E014A3
:100FB000F0900E17E0D394024069E014F08064D200
:100FC00036900365E0900E2D602DE0FF131313544F
:100FD0001F24D5F582E43409F583C083C082E0FE86
:100FE000EF540790AC8C93FFEE5FD082D083F090EB
:100FF00008E87410F0802CE024FC900EFDF0E0FF77
:10100000131313541F24D6F582E43409F583C083E7
:10101000C082E0FEEF540790AC8C93FFEE5FD0826D
:10102000D083F09008E9E0FF900E2EE0F4FEEF5E32
:101030009008E9F022900E17E0FCC39408407190EC
:101040000E2DE0FE70030210E1D236900365E060E1
:101050002DEE131313541F24D5F582E43409F583C0
:10106000C083C082E0FDEE540790AC8C93F4FEED9B
:101070004ED082D083F09008E87410F08063900E18
:101080002DE024FC900EFDF0E0FF131313541F24F9
:10109000D6F582E43409F583C083C082E0FEEF54C4
:1010A0000790AC8C93F4FFEE4FD082D083F0803168
:1010B000900E2DE0FF602A74E92CF582E43408F5E7
:1010C00083EFF0900E17E004F0D218900365E06013
:1010D000109008E87410F0900E17E0B4070374083D
:1010E000F09008E9E0FF900E2EE0FEEF4E9008E948
:1010F000F0900365E060069008E87410F0220000AC
:101100000000000000000000262728292A2B2C2D93
:101110002E2F303132333435363738393A00010228
:101120000304FF000000FF000000FFFFFF00FF00BE
:10113000FF00FFFFFFFFFF0000003AFFFFFFFFFF80
:10114000FFFFFFFFFFFFFF39413242333BFFFFFF4D
:10115000FFFFFFFF4048312A2B343C44434A49FFFC
:10116000FF382922232C2D5051524B4CFFFF3021A8
:101170001A1B2458595A535445FF55281912131C49
:101180006061625B5C4D636420110A0B141568702A
:10119000696A6B6C65180902030C0D807279816DA8
:1011A0007408100001050482857D7A78757B7C00C7
:1011B00085FFFFFF7B01107D826455180902757C55
:1011C0007420110A6D6C6B2819124D5C5B30211A6A
:1011D0004554533829224B4C6340312A4443FF394C
:1011E000323C33FFFF41424443FFFF333A443CFF6C
:1011F000FF3A423C33FFFF4243333AFFFF4344FF91
:10120000FFFFFF3C42FFFFFFFF3343FFFFFFFF3ABB
:1012100044FFFFFFFF423CFFFFFFFF3BFFFFFFFFDD
:10122000FF3BFFFFFFFFFF16181B1E2124272A2D5F
:101230003135393D4145494D5155595E63686D72AF
:10124000777C81868C92989EA4AAB0B6BCC2C8CE88
:10125000D5DCE3EAF1F8FFFFF8F1EAE3DCD5CEC82C
:10126000C2BCB6B0AAA49E98928C86817C77726D1F
:1012700068635E5955514D4945413D3935312D2AF7
:101280002724211E1B181600010203040506070867
:10129000090A0C0E10121416181B1E2124272A2DC1
:1012A0003135393D4145494D5155595E63686D723F
:1012B000777C81868C92989EA4AAB0B6BCC2C8CE18
:1012C000D5DCE3EAF1F8FFFFF8F1EAE3DCD5CEC8BC
:1012D000C2BCB6B0AAA49E98928C86817C77726DAF
:1012E00068635E5955514D4945413D3935312D2A87
:1012F0002724211E1B18161412100E0C0A090807A9
:1013000006050403020100010101BFBFBF06060676
:10131000BEBEBE0B0B0BBCBCBC101010B9B9B915CE
:101320001515B4B4B41A1A1AAFAFAF1F1F1FAAAA6B
:10133000AA242424A5A5A5292929A0A0A02E2E2EC3
:101340009B9B9B3333339696963838389191913DD9
:101350003D3D8C8C8C42424287878747474782823B
:10136000824C4C4C7D7D7D51515178787856565643
:101370007474745A5A5A7070705F5F5F6C6C6C63EF
:1013800063636767670000005454540707074D4DB7
:101390004D0E0E0E4646461515153F3F3F1C1C1CB4
:1013A0003838382323233131312A2A2A2A2A2A316C
:1013B00031312323233838381C1C1C3F3F3F15157F
:1013C000154646460E0E0E4D4D4D07070754545414
:1013D0005F5F5F5B5B5B5B5B5B5F5F5F54545400B5
:1013E00000004D4D4D0707074646460E0E0E3F3F87
:1013F0003F1515153838381C1C1C31313123232377
:101400002A2A2AFF0100FF0300FF0500FF0700FF53
:101410000A00FF0E00FF1200FF1600FF1A00FF2057
:1014200000FF2600FF2C00FF3200FF3900FF4100C3
:10143000FF4900FF5100FF5900FF6300FF6D00FFEF
:101440007700FF8100FF8C00FF9800FFA400FFB031
:1014500000FFBC00FFC800FFD500FFE300FFF10064
:10146000FFFF00F8FF00EAFF00DCFF00CEFF00C234
:10147000FF00B6FF00AAFF009EFF0092FF0086FF5C
:10148000007CFF0072FF0068FF005EFF0055FF0058
:101490004DFF0045FF003DFF0035FF002FFF0029F5
:1014A000FF0023FF001DFF0018FF0014FF0010FFC6
:1014B000000CFF0008FF0006FF0004FF0002FF0011
:1014C00000FF0000FF0100FF0300FF0500FF070011
:1014D000FF0A00FF0E00FF1200FF1600FF1A00FFB8
:1014E0002000FF2600FF2C00FF3200FF3900FF41E3
:1014F00000FF4900FF5100FF5900FF6300FF6D002E
:10150000FF7700FF8100FF8C00FF9800FFA400FF21
:10151000B000FFBC00FFC800FFD500FFE300FFF1F3
:1015200000FFFF00F8FF00EAFF00DCFF00CEFF0035
:10153000C2FF00B6FF00AAFF009EFF0092FF0086D8
:10154000FF007CFF0072FF0068FF005EFF0055FF98
:10155000004DFF0045FF003DFF0035FF002FFF005D
:1015600029FF0023FF001DFF0018FF0014FF0010DB
:10157000FF000CFF0008FF0006FF0004FF0002FF51
:101580000000FF0100FF0300FF0500FF0700FF0A46
:1015900000FF0E00FF1200FF1600FF1A00FF2000E0
:1015A000FF2600FF2C00FF3200FF3900FF4100FF43
:1015B0004900FF5100FF5900FF6300FF6D00FF77F6
:1015C00000FF8100FF8C00FF9800FFA400FFB00027
:1015D000FFBC00FFC800FFD500FFE300FFF100FFE4
:1015E000FF00FFFF00F8FF00EAFF00DCFF00CEFF76
:1015F00000C2FF00B6FF00AAFF009EFF0092FF009E
:1016000086FF007CFF0072FF0068FF005EFF005550
:10161000FF004DFF0045FF003DFF0035FF002FFF9D
:101620000029FF0023FF001DFF0018FF0014FF002A
:1016300010FF000CFF0008FF0006FF0004FF00027F
:10164000FF0000FFFFFF53545557595C62697378E0
:101650007C7F010305060752515108BF0306090CA0
:101660000F1215181B1E2124271C1E20224F4F0A63
:101670002A2D303336393C3F4245484B4E5140428B
:1016800044464D4D0C54575A5D606366696C6F72E9
:1016900075787B6466686A48490D7E8184878A8D87
:1016A000909396999C9FA2A5888A8C8E45460FA8F8
:1016B000ABAEB1B4B1B1B4B1B4B4BDB7C0ACAEB0FF
:1016C000B24445100005FF0011FF001DFF0030FF70
:1016D0000041FF0055FF0069FF007FFF0089FF0008
:1016E00094FF00A1FF00ABFF00B6FF00C0FF00CADF
:1016F000FF00D3FF00DCFF00E5FF00EDFF00F3FF7C
:1017000000FAFF00FFFF00FFFA00FFF600FFEE0007
:10171000FFE700FFDF00FFD600FFCD00FFC300FFA3
:10172000BA00FFAF00FFA500FF9900FF8F00FF8206
:1017300000FF7200FF5D00FF4900FF3600FF25003B
:10174000FF1500FF0800FF000BFF0016FF0024FF3D
:101750000034FF0046FF0057FF006AFF007EFF00D5
:1017600088FF0090FF0098FF009FFF00A8FF00B0D7
:10177000FF00B7FF00C0FF00C6FF00CEFF00D4FF90
:1017800000DCFF00E1FF00E7FF00EDFF00F3FF00DA
:10179000F7FF00FBFF00FFFF00FFF900FFF200FF73
:1017A000EC00FFE100FFD700FFCE00FFC300FFB752
:1017B00000FFAA00FF9F00FF9100FF8400FF690067
:1017C000FF4400FF2200FF0A00FF0005FF0011FF99
:1017D000001EFF0032FF0045FF005BFF0071FF00AD
:1017E00083FF008EFF009BFF00A5FF00B1FF00BD3F
:1017F000FF00C7FF00D1FF00DBFF00E5FF00ECFFAB
:1018000000F3FF00FAFF00FFFA00FFF300FFED0016
:10181000FFE400FFDC00FFD100FFC800FFBD00FFB8
:10182000B200FFA800FF9E00FF8F00FF8300FF6F44
:1018300000FF5A00FF4500FF3200FF1F00FF1000AD
:10184000FF0500FF000102030405060708090A0B53
:101850000C0D0E0F101112131400010203040506E3
:101860000708090A0B0C0D0E0F10111213140001BA
:1018700002030405060708090A0B0C0D0E0F1011D0
:10188000121314000102030405060708090A0B0CD1
:101890000D0E0F1011121314000C010203040506A3
:1018A0000708090A0B0D0E0F101112131400010284
:1018B000030405060708090A0B0C0D0E0F10111280
:1018C00013140000000000000000000000000000F1
:1018D00000000000000000010101010101010101FF
:1018E00001010101010101010101010102020202E4
:1018F00002020202020202020202020202020202C8
:1019000002030303030303030303030303030303A8
:10191000030303030303040404040404040404048D
:101920000404040404040404040404050505050572
:101930000505050505050505050505050505050557
:101940003C3728190A28201810086E5F503214738B
:1019500064553C1E5546372819281E0F05011E18D0
:10196000120C065F504132236E5F5032143C322815
:101970001E1455463728197D6E5D48333C2D1E15C3
:101980000C261E170F08463728190A000000000011
:101990000000000000000000000000000000000047
:1019A0000000000000000000000000000000000037
:1019B0000000000000000000000000000000000027
:1019C0000000000000000000000000000000000017
:1019D0000000000000000000000000000000000007
:1019E00000000000000000000000000000000000F7
:1019F00000000000000000000000000000000000E7
:101A000000000000000000000000000000000000D6
:101A100000000000000000000000000000000000C6
:101A200000000000000000000000000000000000B6
:101A300000000000000000000000000000000000A6
:101A40000000000000000000000000000000000096
:101A50000000000000000000000000000000000086
:101A60000000000000000000000000000000000076
:101A70000000000000000000000000000000000066
:101A800000000000000000FF000000000000000057
:101A90000000000000000000000000000000000046
:101AA0000000000000000000000000000000000036
:101AB000000000FF00000000000000000000000027
:101AC00000000000000000FFFFFF00000000000019
:101AD0000000000000000000000000000000000006
:101AE00000000000000000000000FF0000000000F7
:101AF0000000000000000000000000000000FFFFE8
:101B0000FF000000000000000000000000000000D6
:101B100000000000000000000000000000000000C5
:101B200000000000000000000000000000000000B5
:101B300000000000000000000000000000000000A5
:101B40000000000000000000000000000000000095
:101B50000000000000000000000000000000000085
:101B60000000000000000000000000000000000075
:101B70000000000000000000000000000000000065
:101B80000000000000000000000000000000000055
:101B90000000000000000000000000000000000045
:101BA0000000000000000000000000000000000035
:101BB0000000000000000000000000000000000025
:101BC0000000000000000000000000000000000015
:101BD0000000000000000000000000000000000005
:101BE00000000000000000000000000000000000F5
:101BF00000000000000000000000000000000000E5
:101C0000000000FFFFFF000000000000000000FFD8
:101C100000000000000000FFFFFFFFFF00000000C9
:101C20000000000000FFFF00000000FFFFFFFFFFBB
:101C300000000000000000000000FFFF00000000A6
:101C400000FFFFFF00FF0000000000000000000098
:101C50000000000000FF0000000000FF0000000086
:101C600000000000000000000000FF00FF0000FF77
:101C70000000000000000000000000000000000064
:101C80000000000000000000000000000000000054
:101C90000000000000000000000000000000000044
:101CA0000000000000000000000000000000000034
:101CB0000000000000000000000000000000000024
:101CC0000000000000000000000000000000000014
:101CD0000000000000000000000000000000000004
:101CE00000000000000000000000000000000000F4
:101CF00000000000000000000000000000000000E4
:101D000000000000000000000000000000000000D3
:101D100000000000000000000000000000000000C3
:101D200000000000000000000000000000000000B3
:101D300000000000000000000000000000000000A3
:101D40000000000000000000000000000000000093
:101D50000000000000000000000000000000000083
:101D60000000000000000000000000000000000073
:101D70000000000000000000000000000000000063
:101D80000000000000000000000000000000000053
:101D900000FFFFFFFFFFFFFF00000000000000004A
:101DA000000000000000FFFFFFFFFF000000000038
:101DB0000000000000000000000000FFFFFFFFFF28
:101DC000000000000000000000000000000000FF14
:101DD000000000FFFF000000000000000000000005
:101DE00000000000FF0000000000000000000000F4
:101DF00000000000000000000000000000000000E3
:101E000000000000000000000000000000000000D2
:101E100000000000000000000000000000000000C2
:101E200000000000000000000000000000000000B2
:101E300000000000000000000000000000000000A2
:101E40000000000000000000000000000000000092
:101E50000000000000000000000000000000000082
:101E60000000000000000000000000000000000072
:101E70000000000000000000000000000000000062
:101E80000000000000000000000000000000000052
:101E90000000000000000000000000000000000042
:101EA0000000000000000000000000000000000032
:101EB0000000000000000000000000000000000022
:101EC0000000000000000000000000000000000012
:101ED0000000000000000000000000000000000002
:101EE00000000000000000000000000000000000F2
:101EF00000000000000000000000000000000000E2
:101F00000000000000000000000000FFFFFFFFFFD6
:101F1000FFFF0000000000000000000000000000C3
:101F2000FFFFFFFF000000000000000000000000B5
:101F30000000000000FFFFFFFF00000000000000A5
:101F40000000000000000000000000000000000091
:101F50000000000000000000000000000000000081
:101F60000000000000000000000000000000000071
:101F70000000000000000000000000000000000061
:101F80000000000000000000000000000000000051
:101F90000000000000000000000000000000000041
:101FA0000000000000000000000000000000000031
:101FB0000000000000000000000000000000000021
:101FC0000000000000000000000000000000000011
:101FD0000000000000000000000000000000000001
:101FE00000000000000000000000000000000000F1
:101FF00000000000000000000000000000000000E1
:1020000000000000000000000000000000000000D0
:1020100000000000000000000000000000000000C0
:1020200000000000000000000000000000000000B0
:1020300000000000000000000000000000000000A0
:102040000000000000000000000000000000000090
:102050000000000000000000000000000000000080
:102060000000000000000000000000000000000070
:102070000000000000000000000000000000000060
:102080000000000000000000000000000000000050
:102090000000000000000000000000FF00FF000042
:1020A000000000000000000000000000000000FF31
:1020B000FFFF000000000000000000000000000022
:1020C000000000FF00000000000000000000000011
:1020D0000000FF0000000000FF00FF000000000003
:1020E000000000000000FFFFFF00000000900F2D27
:1020F000E0703D900F2CE07037900F2AE07031A314
:10210000E06402702B900F2EE0FF7024539BF0EFE1
:10211000429B900F4A7411F0A37408F0900F41E0B5
:10212000FF900F4AE0FAA3E0F5828A83EF02220AC9
:10213000900F2AE0FF6405600302220EA3E064030F
:10214000600302220EA3E06401600302220E539B8F
:10215000F0900F2EE0429B900F4A7411F0A3740888
:10216000F0900F4AE475F001127ADB85F082F58376
:102170007405F0900F4AE475F001127ADB85F08265
:10218000F5837401F0906618E493FE900F4AE475AD
:10219000F001127ADB85F082F583EEF0906619E4A7
:1021A00093FE900F4AE475F001127ADB85F082F518
:1021B00083EEF090661AE493FE900F4AE475F00106
:1021C000127ADB85F082F583EEF090661BE493FED5
:1021D000900F4AE475F001127ADB85F082F583EE08
:1021E000F090661CE493FE900F4AE475F001127AB9
:1021F000DB85F082F583EEF090661DE493FE900F90
:102200004AE0FAA3E0F5828A83EEF00225ECEF645F
:10221000066003022525900F2BE06403600302256E
:1022200025A3E064016003022525539BF0900F2E47
:10223000E0429B900F4A7411F0A37408F0900F4A8B
:10224000E475F001127ADB85F082F5837406F0788C
:1022500009E6247DB40700400302252290226A7516
:10226000F003A4C58325F0C5837302227F0222FBFD
:1022700002238C0223DE0224300224820224D3783B
:1022800009E6FF900F4AE475F001127ADB85F082CF
:10229000F583EFF0780AE6FF900F4AE475F001123B
:1022A0007ADB85F082F583EFF0780BE6FF900F4A3A
:1022B000E475F001127ADB85F082F583EFF0D258F5
:1022C000900F497401F0780AE6FE08E6FBEBFF90F8
:1022D0000F45EEF0A3EFF0900F3AE4F0A374FEF098
:1022E000E4FD900F4AE475F001127ADB85F082F587
:1022F00083E4F00DEDB404EA0225227809E6FF90AC
:102300000F4AE475F001127ADB85F082F583EFF075
:10231000780AE6FF900F4AE475F001127ADB85F047
:1023200082F583EFF0780BE6FF900F4AE475F00139
:10233000127ADB85F082F583EFF0780AE6FE08E694
:10234000FDEDFF900F45EEF0A3EFF0900F3A74040F
:10235000F0A3E4F07809E6FF900F4AE475F001126B
:102360007ADB85F082F583EFF0900F497401F0C2BB
:1023700058E4FD900F4AE475F001127ADB85F08293
:10238000F583E4F00DEDB404EA022522780AE6FEB6
:1023900008E6FDEDFF900F45EEF0A3EFF0900F3A49
:1023A0007404F0A3E4F07809E6FF900F4AE475F0B6
:1023B00001127ADB85F082F583EFF0900F4974010A
:1023C000F0C258E4FD900F4AE475F001127ADB8503
:1023D000F082F583E4F00DEDB406EA022522780AD6
:1023E000E6FE08E6FDEDFF900F45EEF0A3EFF0905E
:1023F0000F3A7404F0A3E4F07809E6FF900F4AE482
:1024000075F001127ADB85F082F583EFF0900F49C9
:102410007401F0C258E4FD900F4AE475F001127A9D
:10242000DB85F082F583E4F00DEDB406EA022522A7
:10243000780AE6FE08E6FDEDFF900F45EEF0A3EF0B
:10244000F0900F3A7404F0A3E4F07809E6FF900FDF
:102450004AE475F001127ADB85F082F583EFF090A3
:102460000F497401F0C258E4FD900F4AE475F00181
:10247000127ADB85F082F583E4F00DEDB406EA0212
:102480002522780AE6FE08E6FDEDFF900F45EEF006
:10249000A3EFF0900F3A7404F0A3E4F07809E6FF9C
:1024A000900F4AE475F001127ADB85F082F583EF34
:1024B000F0900F497401F0C258E4FD900F4AE475A2
:1024C000F001127ADB85F082F583E4F00DEDB406BD
:1024D000EA804F780AE6FE08E6FDEDFF900F45EE34
:1024E000F0A3EFF0900F3A7404F0A3E4F07809E65B
:1024F000FF900F4AE475F001127ADB85F082F583D4
:10250000EFF0900F497401F0C258E4FD900F4AE4D7
:1025100075F001127ADB85F082F583E4F00DEDB4FD
:1025200006EA0225EC900F2AE0640860030225F019
:10253000A3E0640360030225F0A3E06401600302EA
:1025400025F0D25A539BF0900F2EE0429B900F4AF9
:102550007411F0A37408F0900F4AE475F001127A38
:10256000DB85F082F5837408F0900F247401F0A3EA
:1025700074B5F0900F3A7401F0A37476F0900F4A9E
:10258000E475F001127ADB85F082F583748AF090AD
:102590000F497401F0C258A3E475F001127ADB858B
:1025A000F082F583747AF0900F4AE475F001127AA4
:1025B000DB85F082F5837401F0E4FD900F24E0FEEA
:1025C000A3E0F5828E83E0FF900F4AE475F00112DC
:1025D0007ADB85F082F583EFF0900F25E004F07050
:1025E00006900F24E004F00DEDB404CF43970422CD
:1025F00012AC1A22C0E0C0F0C083C082C0D075D037
:1026000000C004C005C006C007C086C0A790FF80F8
:10261000E054DFF075C0FF43888743B06D43F81086
:102620004380E012A8D490035CE0FF90A85693FE8C
:10263000700AEF90A86B93F45280804DEEB4040DB5
:1026400090035CE090A86B93F452B0803C90035CE4
:10265000E0FF90A85693FEB4050AEF90A86B93F4A0
:1026600052888025EEB4060D90035CE090A86B9331
:10267000F452C0801490035CE0FF90A85693B40716
:1026800008EF90A86B93F452F8E58825E05430FFEA
:10269000E5F8540F4F44C0FD90035CE0FC75F02A50
:1026A000A42470F582E5F03405F583E0FEA3E02470
:1026B00026E43E90FFF4F075F02AECA42470F58235
:1026C000E5F03405F583A3E0242690FFDCF09003C9
:1026D0005CE0FC75F02AA42472F582E5F03405F57F
:1026E00083E0FEA3E02427E43E90FFF5F075F02A96
:1026F000ECA42472F582E5F03405F583A3E02427E9
:1027000090FFDDF090035CE0FC75F02AA42474F5E2
:1027100082E5F03405F583E0FEA3E02428E43E9052
:10272000FFF6F075F02AECA42474F582E5F0340588
:10273000F583A3E0242890FFDEF090035CE0FC75B5
:10274000F02AA42476F582E5F03405F583E0FEA3B3
:10275000E02429E43E90FFF7F075F02AECA42476FB
:10276000F582E5F03405F583A3E0242990FFDFF03E
:1027700090035CE0FC75F02AA42478F582E5F0343F
:1027800005F583E0FEA3E0242AE43E90FFF8F0750F
:10279000F02AECA42478F582E5F03405F583A3E073
:1027A000242A90FFE0F090035CE0FC75F02AA4245A
:1027B0007AF582E5F03405F583E0FEA3E0242BE40E
:1027C0003E90FFF9F075F02AECA4247AF582E5F04A
:1027D0003405F583A3E0242B90FFE1F090035CE047
:1027E000FC75F02AA4247CF582E5F03405F583E03D
:1027F000FEA3E0242CE43E90FFEEF075F02AECA45A
:10280000247CF582E5F03405F583A3E0242C90FFC9
:10281000D6F090035CE0FC75F02AA4247EF582E5F6
:10282000F03405F583E0FEA3E0242DE43E90FFEFB5
:10283000F075F02AECA4247EF582E5F03405F583EA
:10284000A3E0242D90FFD7F090035CE0FC75F02A04
:10285000A42480F582E5F03405F583E0FEA3E024AE
:102860002EE43E90FFF0F075F02AECA42480F5826F
:10287000E5F03405F583A3E0242E90FFD8F0900313
:102880005CE0FC75F02AA42482F582E5F03405F5BD
:1028900083E0FEA3E0242FE43E90FFF1F075F02AE0
:1028A000ECA42482F582E5F03405F583A3E0242F1F
:1028B00090FFD9F090035CE0FC75F02AA42484F525
:1028C00082E5F03405F583E0FEA3E02430E43E9099
:1028D000FFF2F075F02AECA42484F582E5F03405CB
:1028E000F583A3E0243090FFDAF090035CE0FC7500
:1028F000F02AA42486F582E5F03405F583E0FEA3F2
:10290000E02431E43E90FFF3F075F02AECA4248635
:10291000F582E5F03405F583A3E0243190FFDBF088
:1029200090035CE0FC75F02AA42488F582E5F0347D
:1029300005F583E0FEA3E02432E43E90FFEBF07562
:10294000F02AECA42488F582E5F03405F583A3E0B1
:10295000243290FFD3F090035CE0FC75F02AA424AD
:102960008AF582E5F03405F583E0FEA3E02433E444
:102970003E90FFECF075F02AECA4248AF582E5F095
:102980003405F583A3E0243390FFD4F090035CE09A
:10299000FC75F02AA4248CF582E5F03405F583E07B
:1029A000FEA3E02434E43E90FFEDF075F02AECA4A1
:1029B000248CF582E5F03405F583A3E0243490FF00
:1029C000D5F090035CE0FC75F02AA4248EF582E536
:1029D000F03405F583E0FEA3E02435E43E90FFE803
:1029E000F075F02AECA4248EF582E5F03405F58329
:1029F000A3E0243590FFD0F090035CE0FC75F02A52
:102A0000A42490F582E5F03405F583E0FEA3E024EC
:102A100036E43E90FFE9F075F02AECA42490F582AC
:102A2000E5F03405F583A3E0243690FFD1F0900360
:102A30005CE0FC75F02AA42492F582E5F03405F5FB
:102A400083E0FEA3E02437E43E90FFEAF075F02A2D
:102A5000ECA42492F582E5F03405F583A3E0243755
:102A600090FFD2F0201A0312A734E58825E05430F5
:102A7000FFE5F8540F4F44C0B50512FF90035CE02A
:102A800024E8F582E43409F583EFF0D22090035C6A
:102A9000E004F0E0D3940F4002E4F0D0A7D086D059
:102AA00007D006D005D004D0D0D082D083D0F0D0CB
:102AB000E0326372057000000000000000000000BA
:102AC0000000000000000000000000000000000006
:102AD00000000000000000000000000000000000F6
:102AE00000000000000000000000000000000000E6
:102AF00000000000000000000000000000000000D6
:102E20000000000000000000410E34004108FB815A
:102E30004203DDFFFF4109E600607E0E64515152FE
:102E400053545557595C626973787C7F01030506BA
:102E500007084F4F505051525355565F6C787F01C1
:102E60000306070809090A4D4D4D4E4E4F4F50526B
:102E70005A7D060809090A0B0B0B0C0C4A494847F6
:102E80004645444342341711100F0F0F0E0E0E0D1E
:102E90000D474645444342403D34271B1816131343
:102EA00012121211100F46454442403E3630291F7F
:102EB000191716151414131211111000E4900F08AD
:102EC000F07F8012A476E4900F08F0900F04F09049
:102ED000019CE0FF24F950087003022F88022FCED6
:102EE000900E37E0FE75F0F8A42400F582E5F0348A
:102EF000B8F583EE2583F583C083C0829008E2E0B5
:102F0000FED082D08375F015127B2875F003EF1286
:102F10007B28E49390019DF0900E37E0FD75F0F86A
:102F2000A42401F582E5F034B8F583ED2583F5831B
:102F300075F015EE127B2875F003EF127B28E493F1
:102F4000900005F0900E37E0FF75F0F8A42402F52C
:102F500082E5F034B8F583EF2583F583C083C08222
:102F60009008E2E0D082D08375F015127B28C083F0
:102F7000C08290019CE0D082D08375F003127B2840
:102F8000E493900E40F08046900F08E0FF75F00348
:102F9000A42403F582E5F03414F583E493900E4005
:102FA000F075F003EFA42404F582E5F03414F58302
:102FB000E493900005F0900F08E075F003A4240559
:102FC000F582E5F03414F583E49390019DF09008C8
:102FD000FAE0901287129DFC12A357900F08E0248C
:102FE0000CF0E0C394C04004E02440F0E4FE900FF5
:102FF00004E075F006A42E90B4FE93F47003023042
:10300000E0900F04E0FFEE75F015A42444F582E48F
:103010003418F583E5822FF582E43583F583E49354
:10302000FD900F06F0EE75F015A424C2F582E4348D
:1030300018F583E5822FF582E43583F583E493FF69
:10304000900F07F0129DE1EF60030230E0900E61F7
:10305000E0FCA3E0FD900F06E075F02AA42470F5D3
:1030600082E5F03405F583C083C082900F07E0D07D
:1030700082D08375F006127B28ECF0A3EDF0900E61
:103080005DE0FCA3E0FD900F06E075F02AA4247239
:10309000F582E5F03405F583C083C082900F07E028
:1030A000D082D08375F006127B28ECF0A3EDF0906F
:1030B0000E5AE0FCA3E0FD900F06E075F02AA42470
:1030C00074F582E5F03405F583C083C082900F0764
:1030D000E0D082D08375F006127B28ECF0A3EDF0EF
:1030E0000EEE64066003022FEE900F04E004F0E0A1
:1030F000C394105003022ECF22539BF04397042217
:103100000000000000000000FF000000FF000000C1
:10311000FFFFFF00FF00FF00FFFFFFFFFFFF0000BA
:1031200000FF000000FFFFFF00FF00FF00FFFFFFA8
:10313000FFFFFF000000FF000000FFFFFF00FF0097
:10314000FF00FFFFFFFFFFFF000000FF000000FF88
:10315000FFFF00FF00FF00FFFFFFFFFFFF00000079
:10316000FF000000FFFFFF00FF00FF00FFFFFFFF69
:10317000FFFF000000FF000000FFFFFF00FF00FF57
:1031800000FFFFFFFFFFFF000000FF000000FFFF48
:10319000FF00FF00FF00FFFFFFFFFFFF000000FF39
:1031A000000000FFFFFF00FF00FF00FFFFFFFFFF29
:1031B000FF000000FF000000FFFFFF00FF00FF0016
:1031C000FFFFFFFFFFFF000000FF000000FFFFFF09
:1031D00000FF00FF00FFFFFFFFFFFF000000FF00F8
:1031E0000000FFFFFF00FF00FF00FFFFFFFFFFFFEA
:1031F000000000FF000000FFFFFF00FF00FF00FFD6
:10320000FFFFFFFFFF000000FF000000FFFFFF00C7
:10321000FF00FF00FFFFFFFFFFFF000000FF0000B7
:1032200000FFFFFF00FF00FF00FFFFFFFFFFFF00A9
:103230000000FF000000FFFFFF00FF00FF00FFFF96
:10324000FFFFFFFF000000FF000000FFFFFF00FF87
:1032500000FF00FFFFFFFFFFFF000000FF00000076
:10326000FFFFFF00FF00FF00FFFFFFFFFFFF000069
:1032700000FF000000FFFFFF00FF00FF00FFFFFF57
:10328000FFFFFF000000FF000000FFFFFF00FF0046
:10329000FF00FFFFFFFFFFFF000000FF000000FF37
:1032A000FFFF00FF00FF00FFFFFFFFFFFF00000028
:1032B000FF000000FFFFFF00FF00FF00FFFFFFFF18
:1032C000FFFF000000FF000000FFFFFF00FF00FF06
:1032D00000FFFFFFFFFFFF000000FF000000FFFFF7
:1032E000FF00FF00FF00FFFFFFFFFFFF000000FFE8
:1032F000000000FFFFFF00FF00FF00FFFFFFFFFFD8
:10330000FF000000FF000000FFFFFF00FF00FF00C4
:10331000FFFFFFFFFFFF000000FF000000FFFFFFB7
:1033200000FF00FF00FFFFFFFFFFFF000000FF00A6
:103330000000FFFFFF00FF00FF00FFFFFFFFFFFF98
:10334000000000FF000000FFFFFF00FF00FF00FF84
:10335000FFFFFFFFFF000000FF000000FFFFFF0076
:10336000FF00FF00FFFFFFFFFFFF000000FF000066
:1033700000FFFFFF00FF00FF00FFFFFFFFFFFF0058
:103380000000FF000000FFFFFF00FF00FF00FFFF45
:10339000FFFFFFFF000000FF000000FFFFFF00FF36
:1033A00000FF00FFFFFFFFFFFF000000FF00000025
:1033B000FFFFFF00FF00FF00FFFFFFFFFFFF000018
:1033C00000FF000000FFFFFF00FF00FF00FFFFFF06
:1033D000FFFFFF000000FF000000FFFFFF00FF00F5
:1033E000FF00FFFFFFFFFFFF000000FF000000FFE6
:1033F000FFFF00FF00FF00FFFFFFFFFFFF000000D7
:10340000FF000000FFFFFF00FF00FF00FFFFFFFFC6
:10341000FFFF000000FF000000FFFFFF00FF00FFB4
:1034200000FFFFFFFFFFFF000000FF000000FFFFA5
:10343000FF00FF00FF00FFFFFFFFFFFF000000FF96
:10344000000000FFFFFF00FF00FF00FFFFFFFFFF86
:10345000FF000000FF000000FFFFFF00FF00FF0073
:10346000FFFFFFFFFFFF000000FF000000FFFFFF66
:1034700000FF00FF00FFFFFFFFFFFF000000FF0055
:103480000000FFFFFF00FF00FF00FFFFFFFFFFFF47
:10349000000000FF000000FFFFFF00FF00FF00FF33
:1034A000FFFFFFFFFF000000FF000000FFFFFF0025
:1034B000FF00FF00FFFFFFFFFFFF000000FF000015
:1034C00000FFFFFF00FF00FF00FFFFFFFFFFFF0007
:1034D0000000FF000000FFFFFF00FF00FF00FFFFF4
:1034E000FFFFFFFF000000FF000000FFFFFF00FFE5
:1034F00000FF00FFFFFFFFFF900F04EFF0C205E4A5
:10350000A3F0E4900F06F0900F06E0FFC39415407F
:10351000030238A3900F04E0FE7069900F06E0FDEF
:10352000900F05E0FC75F015A42400F582E5F03459
:10353000BCF583E5822DF582E43583F583E493FBC6
:10354000900F09E4F0A3EBF075F015ECA4247EF5E0
:1035500082E5F034BCF583E5822DF582E43583F510
:1035600083E493FD900F0BE4F0A3EDF0900F05E0E2
:1035700075F015A424FCF582E5F034BCF583E582F2
:103580002F023661EE64017069900F06E0FF900F24
:1035900005E0FE75F015A4247AF582E5F034BDF55A
:1035A00083E5822FF582E43583F583E493FD900F64
:1035B00009E4F0A3EDF075F015EEA424F8F582E52A
:1035C000F034BDF583E5822FF582E43583F583E49D
:1035D00093FF900F0BE4F0A3EFF0900F06E0FF9045
:1035E0000F05E075F015A42476F582E5F034BE02EF
:1035F0003754900F04E0FF6402707B900F06E0FEEA
:10360000900F05E0FD75F015A424F4F582E5F03483
:10361000BEF583E5822EF582E43583F583E493FBE2
:10362000900F09E4F0A3EBF075F015EDA42472F50A
:1036300082E5F034BFF583E5822EF582E43583F52B
:1036400083E493FD900F0BE4F0A3EDF0900F05E001
:1036500075F015A424F0F582E5F034BFF583E5821A
:103660002EF582E43583F583E493FD900F0DE4F0AD
:10367000A3EDF002376BEF64037068900F06E0FF74
:10368000900F05E0FE75F015A4246EF582E5F03488
:10369000C0F583E5822FF582E43583F583E493FD5D
:1036A000900F09E4F0A3EDF075F015EEA424ECF50D
:1036B00082E5F034C0F583E5822FF582E43583F5A9
:1036C00083E493FF900F0BE4F0A3EFF0900F06E07C
:1036D000FF900F05E075F015A4246AF582E5F0343B
:1036E000C18071900F04E06404600302376B900F97
:1036F00006E0FF900F05E0FE75F015A424E8F582C2
:10370000E5F034C1F583E5822FF582E43583F58356
:10371000E493FD900F09E4F0A3EDF075F015EEA42D
:103720002466F582E5F034C2F583E5822FF582E464
:103730003583F583E493FF900F0BE4F0A3EFF09053
:103740000F06E0FF900F05E075F015A424E4F58264
:10375000E5F034C2F583E5822FF582E43583F58305
:10376000E493FF900F0DE4F0A3EFF0900E32E090A1
:10377000111D93F9FB900F09E0FCA3E0FDAF037E60
:1037800000127A5E900E61EEF0A3EFF0900F0BE066
:10379000FCA3E0FDAF037E00127A5E900E5DEEF0BA
:1037A000A3EFF0E9FF7E00900F0DE0FCA3E0FD1217
:1037B0007A5E900E5AEEF0A3EFF0900F06E0FF90C5
:1037C0000F05E0FE75F015A42444F582E43418F5E5
:1037D00083E5822FF582E43583F583E493FCC3947B
:1037E00015400302389AEE75F015A424C2F582E460
:1037F0003418F583E5822FF582E43583F583E4936D
:10380000FF900F0FF0AD04129DE1EF600302389AB4
:10381000900E61E0FEA3E0FF75F02AECA42470F5A1
:1038200082E5F03405F583C083C082900F0FE0D0AD
:1038300082D08375F006127B28EEF0A3EFF0900E95
:103840005DE0FEA3E0FF75F02AECA42472F582E5AA
:10385000F03405F583C083C082900F0FE0D082D092
:103860008375F006127B28EEF0A3EFF0900E5AE07D
:10387000FEA3E0FF75F02AEDA42474F582E5F03490
:1038800005F583C083C082900F0FE0D082D083758E
:10389000F006127B28EEF0A3EFF0900F06E004F0A4
:1038A000023507900F05E004F0E0C39406500302D0
:1038B000350222E4900EF9F0202209302C06302A3D
:1038C00003023BDA900E30E024E07003023C6024F7
:1038D00020B413004003023C699038E0F8282873B4
:1038E00002391902392802394D02395302395C0272
:1038F000396B02397F02398E0239970239AB0239AE
:10390000BF0239D60239EA023AC4023B86023B8939
:10391000023B98023BBC023BE6302D03023C69307F
:103920003503023C69020F11302D03023C6930352A
:1039300003023C69204D0E7B017A0E79377D01121E
:103940008AA0023C66900E2D7401F0800C126D3638
:103950000238C4303503023C6902A8FD302D030251
:103960003C69303503023C6902A926302D03023C34
:1039700069303503023C697B017A037960805230FB
:103980002D03023C69303503023C6902A15F3035EA
:1039900003023C690296F0302D03023C6930350386
:1039A000023C697B017A03795F8026302D03023C5B
:1039B00069303503023C697B017A03795E801230FD
:1039C0002D03023C69303503023C697B017A03799F
:1039D0005D7D03028AA0302D03023C69303503026D
:1039E0003C69128E80C24AC20022302D03023C691B
:1039F000303503023C69C200900361E090019B6096
:103A00000AE0248EF582E43403800FE025E0FFE431
:103A100033FE74722FF58274033EF583E0540F90E9
:103A20000E32F090019BE090932093FF900EFAF0FD
:103A3000900E32E0D39F4008900EFAE0900E32F0E4
:103A4000D24A7A0E7932128A99900E32E06003B42B
:103A5000040DD216900E337406F0E4900E36F090FA
:103A60000361E090019B6026E0248EF582E434033C
:103A7000F583E054F0FB900E32E0FFEB4FFF900136
:103A80009BE0248EF582E43403F583EFF022E025F9
:103A9000E0FFE433FE74722FF58274033EF583E099
:103AA00054F0FB900E32E0FFEB4FFFAD0790019B0F
:103AB000E025E0FFE433FE74722FF58274033EF5D7
:103AC00083EDF022302D03023C69303503023C695E
:103AD00090019BE0FB64017003023C69900361E08C
:103AE0006003023C69C200EB25E0FFE433FE747220
:103AF0002FF58274033EF583E05470FFE4FCFDFE75
:103B00007804127B04900E35EFF0EB9092EE93FF69
:103B1000900E35E0D39F4002EFF07B017A0E7935AD
:103B200090019BE09092EE93FD128AA090019BE0A1
:103B300025E0FFE433FE74722FF58274033EF583B3
:103B4000E0548FFFE4AB07900E35E075F010A4FF52
:103B5000EB4FFFAD0790019BE025E0FFE433FE74DF
:103B6000722FF58274033EF583EDF0900E35E06020
:103B70000764046003023C69D216900E337406F0A9
:103B8000E4900E36F022024004302D03023C6930EE
:103B90003503023C6902AA99302D03023C693026A4
:103BA00003023C69900E2DE0FF900331E0B5070859
:103BB000302A052022028022C2128027302D0302E3
:103BC0003C69302603023C69900E2DE0FF900331E2
:103BD000E0B5070F302A0C202209C22AC22CD22BB2
:103BE000D21F22029D1B302D03023C6920357A2012
:103BF000227790019BE0FF6403606EEF640F6069C1
:103C0000EF64106064EF6411605FE0FD25E0FFE4A5
:103C100033FE74712FF58274033EF583E090019CAE
:103C2000F0ED90929893FF900EFAF090019CE0D303
:103C30009F4008900EFAE090019CF0C24A7A017908
:103C40009C128A9990019CE0FD90019BE025E0FF89
:103C5000E433FE74712FF58274033EF583EDF02298
:103C6000204B0612A5CB12AA4322E4900F0AF09033
:103C7000019CE064076003023DFD7FC012A47690C2
:103C80000F0AEFF0E4900F04F0900F0AE0FF75F0D8
:103C900003A42403F582E5F03414F583E493900142
:103CA0009DF075F003EFA42404F582E5F03414F5DB
:103CB00083E493900005F0900F0AE075F003A424CC
:103CC00005F582E5F03414F583E493900E40F0900E
:103CD0000F0AE02407F0E0C394C04004E02440F061
:103CE00012A357E4900F05F0900F05E0FFC3940670
:103CF0004003023DED900F04E075F006A4FEEF2EA8
:103D0000900F06F0E090B57C93F47003023DE490D0
:103D10000F04E0FFA3E0FE75F015A42444F582E44F
:103D20003418F583E5822FF582E43583F583E49337
:103D3000FD900F08F0EE75F015A424C2F582E4346E
:103D400018F583E5822FF582E43583F583E493FF4C
:103D5000900F09F0129DE1EF6003023DE4900E61C7
:103D6000E0FEA3E0FF900F08E0FD75F02AA42470A8
:103D7000F582E5F03405F583C083C082900F09E039
:103D8000FCD082D08375F006127B28EEF0A3EFF012
:103D9000900E5DE0FEA3E0FF75F02AEDA42472F51D
:103DA00082E5F03405F58375F006EC127B28EEF021
:103DB000A3EFF0900E5AE0FEA3E0FF900F08E0752D
:103DC000F02AA42474F582E5F03405F583C083C09D
:103DD00082900F09E0D082D08375F006127B28EE26
:103DE000F0A3EFF0900F05E004F0023CE8900F0420
:103DF000E004F0E0C394155003023C89227F601276
:103E0000A476900F0AEFF0E4900F04F0900E37E0E4
:103E1000FF75F0F8A42400F582E5F034B8F583EFDF
:103E20002583F583C083C0829008E2E0FFD082D072
:103E30008375F015127B28C083C08290019CE0FE40
:103E4000D082D08375F003127B28E49390019DF01B
:103E5000900E37E0FD75F0F8A42401F582E5F0340A
:103E6000B8F583ED2583F58375F015EF127B287582
:103E7000F003EE127B28E493900005F0900E37E0FB
:103E8000FF75F0F8A42402F582E5F034B8F583EF6D
:103E90002583F583C083C0829008E2E0D082D0837E
:103EA00075F015127B28C083C08290019CE0D082FF
:103EB000D08375F003127B28E493900E40F0900FAE
:103EC0000A129DF8900F0AE0240AF0E0C3946040C3
:103ED00004E024A0F012A357E4900F05F0900F0522
:103EE000E0FFC394064003023FF4900F04E075F036
:103EF00006A4FEEF2E900F06F0E0FF90B57C93F441
:103F00007003023FEBEF93FE5407900F09F0EE139E
:103F10001313541F900F08F0E0FFA3E0FE75F01597
:103F2000A42444F582E43418F583E5822FF582E475
:103F30003583F583E493900F08F0E0FDEE75F015FE
:103F4000A424C2F582E43418F583E5822DF582E4D9
:103F50003583F583E493FF900F09F0129DE1EF6044
:103F600003023FEB900E61E0FEA3E0FF900F08E03C
:103F7000FD75F02AA42470F582E5F03405F583C0C0
:103F800083C082900F09E0FCD082D08375F00612C6
:103F90007B28EEF0A3EFF0900E5DE0FEA3E0FF754E
:103FA000F02AEDA42472F582E5F03405F58375F06E
:103FB00006EC127B28EEF0A3EFF0900E5AE0FEA381
:103FC000E0FF900F08E075F02AA42474F582E5F074
:103FD0003405F583C083C082900F09E0D082D0837E
:103FE00075F006127B28EEF0A3EFF0900F05E004C9
:103FF000F0023EDD900F04E004F0E0C3941550039E
:10400000023E0C223022030242E4900E2DE0B41551
:1040100000400302438A90401DF828287302405C48
:1040200002407202408902438A02409C0240E90237
:1040300040FF02410C02411B024139024150024142
:104040005C0241720241960241BD0241E402420516
:1040500002421B02422A024262024271302D0302D6
:10406000438A30350302438AE49009ABF0A3F0D2CF
:104070004422302D0302438A30350302438AB22E94
:10408000A22EE433900366800F30350302438AB2D8
:104090002DA22DE433900367F0D21F22302D0302AE
:1040A000438A90019BE0FFC39427501CEFC39420E8
:1040B0004016203513D205D235D201900E3FEFF0D5
:1040C00090019B742DF08010EFB42D16303513D273
:1040D00047C235C20512ABC4C241C240E49009D404
:1040E000F022C235C205C24722302D0302438A3076
:1040F000350302438AD217E49009ABF0A3F02230D3
:104100002D0302438A30350302438A22302D0302F5
:10411000438A30350302438AB21922302D03024309
:104120008A30350302438A90036BE004F0E0D394B5
:104130000B4002E4F0D2278053302D0302438A3033
:10414000350302438AB20030000302438A024386E9
:10415000900361E0600302438A0242CB900361E076
:10416000600302438A90019BE025E0FFE433FE02F6
:1041700042BC302D0302438A30350302438A900348
:104180006CE004F0E0D394044002E4F012ABC4907D
:1041900009D47451F022302D0302438A30350302D2
:1041A000438AE49009ABF0A3F0900365E0640260F9
:1041B0000302438AD2459003647402F022302D0337
:1041C00002438A30350302438AE49009ABF0A3F03E
:1041D000900365E06402600302438AD24590036461
:1041E0007403F022302D0302438A30350302438AE0
:1041F000E49009ABF0A3F0900365E0640160030272
:10420000438AD24522302D0302438A3035030243CC
:104210008AE49009ABF0A3F0D21E22302D030243B2
:104220008A30350302438AB24322302D0302438A87
:1042300030350302438AD23C7F01E4FE75F012EF71
:10424000A424B8F582E5F03401F583E5822EF582E9
:10425000E43583F583E4F00EEEB403E00FEFB40B26
:10426000D922302D0302438A30350302438AB250EB
:1042700022302D0302438A30350302438A90019B8A
:10428000E0FF64066012EF640B600DEF640F6008DE
:10429000EF6410600302438A900361E0600302430D
:1042A0008A90019BE025E0FFE433FE74712FF582D4
:1042B00074033EF583E033920320030F74712FF5EE
:1042C0008274033EF583E04480F02290019BE02558
:1042D000E0FFE433FE74712FF58274033EF583E052
:1042E000547FF022900E2DE024FB602524F8602BF3
:1042F00014604714606D14607524FE700302437EE1
:104300002412600302438AE49009ABF0A3F0C24494
:1043100022E49009ABF0A3F0C21722202D6C2035C7
:1043200069900365E0B4021020462C3045299003C3
:1043300064E0FDE4FF120000801D202D4D20354A71
:10434000900365E0B4021020460D30450A900364E6
:10435000E0FDE4FF120000C246C24512ABC4C241F8
:10436000D24022202D24203521C246C24522202DB4
:1043700019203516E49009ABF0A3F0C21E22202DBF
:1043800009203506C23CD231D20122900F0A7401B5
:10439000F0306108C261A37406F08008D261900F0A
:1043A0000B7403F0E4900F08F0306108900F09746B
:1043B00003F08005E4900F09F0900F0BE0FF900FE1
:1043C00009E0FEC39F40030246E6A3E0FFA80608FB
:1043D0008002C333D8FCFF900F08E02418F582E474
:1043E000340EF583E05F60030246DD900F08E0FFC6
:1043F00075F012A424B5F582E5F03401F583C0838D
:10440000C082900F09E0FED082D08375F003127B4A
:1044100028E0900E63F075F012EFA424B6F582E563
:10442000F03401F58375F003EE127B28E0900E5F07
:10443000F0900F08E0FF75F012A424B7F582E5F0C4
:104440003401F583C083C082900F09E0FED082D092
:104450008375F003127B28E0900E5CF075F012EF8C
:10446000A42421F582E5F03400F58375F003EE1203
:104470007B28E0FD900E63E08DF0A4AEF07805CED1
:10448000C313CE13D8F9900E63F0900E5FE08DF059
:10449000A4AEF07805CEC313CE13D8F9900E5FF01A
:1044A000900F08E075F012A42421F582E5F03400A5
:1044B000F583C083C082900F09E0FDD082D0837560
:1044C000F003127B28E0FF900E5CE08FF0A4AEF0CA
:1044D0007805CEC313CE13D8F9900E5CF0900E324F
:1044E000E0F990111D93FC900E63E08CF0A4FF9016
:1044F0000E61E5F0F0A3EFF0900E5FE08CF0A4FF0A
:10450000900E5DE5F0F0A3EFF0E990111D93FF90A0
:104510000E5CE08FF0A4FF900E5AE5F0F0A3EFF0F0
:10452000AF05900F08E0FD129DE1EF600302462009
:10453000900E63E0FF900F08E0FE75F012A424B522
:10454000F582E5F03401F583C083C082900F09E065
:10455000FDD082D08375F003127B28EFF0900E5FC0
:10456000E0FF75F012EEA424B6F582E5F03401F513
:104570008375F003ED127B28EFF0900E5CE0FF9066
:104580000F08E0FE75F012A424B7F582E5F03401BF
:10459000F583C083C082900F09E0FDD082D083757F
:1045A000F003127B28EFF0900E61E0FAA3E0FB75B8
:1045B000F02AEEA42470F582E5F03405F58375F059
:1045C00006ED127B28EAF0A3EBF0900E5DE0FEA36F
:1045D000E0FF900F08E0FD75F02AA42472F582E553
:1045E000F03405F583C083C082900F09E0FCD082CF
:1045F000D08375F006127B28EEF0A3EFF0900E5AF0
:10460000E0FEA3E0FF75F02AEDA42474F582E5F046
:104610003405F58375F006EC127B28EEF0A3EFF07D
:104620009008E2E0640D7070900F08E0FF75F012E2
:10463000A42421F582E5F03400F583C083C0829084
:104640000F09E0FED082D08375F003127B28E0D3FF
:104650009401401C75F012EFA42421F582E5F0349A
:1046600000F58375F003EE127B28E024FEF0806DE8
:10467000900F08E075F012A42421F582E5F03400D3
:10468000F583C083C082900F09E0D082D08375F09B
:1046900003127B28E4F08045900F08E0FF75F012CC
:1046A000A42421F582E5F03400F583C083C0829014
:1046B0000F09E0FED082D08375F003127B28E0D38F
:1046C0009400401975F012EFA42421F582E5F0342E
:1046D00000F58375F003EE127B28E014F0900F09CB
:1046E000E004F00243B9900F08E004F0E0C3941531
:1046F00050030243A92290019CE064076003024832
:10470000657FC012A47675F003EFA42403F582E55B
:10471000F03414F583E49390019DF075F003EFA459
:104720002404F582E5F03414F583E493900005F059
:1047300075F003EFA42405F582E5F03414F583E465
:1047400093900E40F0E4FE900A0BE075F006A42E64
:10475000900F05F0E090B57C93F4700302483B9015
:104760000A0BE0FFEE75F015A42444F582E434183A
:10477000F583E5822FF582E43583F583E493FD909C
:104780000F07F0EE75F015A424C2F582E43418F595
:1047900083E5822FF582E43583F583E493FF900F60
:1047A00008F0129DE1EF600302483B90019DE0FF9D
:1047B000900F07E0FD75F012A424B5F582E5F03402
:1047C00001F583C083C082900F08E0FCD082D083C3
:1047D00075F003127B28EFF0900005E0FF75F012F2
:1047E000EDA424B6F582E5F03401F58375F003EC11
:1047F000127B28EFF0900E40E0FF900F07E0FD7570
:10480000F012A424B7F582E5F03401F583C083C02B
:1048100082900F08E0FCD082D08375F003127B28D1
:10482000EFF075F012EDA42421F582E5F03400F5E7
:104830008375F003EC127B287420F00EEE640660A2
:104840000302474730380C900A0BE0600314F02253
:10485000C23822900A0BE004F0E0D3941450030213
:104860004A36024A31900E37E0FF75F0F8A4240072
:10487000F582E5F034B8F583EF2583F583C083C076
:10488000829008E2E0FFD082D08375F015127B2879
:10489000C083C08290019CE0FED082D08375F0037B
:1048A000127B28E49390019DF0900E37E0FD75F0A7
:1048B000F8A42401F582E5F034B8F583ED2583F5FD
:1048C0008375F015EF127B2875F003EE127B28E458
:1048D00093900005F0900E37E0FF75F0F8A42402E5
:1048E000F582E5F034B8F583EF2583F583C083C006
:1048F000829008E2E0D082D08375F015127B28C048
:1049000083C08290019CE0D082D08375F003127B3B
:1049100028E493900E40F0E4FE900A0BE075F00658
:10492000A42E900F05F0E090B4FE93F47003024AB9
:104930000D900A0BE0FFEE75F015A42444F582E417
:104940003418F583E5822FF582E43583F583E4930B
:10495000FD900F07F0EE75F015A424C2F582E43443
:1049600018F583E5822FF582E43583F583E493FF20
:10497000900F08F0129DE1EF6003024A0D90019D37
:10498000E0FF900F07E0FD75F012A424B5F582E575
:10499000F03401F583C083C082900F08E0FCD08220
:1049A000D08375F003127B28EFF0900005E0FF75CF
:1049B000F012EDA424B6F582E5F03401F58375F02C
:1049C00003EC127B28EFF0900E40E0FF900F07E021
:1049D000FD75F012A424B7F582E5F03401F583C02B
:1049E00083C082900F08E0FCD082D08375F0031260
:1049F0007B28EFF075F012EDA42421F582E5F03468
:104A000000F58375F003EC127B287420F00EEE6441
:104A100006600302491930380C900A0BE060031459
:104A2000F022C23822900A0BE004F0E0D394144044
:104A3000057414F0D23822900F2BE0FD6401703F12
:104A4000900F457465F0A37499F0900F3AE4F0A3C9
:104A50007412F0900F2FE0FE900F2EE0FBEBFF9012
:104A60000F38EEF0A3EFF0C39412EE9400500590CF
:104A70000F388003900F3AE0FEA3E0FF024D52EDA5
:104A80006402703F900F457465F0A374ABF0900F13
:104A90003AE4F0A3743BF0900F2FE0FE900F2EE06D
:104AA000FDEDFF900F38EEF0A3EFF0C3943BEE94D2
:104AB000005005900F388003900F3AE0FEA3E0FF0E
:104AC000024D52900F2BE0FD64036003024C2E90C8
:104AD0000F2AE0FC703F900F457464F0A37457F008
:104AE000900F3AE4F0A37404F0900F2FE0FE900FC3
:104AF0002EE0FBEBFF900F38EEF0A3EFF0C3940431
:104B0000EE94005005900F388003900F3AE0FEA31A
:104B1000E0FF024D52EC6401703F900F457464F069
:104B2000A3742BF0900F3AE4F0A37411F0900F2FC0
:104B3000E0FE900F2EE0FBEBFF900F38EEF0A3EFBE
:104B4000F0C39411EE94005005900F388003900F3D
:104B50003AE0FEA3E0FF024D52900F2AE0FC64020F
:104B6000703F900F457465F0A374F8F0900F3AE42D
:104B7000F0A37420F0900F2FE0FE900F2EE0FBEBDF
:104B8000FF900F38EEF0A3EFF0C39420EE940050A6
:104B900005900F388003900F3AE0FEA3E0FF024D2E
:104BA00052EC6403703F900F457464F0A3743CF0C2
:104BB000900F3AE4F0A3740AF0900F2FE0FE900FEC
:104BC0002EE0FBEBFF900F38EEF0A3EFF0C3940A5A
:104BD000EE94005005900F388003900F3AE0FEA34A
:104BE000E0FF024D52900F2AE0F4703F900F4574A1
:104BF00064F0A37446F0900F3AE4F0A37411F090BF
:104C00000F2FE0FE900F2EE0FBEBFF900F38EEF041
:104C1000A3EFF0C39411EE94005005900F38800379
:104C2000900F3AE0FEA3E0FF024D52024D5EED64AC
:104C3000226003024CC3900F2CE0FD703F900F45A3
:104C40007464F0A3745BF0900F3AE4F0A37443F043
:104C5000900F2FE0FE900F2EE0FBEBFF900F38EE51
:104C6000F0A3EFF0C39443EE94005005900F38800A
:104C700003900F3AE0FEA3E0FF024D52ED64017095
:104C80003F900F457464F0A3749EF0900F3AE4F0E7
:104C9000A374FBF0900F2FE0FE900F2EE0FDEDFFD0
:104CA000900F38EEF0A3EFF0C394FBEE94005005A4
:104CB000900F388003900F3AE0FEA3E0FF024D52C0
:104CC000024D5E900F2BE064216003024D5EA3E075
:104CD000FD703E900F457465F0A374E6F0900F3AB6
:104CE000E4F0A37409F0900F2FE0FE900F2EE0FB8C
:104CF000EBFF900F38EEF0A3EFF0C39409EE9400B1
:104D00005005900F388003900F3AE0FEA3E0FF803B
:104D100041ED64017046900F457465F0A374EFF0A7
:104D2000900F3AE4F0A37409F0900F2FE0FE900F7B
:104D30002EE0FDEDFF900F38EEF0A3EFF0C39409E5
:104D4000EE94005005900F388003900F3AE0FEA3D8
:104D5000E0FF900F3AEEF0A3EFF080058000020034
:104D600056C2581291085393FE43970422202503FC
:104D7000024F77C22553A9FE9008E6E075F080A4A3
:104D8000FFAEF0900EF0EEF0A3EFF02400FFEE3453
:104D9000DCFEC394DC4022EE94E0501D900EEE74D5
:104DA000DCF0A3E4F02FFFEE3424900EF2F0A3EF3A
:104DB000F0900EF674DCF08076C3EE94E04022EEC4
:104DC00094E4501D900EEE74E0F0A3E4F02FFFEE9B
:104DD0003420900EF2F0A3EFF0900EF674E0F08025
:104DE0004EC3EE94E44022EE94E8501D900EEE7413
:104DF000E4F0A3E4F02FFFEE341C900EF2F0A3EFEA
:104E0000F0900EF674E4F08026C3EE94E84020EEB5
:104E100094EC501B900EEE74E8F0A3E4F02FFFEE3C
:104E20003418900EF2F0A3EFF0900EF674E8F0E470
:104E3000900EF4F0A3F0900EF4E0FEA3E0FF900ECD
:104E4000EFE02FFD900EEEE03E8D82F583E493FDC2
:104E5000740F2FF582740A3EF583EDF0900EF5E0A5
:104E600004F07006900EF4E004F0900EF4E0B40448
:104E7000C5A3E0B400C0E4900EF4F0A3F0900EF4EB
:104E8000E0FEA3E0FFC39480EE9400503C742A2F10
:104E9000F58274093EF583E0FF900EF4E0FCA3E098
:104EA000FD900EF3E02DFD900EF2E03CFC740F2D12
:104EB000F582740A3CF583EFF0900EF5E004F07093
:104EC000BC900EF4E004F080B4A2AF925EC2AF904A
:104ED0000EF6E0FF12A9BE7B017A0A790F900EEE62
:104EE000E0FCA3E0FD900F207402F0A3E4F0129C1C
:104EF0002A900EF6E004FF12A9BE900EEFE0240007
:104F0000F0900EEEE03402F07B017A0A790FE0FCBB
:104F1000A3E0FD900F207402F0A3E4F0129C2AA2FB
:104F20005E92AFE4900EF4F0A3F0900EF4E0FEA3D6
:104F3000E0FF900EEFE02FFD900EEEE03E8D82F54B
:104F400083E493FD740F2FF582740A3EF583E06DC0
:104F50006003024EC9900EF5E004F07006900EF466
:104F6000E004F0900EF4E0B404C0A3E0B400BBC2CF
:104F70000512ABC443A90120470302508AC247531C
:104F8000A9FE900E37E0600302508A900E3FE0FDCC
:104F9000B4200B900EF07401F0A3747A800AEDB483
:104FA000210EE4900EF0F0A3F0900EEE74BC804160
:104FB000900E3FE0FDB42211900EF07401F0A37446
:104FC0007AF0900EEE74BE8028EDB4230EE4900EBD
:104FD000F0F0A3F0900EEE74BE8016900E3FE0B499
:104FE000241D900EF07401F0A3747AF0900EEE740C
:104FF000C0F0A3E4F0900EEEE0C313900EF6F0A222
:10500000AF925EC2AF900EF6E0FF12A9BE900EF610
:10501000E004FF12A9BE7B017A0A790F900EEEE040
:10502000FCA3E0FD900F207404F0A3E4F0129C2A8E
:10503000A25E92AFE4900EF4F0A3F0900EF4E0FEC6
:10504000A3E0FF900EEFE02FFD900EEEE03E8D828C
:10505000F583E493FD740F2FF582740A3EF583E027
:10506000B5059C900EF5E004F07006900EF4E00497
:10507000F0900EF4E0B404C3A3E0B400BE43A90171
:10508000C205900E3FE090019BF022900331E02496
:105090002A20220CF582E43409F5837401F0800B98
:1050A000F582E43409F583E04481F0900331E0C3F4
:1050B00094044023E02428F582E43409F583E0FEDB
:1050C000900330E0547FFDEE4DFEA3E02428F582EE
:1050D000E43409F583EEF0900331E004F0E0242A93
:1050E000F582E43409F583EFF0900331E004F0E455
:1050F000900330F0A3E0D3947D4004C226D2252251
:105100000000000000000000E0900F06FFE0FD7BC3
:1051100001900F0BEFF0A3EDF0C394154003025480
:1051200013EB700302535790019CE024F950056083
:10513000720251E9E4900F0DF0900F0DE0FFC3945F
:105140000340030251E9900E37E0FE75F0F8A42405
:1051500000F582E5F034B8F583EE2583F583C0834E
:10516000C0829008E2E0D082D08375F015127B28CF
:10517000C083C08290019CE0D082D08375F003127E
:105180007B28E5822FF582E43583F583E493FE7472
:105190000E2FF582E4340FF583EEF0900F0DE0044E
:1051A000F0809612AB2AEF75F0C084AFF0E4900F58
:1051B0000DF0900F0DE0FE75F003EFA42403F582CF
:1051C000E5F03414F583E5822EF582E43583F5832A
:1051D000E493FD740E2EF582E4340FF583EDF09028
:1051E0000F0DE004F0E0B403C9E4900F0DF0900F50
:1051F0000DE0FF240EF582E4340FF583E0FE900FFE
:105200000CE075F012A424F6F582E5F03403F58382
:10521000C083C082900F0BE0D082D08375F0031260
:105220007B28E5822FF582E43583F583EEF0900F3D
:105230000DE004F0E0B403B6900F0CE0FD75F01241
:10524000A42421F582E5F03400F583C083C0829068
:105250000F0BE0FFD082D08375F003127B287420FF
:10526000F0129DE1EF6003025413E4900F0DF090F3
:105270000F0DE0FF900F0CE0FE75F012A424F6F580
:1052800082E5F03403F583C083C082900F0BE0D039
:1052900082D08375F003127B28E5822FF582E435F6
:1052A00083F583E0FD75F012EEA424B5F582E5F0F8
:1052B0003401F583C083C082900F0BE0FED082D012
:1052C0008375F003127B28E5822FF582E43583F5A0
:1052D00083EDF0900F0DE0FF900F0CE075F012A43D
:1052E00024F6F582E5F03403F58375F003EE127BC6
:1052F00028E5822FF582E43583F583E0FF900E32B6
:10530000E090111D93FEEF8EF0A4FFAEF0900F0C15
:10531000E075F02AA42470F582E5F03405F583C029
:1053200083C082900F0BE0D082D08375F006127B91
:1053300028C083C082900F0DE0D082D08375F00228
:10534000127B28EEF0A3EFF0900F0DE004F0E06484
:1053500003600302526F22E4900F0DF0900F0DE0F6
:10536000FFC394035038900F0CE075F012A424F69C
:10537000F582E5F03403F583C083C082900F0BE023
:10538000D082D08375F003127B28E5822FF582E46A
:105390003583F583E4F0900F0DE004F080BE900FAC
:1053A0000BE0FFA3E0FD129DE1EF7067E4900F0DAD
:1053B000F0900F0DE0FF900F0CE0FE75F012A424AA
:1053C000B5F582E5F03401F583C083C082900F0B00
:1053D000E0FDD082D08375F003127B28E5822FF5A3
:1053E00082E43583F583E4F075F02AEEA42470F5A9
:1053F00082E5F03405F58375F006ED127B2875F033
:1054000002EF127B28E4F0A3F0900F0DE004F0E02F
:10541000B4039E2230610AC261900F067406F080C8
:1054200008D261900F067403F0E4900F04F030612D
:1054300008900F057403F08005E4900F05F0900FBD
:1054400006E0FF900F05E0FEC39F40030257079060
:10545000019CE024F95008700302557D02562C90FF
:105460000F04E075F012A42421F582E5F03400F574
:105470008375F003EE127B28E0FD7F6012AAD090C6
:105480000F04E0FE75F012A42421F582E5F034004B
:10549000F583C083C082900F05E0FDD082D0837574
:1054A000F003127B28EFF075F012EEA42421F582B0
:1054B000E5F03400F58375F003ED127B28E09008E9
:1054C000FAF0900E37E0FF75F0F8A42400F582E5BD
:1054D000F034B8F583EF2583F583C083C08290084C
:1054E000E2E0FFD082D08375F015127B28C083C024
:1054F0008290019CE0FED082D08375F003127B285D
:10550000E49390019DF0900E37E0FD75F0F8A4242F
:1055100001F582E5F034B8F583ED2583F58375F068
:1055200015EF127B2875F003EE127B28E4939000B0
:1055300005F0900E37E0FF75F0F8A42402F582E53F
:10554000F034B8F583EF2583F583C083C0829008DB
:10555000E2E0D082D08375F015127B28C083C08230
:1055600090019CE0D082D08375F003127B28E493F5
:10557000900E40F09008FA129DF802562C900F04FD
:10558000E075F012A42421F582E5F03400F583C023
:1055900083C082900F05E0D082D08375F003127B28
:1055A00028E0FD7FC012AAD0900F04E0FE75F01233
:1055B000A42421F582E5F03400F583C083C08290F5
:1055C0000F05E0FDD082D08375F003127B28EFF049
:1055D00075F012EEA42421F582E5F03400F5837510
:1055E000F003ED127B28E0FF9008FAF0E0FE75F082
:1055F00003A42403F582E5F03414F583E4939001C9
:105600009DF075F003EEA42404F582E5F03414F562
:1056100083E493900005F075F003EFA42405F58270
:10562000E5F03414F583E493900E40F012A3579004
:105630000F04E075F006A4FFA3E0FE2F90B4FE93E4
:10564000F470030256FE900F04E0FFEE75F015A40F
:105650002444F582E43418F583E5822FF582E4359D
:1056600083F583E493FD900F08F0EE75F015A42404
:10567000C2F582E43418F583E5822FF582E43583A0
:10568000F583E493FEFF129DE1EF7072900E61E0EE
:10569000FCA3E0FD900F08E075F02AA42470F582C9
:1056A000E5F03405F58375F006EE127B28ECF0A3E7
:1056B000EDF0900E5DE0FCA3E0FD900F08E075F0CA
:1056C0002AA42472F582E5F03405F58375F006EE20
:1056D000127B28ECF0A3EDF0900E5AE0FCA3E0FD65
:1056E000900F08E075F02AA42474F582E5F03405E3
:1056F000F58375F006EE127B28ECF0A3EDF0900F29
:1057000005E004F002543E900F04E004F0E0C3947E
:1057100015500302542E22900F127401F0306108CC
:10572000C261A37406F08008D261900F137403F075
:10573000E4900F10F0306108900F117403F08005B1
:10574000E4900F11F0900F13E0FF900F11E0C39F52
:105750004003025A08900F10E0FF75F012A424F6DF
:10576000F582E5F03403F583C083C082900F11E029
:10577000FED082D08375F003127B28E0900E63F098
:1057800075F012EFA424F7F582E5F03403F5837584
:10579000F003EE127B28E0900E5FF0900F10E0FF18
:1057A00075F012A424F8F582E5F03403F583C08384
:1057B000C082900F11E0FED082D08375F003127B7F
:1057C00028E0900E5CF075F012EFA42421F582E53C
:1057D000F03400F58375F003EE127B28E0FD900EA7
:1057E00063E08DF0A4AEF07805CEC313CE13D8F9E4
:1057F000900E63F0900E5FE08DF0A4AEF07805CED1
:10580000C313CE13D8F9900E5FF0900F10E075F02F
:1058100012A42421F582E5F03400F583C083C08210
:10582000900F11E0FDD082D08375F003127B28E049
:10583000FF900E5CE08FF0A4AEF07805CEC313CEDF
:1058400013D8F9900E5CF0900E32E0F990111D9390
:10585000FC900E63E08CF0A4FF900E61E5F0F0A3E5
:10586000EFF0900E5FE08CF0A4FF900E5DE5F0F09D
:10587000A3EFF0E990111D93FF900E5CE08FF0A470
:10588000FF900E5AE5F0F0A3EFF0AF05900F10E097
:10589000FD129DE1EF6003025921900E61E0FEA32D
:1058A000E0FF900F10E0FD75F02AA42470F582E56A
:1058B000F03405F583C083C082900F11E0FCD082E4
:1058C000D08375F006127B28EEF0A3EFF0900E5D0A
:1058D000E0FEA3E0FF75F02AEDA42472F582E5F066
:1058E0003405F58375F006EC127B28EEF0A3EFF09B
:1058F000900E5AE0FEA3E0FF900F10E075F02AA48E
:105900002474F582E5F03405F583C083C082900FDE
:1059100011E0D082D08375F006127B28EEF0A3EF61
:10592000F0900F11E0FFA3E0FEA807088002C33348
:10593000D8FCFE900F10E02418F582E4340EF583B5
:10594000E05E6076900F10E0FD75F012A42421F562
:1059500082E5F03400F583C083C082900F11E0FC33
:10596000D082D08375F003127B28E004F075F0122A
:10597000EDA42421F582E5F03400F58375F003EC05
:10598000127B28E0D394204076900F10E0FD75F054
:1059900012A42421F582E5F03400F58375F003EFBD
:1059A000127B287420F074182DF582E4340EF583F0
:1059B000E0FFEEF4FEEF5EF08045900F10E0FF7523
:1059C000F012A42421F582E5F03400F583C083C0F1
:1059D00082900F11E0FED082D08375F003127B28F5
:1059E000E0D39400401975F012EFA42421F582E56C
:1059F000F03400F58375F003EE127B28E014F0908C
:105A00000F11E004F0025745900F10E004F0E0C3DE
:105A10009415500302573522E4900F13F0900EE3D3
:105A2000E004F090019CE0FF64077003025AD590F7
:105A30000E37E0FE75F0F8A42400F582E5F034B8E6
:105A4000F583EE2583F583C083C0829008E2E0FEF3
:105A5000D082D08375F015127B2875F003EF127B8E
:105A600028E49390019DF0900E37E0FD75F0F8A4C6
:105A70002401F582E5F034B8F583ED2583F58375CF
:105A8000F015EE127B2875F003EF127B28E493905B
:105A90000005F0900E37E0FF75F0F8A42402F582BF
:105AA000E5F034B8F583EF2583F583C083C0829099
:105AB00008E2E0D082D08375F015127B28C083C045
:105AC0008290019CE0D082D08375F003127B28E4A1
:105AD00093900E40F0E4900F10F0E4F5B112AB2A71
:105AE000AB07AA06900EE3E02BFFE43AFE7C007DB4
:105AF00084127A70AF05900F12EDF0E0FF90184419
:105B000093900F14F0C394154003025C96E4F5B132
:105B1000EF9018C293900F15F012AB2AAA06AB07AC
:105B20007C007DC0127A70900F12EDF0900F14E09F
:105B3000FF75F012A42421F582E5F03400F583C04E
:105B400083C082900F15E0FED082D08375F00312DF
:105B50007B28E06003025C9674182FF582E4340E13
:105B6000F583E0FD7C00A80674017E00088005C373
:105B700033CE33CED8F9FFEE5CFEEF5D4E6003020C
:105B80005C96900F14E0FD75F012A42421F582E5D7
:105B9000F03400F583C083C082900F15E0FFD082FF
:105BA000D08375F003127B28E4F07B0112A58D9061
:105BB0000F15E0FF900F14E0FD129DE1EF6003026E
:105BC0005C9690019CE064077057FF900F12E0759F
:105BD000F003A42403F582E5F03414F583E5822F65
:105BE000F582E43583F583E493FE900F14E075F0BD
:105BF00012A424F6F582E5F03403F583C083C08255
:105C0000900F15E0D082D08375F003127B28E582D7
:105C10002FF582E43583F583EEF00FEFB403AC800B
:105C20007590019DE0FF900F14E0FE75F012A42422
:105C3000F6F582E5F03403F583C083C082900F153A
:105C4000E0FDD082D08375F003127B28EFF0900046
:105C500005E0FF75F012EEA424F7F582E5F03403B9
:105C6000F58375F003ED127B28EFF0900E40E0FF16
:105C7000900F14E075F012A424F8F582E5F03403D7
:105C8000F583C083C082900F15E0D082D08375F079
:105C900003127B28EFF0900F10E004F0E0C39405AE
:105CA0005003025ADA22900F067401F0306108C2E4
:105CB00061A37406F08008D261900F077403F0E4CA
:105CC000900F04F0306108900F057403F08005E434
:105CD000900F05F0900F07E0FE900F05E0FFC39EC8
:105CE0004003025F22900F04E0FD1270E9EF6003B1
:105CF000025F19900F05E0FFA3E0FEA807088002ED
:105D0000C333D8FCFF900F04E02418F582E4340E6E
:105D1000F583E05F6003025F19900F04E0FF75F008
:105D200012A424F6F582E5F03403F583C083C08223
:105D3000900F05E0FED082D08375F003127B28E03F
:105D4000900E63F075F012EFA424F7F582E5F034BD
:105D500003F58375F003EE127B28E0900E5FF09060
:105D60000F04E0FF75F012A424F8F582E5F0340387
:105D7000F583C083C082900F05E0FED082D083758A
:105D8000F003127B28E0900E5CF075F012EFA42473
:105D900021F582E5F03400F58375F003EE127B28DF
:105DA000E0FD900E63E08DF0A4AEF07805CEC31355
:105DB000CE13D8F9900E63F0900E5FE08DF0A4AE94
:105DC000F07805CEC313CE13D8F9900E5FF0900F84
:105DD00004E075F012A42421F582E5F03400F58387
:105DE000C083C082900F05E0D082D08375F003128B
:105DF0007B28E0FF900E5CE08FF0A4AEF07805CE3B
